:100000000C9408010C9425010C9425010C942501F5
:100010000C9425010C9425010C9425010C942501C8
:100020000C9425010C9425010C94C7020C94050333
:100030000C9425010C9425010C9425010C942501A8
:100040000C9425010C9425010C9425010C94250198
:100050000C9425010C9425010C9425010C94250188
:100060000C9425010C9425010C9425010C94250178
:100070000C9425010C9425010C9425010C94250168
:100080000C9425010C9425010C9425010C94250158
:100090000C9425010C9425010C9425010C94250148
:1000A0000C9425010C9425010C942501084AD73B9A
:1000B0003BCE016E84BCBFFDC12F3D6C74319ABD37
:1000C00056833DDA3D00C77F11BED9E4BB4C3E915B
:1000D0006BAAAABE000000803F07634236B79BD8D8
:1000E000A71A39685618AEBAAB558C1D3CB7CC5719
:1000F00063BD6DEDFD753EF6177231BF00000080E7
:100100003F08000000BE922449123EABAAAA2ABEB4
:10011000CDCCCC4C3E00000080BEABAAAAAA3E00CB
:10012000000000BF000000803F0000000000084108
:1001300078D3BB4387D1133D190E3CC3BD4282AD7A
:100140002B3E68EC8276BED98FE1A93E4C80EFFF52
:10015000BE01C4FF7F3F000000000000000100005E
:10016000F3011200020000B0014300030000AC01E3
:100170000401030904980112020309049001060313
:100180000309048601080803340031003000000030
:1001900006034D003200000012034A002E0020002A
:1001A0004600690065006E00650000000403090454
:1001B00009024300020100C03209040000010202EA
:1001C0000100052400100105240101010424020698
:1001D0000524060001070582031000400904010000
:1001E000020A000000070503024000000705840220
:1001F0004000001201000202000010C0167A040044
:1002000001010203010001C11201803601813600A3
:1002100011241FBECFEFDAE0DEBFCDBF11E0A0E0BA
:10022000B1E0E8EDFCE102C005900D92A033B1070A
:10023000D9F721E0A0E3B1E001C01D92A433B207D9
:10024000E1F70E9427010C946A0E0C940000CF93F2
:10025000DF93CDB7DEB7A4970FB6F894DEBF0FBE1D
:10026000CDBFE1E6F0E080E8808383E080830E94F8
:10027000B70182E390E00E94EF010E94F30488231B
:1002800019F06A9A729802C06E9A76980E9450028B
:100290000E9469028823E1F36E0129E1C20ED11C9C
:1002A000CE0101960E941406811101C06E9A7698C3
:1002B000BE016F5F7F4FC6010E94A7068E010F5FD0
:1002C0001F4F7601F801808191810E9488048FE59B
:1002D0000E946C02F801828193810E9488048FE55C
:1002E0000E946C020A5F1F4F0E151F0559F78DE023
:1002F0000E946C02698D7A8D8B8D9C8D0E94520BB1
:10030000CB010E9488048FE50E946C026D8D7E8D6A
:100310008F8D98A10E94520BCB010E9488048FE51B
:100320000E946C0220E030E044E353E469A17AA12A
:100330008BA19CA10E944A0C20ED3FE049E450E4CF
:100340000E94E00A0E94520BCB010E9488048DE0BB
:100350000E946C028DE00E946C02FFE322E48FE0B9
:10036000F15020408040E1F700C0000099CF219A71
:10037000229A239A279A299A2A982B9A2F98E1E869
:10038000F0E080818B7F80838081826080838081A8
:100390008E7F808380818F7E808380818860808350
:1003A000E0E8F0E080818D7F8083808181608083C0
:1003B0008081806880838081806480838081806286
:1003C00080838081806180831092890010928800F0
:1003D00010928B0010928A00269A259A0895299AE5
:1003E0002A982B9A2F98009749F41092890010921E
:1003F000880010928B0010928A000895BC01181694
:100400001906ECF41092890010928800072E000C57
:10041000880B990B0E948A0B20E030E04FE753E4F1
:100420000E944A0C20E030E048E452E40E94E00AD6
:100430000E94520B70938B0060938A00089571950F
:1004400061957109072E000C880B990B0E948A0B8D
:1004500020E030E04FE753E40E944A0C20E030E017
:1004600048E452E40E94E00A0E94520B7093890013
:100470006093880010928B0010928A000895589A19
:10048000599A5A9A8CE08093B800E9E6F0E08081AE
:100490008062808380818F7E8083EA9A7894089539
:1004A00081E08093D70080EA8093D80082E189BD03
:1004B00009B400FEFDCF80E98093D8001092E000DF
:1004C00010923301109230018CE08093E200789416
:1004D0000895809133010895CF93DF939091330174
:1004E000992309F44CC09FB7F89424E02093E900C5
:1004F00020913101222349F02091E80025FD03C01D
:100500009FBF8FEF41C0109231013091E400375E00
:100510002091E80025FD24C09FBF9091E40093172F
:1005200081F090913301992361F1A9EEB0E044E0AC
:10053000E8EEF0E0C4EED0E00DC09FBF98819313C9
:1005400005C081E0809331018FEF1EC0909133018F
:100550009923C9F09FB7F8944C93208125FFEDCFE4
:100560008093F1008091E80085FD03C08AE38093C9
:10057000E80085E0809332019FBF80E005C08FEFE7
:1005800003C08FEF01C08FEFDF91CF9108951F92CD
:100590000F920FB60F9211248F939F93EF93FF93B7
:1005A000E1EEF0E08081108283FF11C01092E9003B
:1005B00091E09093EB001092EC0092E19093ED00AB
:1005C00098E09093F000109233011092300182FF76
:1005D00013C080913301882379F080913201882300
:1005E00059F0815080933201811106C084E08093DC
:1005F000E9008AE38093E800FF91EF919F918F914A
:100600000F900FBE0F901F9018951F920F920FB66C
:100610000F9211240F931F932F933F934F935F9348
:100620006F937F938F939F93AF93BF93CF93DF93FA
:10063000EF93FF931092E9008091E80083FF4CC193
:10064000E1EFF0E0608180812081908130E0392B02
:100650004081908150E0592B7081C08192EF90933E
:10066000E800863009F058C004C081E28093EB00B6
:100670003AC166E08CE591E0FC01A591B4912A179E
:100680003B0711F0079623C0FC013296A591B49167
:100690004A175B0711F007961AC0FC013496459182
:1006A0005491FC0136962491872F90E09C2B8F3F2C
:1006B000910519F010F08FEF90E0821708F4282FC1
:1006C000A8EEB0E070E16EEFC1EFD0E003C0615082
:1006D00099F6CBCF8C91982F9570E1F382FD03C1F1
:1006E000322F213108F0372F332309F4F9C0FA01F2
:1006F000832F94919883815031968111FACF8FEF97
:10070000830F90E00196480F591F231B6C93211112
:10071000E1CF3031F9F2E7C0853061F48EEF80939C
:10072000E800E8EEF0E0808180FFFDCF20682093B4
:10073000E300D9C0893009F035C06111CDC02093E4
:10074000330110923001109232018EEF8093E80055
:1007500081E025E032E0C9EED0E0ABEEB0E00CEE97
:1007600010E06DEE70E08883A9014F5F5F4FF901E3
:1007700094919C93992361F0FA014491F80140838C
:10078000F901329694912D5F3F4FFB01908301C098
:100790009A018F5F853039F7EAEEF0E08EE18083D1
:1007A0001082A1C0883081F4603809F095C0E8EE6D
:1007B000F0E0808180FFFDCF809133018093F100D4
:1007C0008EEF8093E8008FC08132B9F4613A09F06E
:1007D00083C0E8EEF0E0808180FFFDCFE0E0F1E053
:1007E00027E031E0A1EFB0E081918C93E217F307AD
:1007F000D9F78EEF8093E80076C08032D1F4613271
:1008000009F06AC0E8EEF0E0808182FFFDCFE0E011
:10081000F1E027E031E0A1EFB0E08C918193E217A5
:10082000F307D9F7E8EEF0E08BEF80838EEF80835B
:100830005AC0823271F4613209F04EC02093300107
:10084000E8EEF0E0808180FFFDCF8EEF8093E8003E
:100850004AC081111AC0E8EEF0E0808180FFFDCF30
:10086000623851F4E9EEF0E040838091EB0085FBC3
:10087000882780F9108201C080E0E1EFF0E08083FA
:1008800010828EEF8093E8002EC0982F9D7F9130CC
:1008900019F5623009F5232BF9F44F779FEF940F88
:1008A0009430D0F49EEF9093E8004093E9008330B9
:1008B00021F481E28093EB0016C089E18093EB0084
:1008C00081E090E002C0880F991F4A95E2F7EAEEB6
:1008D000F0E08083108207C081E28093EB0003C0C8
:1008E0006C932111F7CEFF91EF91DF91CF91BF91E2
:1008F000AF919F918F917F916F915F914F913F91B8
:100900002F911F910F910F900FBE0F901F90189570
:10091000EF92FF920F931F93CF93DF93CDB7DEB784
:1009200027970FB6F894DEBF0FBECDBF8E010F5FC5
:100930001F4F27E0F80111922A95E9F74AE0B80124
:100940000E94350E7E01F8E0EF0EF11CF801819156
:100950008F0181110E946C020E151F05B9F72796B1
:100960000FB6F894DEBF0FBECDBFDF91CF911F91C0
:100970000F91FF90EF90089520E030E0ECEBF0E075
:100980008081882334F02F5F3F4F293E83E0380772
:10099000B9F781E0283E334009F480E00895809360
:1009A000BB0084E88093BC000E94BC04882319F03B
:1009B0008091B900887F0895CF93C82F94EA9093CF
:1009C000BC000E94BC04882361F08C2F880F0E9419
:1009D000CF04803229F484E98093BC0080E001C018
:1009E00081E0CF9108950E943F0288E50E94DC04D7
:1009F000882309F4CDC080E30E94CF04882309F442
:100A0000C9C081E00E94CF04882309F4C5C084E9ED
:100A10008093BC0083EC99E00197F1F700C00000DF
:100A200088E50E94DC04882309F4B8C080E00E94B5
:100A3000CF04882309F4B4C080E00E94CF04882347
:100A400009F4B0C080E00E94CF04882309F4ACC050
:100A500080E00E94CF04882309F4A8C080E00E94AF
:100A6000CF04882309F4A4C080E00E94CF04882327
:100A700009F4A0C080E00E94CF04882309F49CC040
:100A800080E90E94CF04882309F498C084E9809308
:100A9000BC0083EC99E00197F1F700C0000088E505
:100AA0000E94DC04882309F48BC087E00E94CF04F5
:100AB000882309F487C080E00E94CF04882309F4CA
:100AC00083C081E40E94CF04882309F47FC084E9B5
:100AD0008093BC0083EC99E00197F1F700C000001F
:100AE00088E50E94DC04882309F472C08AE10E9430
:100AF000CF04882309F46EC080E40E94CF048823C9
:100B000009F46AC080E00E94CF04882309F466C01B
:100B100084E98093BC0083EC99E00197F1F700C071
:100B2000000088E50E94DC04882309F459C083E3AF
:100B30000E94CF04882309F455C083E00E94CF04AB
:100B4000882309F451C084E98093BC0083EC99E0C8
:100B50000197F1F700C0000088E50E94DC048823BB
:100B600009F444C080E30E94CF04882309F440C004
:100B700088E00E94CF048823E9F184E98093BC00D7
:100B800083EC99E00197F1F700C0000081E008953F
:100B900080E0089580E0089580E0089580E0089561
:100BA00080E0089580E0089580E0089580E0089551
:100BB00080E0089580E0089580E0089580E0089541
:100BC00080E0089580E0089580E0089580E0089531
:100BD00080E0089580E0089580E0089580E0089521
:100BE00080E0089580E0089580E0089580E0089511
:100BF00080E0089580E00895CF93C82F84EA809321
:100C0000BC000E94BC04882369F08C2F880F8F5F82
:100C10000E94CF04883429F484E98093BC0080E0EA
:100C200001C081E0CF9108950F931F93CF93DF937D
:100C3000CDB7DEB760970FB6F894DEBF0FBECDBF5D
:100C40008C01FE01319680E1DF011D928A95E9F762
:100C500088E50E94DC04882309F469C086E30E94C9
:100C6000CF04882309F465C084E98093BC00B8E010
:100C7000BA95F1F7000088E50E94FC05882309F485
:100C80005AC0BE016F5F7F4FAE01405F5F4FECEB1C
:100C9000F0E084EC2BEB30E0808390819923ECF73B
:100CA000D9019C91DB019D93BD01A417B507A1F764
:100CB00084E88093BC00ECEBF0E080818823ECF7C3
:100CC0008091BB00888B84E98093BC00BE016C5F7F
:100CD0007F4FF801085E1F4FDB012C91322F3073DC
:100CE000CB010297DC018C9190E0B0E13B9F800D3D
:100CF000911D112491838083422F407C50E0440F4A
:100D0000551F440F551FCB010197DC018C91480FF3
:100D1000511D538342832F7030E0358324836D5FF0
:100D20007F4F3696E017F107B9F681E005C080E005
:100D300003C080E001C080E060960FB6F894DEBF8B
:100D40000FBECDBFDF91CF911F910F9108952F92CC
:100D50003F924F925F926F927F928F929F92AF924B
:100D6000BF92CF92DF92EF92FF920F931F93CF9398
:100D7000DF93CDB7DEB7CC56D1090FB6F894DEBFFE
:100D80000FBECDBFAD969FAF8EAFAD978B0180E20A
:100D9000E7E0F1E0DE01119601900D928A95E1F70E
:100DA000DB016D917C9180E090E00E94880B69A34B
:100DB0007AA38BA39CA3F8016681778180E090E001
:100DC0000E94880B6DA37EA38FA398A7D8011C96C1
:100DD0006D917C911D9780E090E00E94880B69A73F
:100DE0007AA78BA79CA7F8016289738980E090E0BD
:100DF0000E94880B6DA77EA78FA798ABD80112968B
:100E00006D917C91139780E090E00E94880B69AB14
:100E10007AAB8BAB9CABF8016085718580E090E08C
:100E20000E94880B6DAB7EAB8FAB98AFD8011E963E
:100E30006D917C911F9780E090E00E94880B69AFD4
:100E40007AAF8BAF9CAFF8016489758980E090E040
:100E50000E94880B21966CAF7DAF8EAF9FAF21971C
:100E60004E01F1E28F0E911CCE01C196A7969FAF65
:100E70008EAFA7975C013C0184016D961CAE1DAE40
:100E80001EAE1FAE6D97C12CD12C7601D8016D918D
:100E90007D918D919D918D0120E030E040E85EE3F1
:100EA0000E944A0C9B01AC016D966CAD7DAD8EAD80
:100EB0009FAD6D970E94450A6D966CAF7DAF8EAF6A
:100EC0009FAF6D97F30161917191819191913F0174
:100ED00020E030E040E85EE30E944A0C9B01AC0158
:100EE000C701B6010E94450A6B017C010A151B056A
:100EF00069F6A7962EAC3FACA7978401A5961CAEC9
:100F00001DAE1EAE1FAEA597D8016D917D918D913E
:100F10009D918D016D962CAD3DAD4EAD5FAD6D9744
:100F20000E94440AA1966CAF7DAF8EAF9FAFA19790
:100F3000F10161917191819191911F01A701960138
:100F40000E94440A2B013C01A1962CAD3DAD4EAD53
:100F50005FADA197CA01B9010E944A0CA1966CAF7E
:100F60007DAF8EAF9FAFA197A3019201C301B201E4
:100F70000E944A0C9B01AC01A1966CAD7DAD8EAD7B
:100F80009FADA1970E94450A9B01AC01A5966CAD4F
:100F90007DAD8EAD9FADA5970E94450AA5966CAF1D
:100FA0007DAF8EAF9FAFA5970A151B0509F0ACCF9B
:100FB00020E030E040E85EE30E944A0C20E030E0B0
:100FC00040E05FE30E94B70C9B01AC0162E47EEB62
:100FD00085E192E40E94E00A2B013C016D962CAD64
:100FE0003DAD4EAD5FAD6D970E944A0C6D966CAFF6
:100FF0007DAF8EAF9FAF6D97A3019201C701B60180
:101000000E944A0CA1966CAF7DAF8EAF9FAFA197A7
:1010100028EA36EC4BE85EE36D966CAD7DAD8EADA7
:101020009FAD6D970E94450AAD96AEADBFADAD9731
:101030006D937D938D939C93139721E835E943E35A
:1010400050E4A1966CAD7DAD8EAD9FADA1970E9491
:10105000450AAD96EEADFFADAD976483758386838B
:101060009783A7962EAC3FACA7978401D1012D9111
:101070003D914D915C91C301B2010E944A0C6B01FC
:101080007C01F8012081318142815381C301B20189
:101090000E944A0C6D962CAD3DAD4EAD5FAD6D9787
:1010A0000E94440AD8016D937D938D939D938D0189
:1010B000A1962CAD3DAD4EAD5FADA197C701B60178
:1010C0000E94440AF10161937193819391931F01EE
:1010D0000A151B0559F688E0E7E2F1E0DE01AF5A98
:1010E000BF4F01900D928A95E1F71E01F1E42F0E9A
:1010F000311C81016D961CAE1DAE1EAE1FAE6D97EC
:101100006F963FAE2EAE6F97A7962EAC3FACA797CB
:10111000D4016D917D918D919D914D01F101C19011
:10112000D190E190F1901F019B01AC010E944A0C0B
:101130002B013C01A7019601C701B6010E944A0C90
:101140009B01AC01C301B2010E94450A20E030E0DE
:1011500040E05FE30E94B70C9B01AC01D8016D93A6
:101160007D938D939D938D016D966CAD7DAD8EAD10
:101170009FAD6D970E94450A6D966CAF7DAF8EAFA7
:101180009FAF6D978A149B0419F66F962EAC3FACF7
:101190006F9720E030E040E05FE30E94B70CA62E9E
:1011A000B72EC82ED92E7E01B1E5EB0EF11C8101C0
:1011B0002A2D3B2D4C2D5D2DF8016081718182819E
:1011C00093810E94E00AD8016D937D938D939D9346
:1011D0008D01AE15BF0561F7FE01EF5AFF4FAB96CB
:1011E000FFAFEEAFAB97A3961FAE1EAEA397610104
:1011F0006B96FFAFEEAF6B97A3968EAD9FADA397A7
:101200000196A3969FAF8EAFA3978430910509F402
:1012100070C06B962EAC3FAC6B9786017C01A79695
:10122000DFAECEAEA7976F96DFAECEAE6F97D8018A
:1012300014964D905D906D907C9017976F96EEADE3
:10124000FFAD6F9780809180A280B380A50194014B
:10125000C301B2010E943D0C18166CF56B96AEAD41
:10126000BFAD6B97CD90DC90A796EEADFFADA79785
:101270004082518262827382D10112968D919C913B
:1012800013976B96EEADFFAD6B9791838083C5018D
:10129000B4010E94520B072E000C880B990B0E9480
:1012A0008A0BD80114966D937D938D939C93179719
:1012B000F101D382C282FFEFEF1AFF0A0C5F1F4FCA
:1012C00082E0280E311C94E0E916F1040CF4AFCF53
:1012D0006F96CEACDFAC6F97A4E0CA0ED11C6B96B4
:1012E000EEADFFAD6B9732966B96FFAFEEAF6B979F
:1012F00083CF8E010F5F1F4F1E01F1E22F0E311CB5
:10130000A5961CAE1DAE1EAE1FAEA597A1961CAE37
:101310001DAE1EAE1FAEA197D801CD90DD90ED9011
:10132000FC90AB96AEADBFADAB97ED91FD91AB969A
:10133000BFAFAEAFAB97EE0FFF1FEE0FFF1F81E009
:1013400090E08C0F9D1FE80FF91F40A851A862A8DC
:1013500073A8D80114968D919D910D90BC91A02DEC
:101360006D968CAF9DAFAEAFBFAF6D9780A091A0D3
:10137000A2A0B3A0A3019201C701B6010E944A0C2A
:10138000A9966CAF7DAF8EAF9FAFA997A5019401D1
:101390006D966CAD7DAD8EAD9FAD6D970E944A0C84
:1013A0009B01AC01A9966CAD7DAD8EAD9FADA997AB
:1013B0000E94440A9B01AC01A1966CAD7DAD8EAD3F
:1013C0009FADA1970E94450AA1966CAF7DAF8EAFED
:1013D0009FAFA197A5019401C701B6010E944A0CD5
:1013E0006B017C016D962CAD3DAD4EAD5FAD6D9743
:1013F000C301B2010E944A0C9B01AC01C701B601B6
:101400000E94450A9B01AC01A5966CAD7DAD8EADE9
:101410009FADA5970E94450AA5966CAF7DAF8EAF94
:101420009FAFA597085F1F4F0215130509F074CFF2
:10143000A1962CAD3DAD4EAD5FADA1970E94E00AE7
:101440000E94B10AAD96EEADFFADAD976087718792
:1014500082879387C459DF4F0FB6F894DEBF0FBE63
:10146000CDBFDF91CF911F910F91FF90EF90DF9053
:10147000CF90BF90AF909F908F907F906F905F9034
:101480004F903F902F9008955058BB27AA270E9455
:101490005C0A0C94030C0E94F50B38F00E94FC0BC4
:1014A00020F039F49F3F19F426F40C94CB0B0EF482
:1014B000E095E7FB0C94C50BE92F0E94140C58F340
:1014C000BA17620773078407950720F079F4A6F529
:1014D0000C94360C0EF4E0950B2EBA2FA02D0B01B8
:1014E000B90190010C01CA01A0011124FF27591B69
:1014F00099F0593F50F4503E68F11A16F040A22F6F
:10150000232F342F4427585FF3CF469537952795DF
:10151000A795F0405395C9F77EF41F16BA0B620BDE
:10152000730B840BBAF09150A1F0FF0FBB1F661F25
:10153000771F881FC2F70EC0BA0F621F731F841F68
:1015400048F4879577956795B795F7959E3F08F08E
:10155000B0CF9395880F08F09927EE0F9795879550
:101560000895DF93DD27B92FBF7740E85FE31616B4
:10157000170648075B0718F4D92F0E94420C9F9367
:101580008F937F936F930E94070DECEAF0E00E9427
:10159000CE0B0E94030C2F913F914F915F910E94BF
:1015A0005D0CDD2351F09058A2EA2AED3FE049ECB2
:1015B0005FE3D0785D270E945C0ADF910C94030CF6
:1015C0000E94F40A0C94030C0E94FC0B58F00E9439
:1015D000F50B40F029F45F3F29F00C94C50B511135
:1015E0000C94370C0C94CB0B0E94140C68F39923C9
:1015F000B1F3552391F3951B550BBB27AA2762170F
:101600007307840738F09F5F5F4F220F331F441F1B
:10161000AA1FA9F335D00E2E3AF0E0E832D091504F
:101620005040E695001CCAF72BD0FE2F29D0660F3C
:10163000771F881FBB1F261737074807AB07B0E87F
:1016400009F0BB0B802DBF01FF2793585F4F3AF085
:101650009E3F510578F00C94C50B0C94370C5F3FFE
:10166000E4F3983ED4F3869577956795B795F7950B
:101670009F5FC9F7880F911D9695879597F90895F3
:10168000E1E0660F771F881FBB1F6217730784078F
:10169000BA0720F0621B730B840BBA0BEE1F88F79E
:1016A000E09508950E94590B6894B1110C94370C81
:1016B00008950E941C0C88F09F5798F0B92F992725
:1016C000B751B0F0E1F0660F771F881F991F1AF02D
:1016D000BA95C9F714C0B13091F00E94360CB1E050
:1016E00008950C94360C672F782F8827B85F39F04F
:1016F000B93FCCF3869577956795B395D9F73EF4C6
:1017000090958095709561957F4F8F4F9F4F08956D
:10171000E89409C097FB3EF490958095709561958B
:101720007F4F8F4F9F4F9923A9F0F92F96E9BB2741
:101730009395F695879577956795B795F111F8CFBD
:10174000FAF4BB0F11F460FF1BC06F5F7F4F8F4F28
:101750009F4F16C0882311F096E911C0772321F01E
:101760009EE8872F762F05C0662371F096E8862FB6
:1017700070E060E02AF09A95660F771F881FDAF70D
:10178000880F9695879597F9089597F99F6780E850
:1017900070E060E008959FEF80EC0895DF93CF93B1
:1017A0001F930F93FF92EF92DF927B018C0168945D
:1017B00006C0DA2EEF010E945D0CFE01E894A591AF
:1017C0002591359145915591A6F3EF010E945C0A50
:1017D000FE019701A801DA9469F7DF90EF90FF907E
:1017E0000F911F91CF91DF91089500240A9416164E
:1017F000170618060906089500240A9412161306FF
:10180000140605060895092E0394000C11F488238C
:1018100052F0BB0F40F4BF2B11F460FF04C06F5FA8
:101820007F4F8F4F9F4F089557FD9058440F551F7E
:1018300059F05F3F71F04795880F97FB991F61F052
:101840009F3F79F087950895121613061406551FC9
:10185000F2CF4695F1DF08C0161617061806991F35
:10186000F1CF86957105610508940895E894BB272A
:1018700066277727CB0197F908950E94450D08F454
:101880008FEF08959B01AC0160E070E080E89FE37A
:101890000C94E00A0E945D0C0C94030C0E94F50B62
:1018A00038F00E94FC0B20F0952311F00C94C50B2E
:1018B0000C94CB0B11240C94370C0E94140C70F375
:1018C000959FC1F3950F50E0551F629FF001729FE5
:1018D000BB27F00DB11D639FAA27F00DB11DAA1FF4
:1018E000649F6627B00DA11D661F829F2227B00D41
:1018F000A11D621F739FB00DA11D621F839FA00DCC
:10190000611D221F749F3327A00D611D231F849F1B
:10191000600D211D822F762F6A2F11249F57504072
:101920009AF0F1F088234AF0EE0FFF1FBB1F661FED
:10193000771F881F91505040A9F79E3F510580F0B6
:101940000C94C50B0C94370C5F3FE4F3983ED4F332
:10195000869577956795B795F795E7959F5FC1F75A
:10196000FE2B880F911D9695879597F90895FA019A
:10197000EE0FFF1F309621053105A1F161157105AC
:1019800061F48038BFE39B0749F168949038810582
:1019900061F08038BFEF9B0741F099234AF5FF3F84
:1019A000E1053105210519F1E8940894E795D9017D
:1019B000AA2329F4AB2FBE2FF85FD0F310C0FF5F2E
:1019C00070F4A695E0F7F73950F019F0FF3A38F4C3
:1019D0009F779F930DD00F9007FC9058089546F085
:1019E0000C94CB0B60E070E080E89FE308954FE734
:1019F0009F775F934F933F932F930E94AB0D2F914F
:101A00003F914F915F910E944A0C0C94130D9B01E2
:101A1000AC010C944A0C29F416F00C94C50B0C94F0
:101A2000360C0C94CB0B0E941C0CA8F39638A0F734
:101A300007F80F92E8942BE33AEA48EB5FE70E943D
:101A4000600C0F920F920F924DB75EB70F920E94EB
:101A5000F30DE9EDF0E00E94CE0B4F915F91EF9115
:101A6000FF91E595EE1FFF1F49F0FE57E068442700
:101A7000EE0F441FFA95E1F74195550B0E946D0D4D
:101A80000F9007FE0C94420C0895990F0008550F13
:101A9000AA0BE0E8FEEF16161706E807F907C0F0F4
:101AA00012161306E407F50798F0621B730B840BFC
:101AB000950B39F40A2661F0232B242B252B21F4D6
:101AC00008950A2609F4A140A6958FEF811D811D76
:101AD00008950C94C50B0C94270E0E941C0CD8F38F
:101AE0009923C9F3940F511DA3F39150504094F0E2
:101AF00059F0882332F0660F771F881F91505040AD
:101B0000C1F79E3F51052CF7880F911D969587953B
:101B100097F908955F3FACF0983E9CF0BB278695FF
:101B200077956795B79508F4B1609395C1F7BB0FAA
:101B300058F711F460FFE8CF6F5F7F4F8F4F9F4FD3
:101B4000E3CF0C94370C16F00C94270E0C94CB0BAF
:101B500068940C94C50B0E941C0CA8F39923C1F344
:101B6000AEF3DF93CF931F930F93FF92C92FDD271F
:101B700088232AF02197660F771F881FDAF720E065
:101B800030E040E85FEB9FE3883920F0803E38F09A
:101B900021968F770E94450AE1E0F1E004C00E949F
:101BA000450AEEE2F1E00E94CE0B8B01BE01EC0192
:101BB000FB2E6F5771097595771F880B990B0E9443
:101BC0008A0B28E132E741E35FE30E945D0CAF2D11
:101BD0009801AE01FF900F911F91CF91DF910E946C
:101BE0005C0A0C94030CFA01DC01AA0FBB1F9B01D9
:101BF000AC01BF5728F4222733274427507820C050
:101C0000B75190F4AB2F0024469537952795011CCA
:101C1000A395D2F3002071F0220F331F441FB39518
:101C2000DAF30ED00C94440A61307105A0E88A07FB
:101C3000B94630F49B01AC01662777278827907856
:101C4000309621F0208331834283538308959F3F50
:101C500031F0915020F4879577956795B795880F67
:101C6000911D9695879597F90895BB274A3031F4D1
:101C7000992322F4BDE2909581959F4F0C94410EDB
:101C8000BB27FB015527AA27880F991FAA1FA41756
:101C900010F0A41B83955051B9F7A05DAA3308F04A
:101CA000A95DA193009779F7B111B1931192CB017E
:101CB0000C945A0EDC01FC01672F71917723E1F738
:101CC000329704C07C916D9370836291AE17BF0709
:081CD000C8F30895F894FFCF5A
:101CD80000E10000000008A8C68BBEB0728AC1AC43
:101CE8001C364185EBBD40A8C68BBEA01A3B4142BD
:101CF800602DC14260A5BE00000100020003000083
:00000001FF
