:100000000C9467010C9484010C9484010C94840179
:100010000C9484010C9484010C9484010C9484014C
:100020000C9484010C9484010C94B7030C94F50394
:100030000C9484010C9484010C9484010C9484012C
:100040000C9484010C9484010C9484010C9484011C
:100050000C9484010C9484010C9484010C9484010C
:100060000C9484010C9484010C9484010C948401FC
:100070000C9484010C9484010C9484010C948401EC
:100080000C9484010C9484010C9484010C948401DC
:100090000C9484010C9484010C9484010C948401CC
:1000A0000C9484010C9484010C948401084AD73B7D
:1000B0003BCE016E84BCBFFDC12F3D6C74319ABD37
:1000C00056833DDA3D00C77F11BED9E4BB4C3E915B
:1000D0006BAAAABE000000803F05A84CCDB2D44E4A
:1000E000B93836A9020C50B9918688083CA6AAAA4C
:1000F0002ABE000000803F07634236B79BD8A71A8C
:1001000039685618AEBAAB558C1D3CB7CC5763BD99
:100110006DEDFD753EF6177231BF000000803F089F
:10012000000000BE922449123EABAAAA2ABECDCC42
:10013000CC4C3E00000080BEABAAAAAA3E00000044
:1001400000BF000000803F0000000000084178D39D
:10015000BB4387D1133D190E3CC3BD4282AD2B3E3C
:1001600068EC8276BED98FE1A93E4C80EFFFBE01DC
:10017000C4FF7F3F000000000000000100001102EA
:100180001200020000CE014300030000CA01040176
:10019000030904B6011202030904AE0106030309B0
:1001A00004A40108080334003100300000000603F5
:1001B0004D003200000012034A002E0020004600CD
:1001C000690065006E00650000000403090409026F
:1001D0004300020100C032090400000102020100D4
:1001E0000524001001052401010104240206052450
:1001F0000600010705820310004009040100020AFD
:1002000000000007050302400000070584024000CB
:10021000001201000202000010C0167A0400010161
:100220000203010001C11201803601813620202025
:100230002D2D2D20202052686F3A20002020202DC7
:100240002D2D20202054686574613A20002029005B
:100250002C20002820002020202D2D2D2020204E75
:100260006577206672616D653A20002029002C2098
:10027000002820002020202D2D2D202020547261C8
:100280006E736C6174696F6E3A2000426F74746FA4
:100290006D20496E6465783A2000202020202D2DA5
:1002A0002D2D2D2D2020202000546F7020496E64AC
:1002B00065783A20002020202D2D2D2020200020A0
:1002C00029002C2000282000202D2D2D2000112475
:1002D0001FBECFEFDAE0DEBFCDBF11E0A0E0B1E09E
:1002E000EEE6F4E202C005900D92A830B107D9F70E
:1002F00021E0A8E0B1E001C01D92AC30B207E1F707
:100300000E9486010C9435120C940000CF93DF9369
:10031000CDB7DEB7A4970FB6F894DEBF0FBECDBF42
:100320002FE38DE093E0215080409040E1F700C042
:100330000000E1E6F0E080E8808383E080830E94B3
:100340001E020E94FF05882319F06A9A729802C063
:100350006E9A76980E94430381E00E945D0287EACC
:1003600091E60197F1F700C00000CE0101960E94CE
:100370002007811101C06E9A7698BE016F5F7F4F92
:10038000CE0149960E94E00800E010E82EE933E42F
:1003900040E050E068E272E4CE0149960E94D1024A
:1003A0008823E9F280E090E00E947D0215C087EA90
:1003B00091E60197F1F700C00000CE0101960E947E
:1003C0002007811101C06E9A7698BE016F5F7F4F42
:1003D000CE0149960E94E0082D8D3E8D4F8D58A18B
:1003E00060E070E88EE993E40E94670D0E94C20EFF
:1003F0009B01772324F422273327261B370B203138
:100400003105ACF6298D3A8D4B8D5C8D60E070E046
:1004100088E292E40E94670D0E94C20E9B0177233E
:1004200024F422273327261B370B2F3131050CF0FC
:10043000BECF0E9458026E9A7698FFCF219A229AD8
:10044000239A279A299A2A982B9A2F98E1E8F0E084
:1004500080818B7F808380818260808380818E7F9A
:10046000808380818F7E8083808188608083E0E8C4
:10047000F0E080818D7F80838081816080838081B6
:1004800080688083808180648083808180628083B3
:100490008081806180838FEB90E0909389008093CE
:1004A000880090938B0080938A00269A259A08955D
:1004B00029982A982B982F980895882379F08FEB04
:1004C00090E0909389008093880090938B008093B4
:1004D0008A00299A2A982B982F9A08958FEB90E0FA
:1004E000909389008093880090938B0080938A007A
:1004F00029982A9A2B9A2F98089529982A9A2B9806
:100500002F9A009769F487E390E090938900809395
:1005100088008FE390E090938B0080938A00089589
:10052000BC0118161906ECF410928900109288008C
:10053000072E000C880B990B0E94FA0E20E030E089
:100540004FE753E40E941D1020E030E048E452E4FD
:100550000E94500E0E94C20E70938B0060938A001E
:100560000895719561957109072E000C880B990B00
:100570000E94FA0E20E030E04FE753E40E941D1085
:1005800020E030E048E452E40E94500E0E94C20E87
:10059000709389006093880010928B0010928A00FB
:1005A00008958F929F92AF92BF92CF92DF92EF9277
:1005B000FF920F931F93CF93DF93EC0148015901F2
:1005C0009A01AB01688179818A819B810E94670DC4
:1005D0006B017C01A50194016C817D818E819F81DD
:1005E0000E94670D9058A70196010E94E70D9B019C
:1005F000AC0160ED7FE089E490E40E94670D4B015F
:100600005C01C884D984EA84FB842EE23AEF4EE888
:100610005DE30E94670DA70196010E94460E8823A4
:1006200094F42EE23AEF4EE85DE3C501B4010E9476
:10063000680DC1E0A70196010E94101018160CF079
:10064000C0E08C2F01C080E08170DF91CF911F91BD
:100650000F91FF90EF90DF90CF90BF90AF909F9061
:100660008F900895589A599A5A9A8CE08093B800BE
:10067000E9E6F0E080818062808380818F7E8083E4
:10068000EA9A7894089581E08093D70080EA809375
:10069000D80082E189BD09B400FEFDCF80E98093D6
:1006A000D8001092E00010920B01109208018CE02B
:1006B0008093E20078940895CF93DF9390910B019B
:1006C000992309F44CC09FB7F89424E02093E900E3
:1006D00020910901222349F02091E80025FD03C063
:1006E0009FBF8FEF41C0109209013091E400375E47
:1006F0002091E80025FD24C09FBF9091E40093174E
:1007000081F090910B01992361F1A9EEB0E044E0F2
:10071000E8EEF0E0C4EED0E00DC09FBF98819313E7
:1007200005C081E0809309018FEF1EC090910B01FD
:100730009923C9F09FB7F8944C93208125FFEDCF02
:100740008093F1008091E80085FD03C08AE38093E7
:10075000E80085E080930A019FBF80E005C08FEF2D
:1007600003C08FEF01C08FEFDF91CF9108951F92EB
:100770000F920FB60F9211248F939F93EF93FF93D5
:10078000E1EEF0E08081108283FF11C01092E90059
:1007900091E09093EB001092EC0092E19093ED00C9
:1007A00098E09093F00010920B011092080182FFE4
:1007B00013C080910B01882379F080910A0188236E
:1007C00059F0815080930A01811106C084E0809322
:1007D000E9008AE38093E800FF91EF919F918F9168
:1007E0000F900FBE0F901F9018951F920F920FB68B
:1007F0000F9211240F931F932F933F934F935F9367
:100800006F937F938F939F93AF93BF93CF93DF9318
:10081000EF93FF931092E9008091E80083FF4CC1B1
:10082000E1EFF0E0608180812081908130E0392B20
:100830004081908150E0592B7081C08192EF90935C
:10084000E800863009F058C004C081E28093EB00D4
:100850003AC166E08AE791E0FC01A591B4912A17BC
:100860003B0711F0079623C0FC013296A591B49185
:100870004A175B0711F007961AC0FC0134964591A0
:100880005491FC0136962491872F90E09C2B8F3F4A
:10089000910519F010F08FEF90E0821708F4282FDF
:1008A000A8EEB0E070E16EEFC1EFD0E003C06150A0
:1008B00099F6CBCF8C91982F9570E1F382FD03C10F
:1008C000322F213108F0372F332309F4F9C0FA0110
:1008D000832F94919883815031968111FACF8FEFB5
:1008E000830F90E00196480F591F231B6C93211131
:1008F000E1CF3031F9F2E7C0853061F48EEF8093BB
:10090000E800E8EEF0E0808180FFFDCF20682093D2
:10091000E300D9C0893009F035C06111CDC0209302
:100920000B011092080110920A018EEF8093E800EB
:1009300081E023E232E0C9EED0E0ABEEB0E00CEEB5
:1009400010E06DEE70E08883A9014F5F5F4FF90101
:1009500094919C93992361F0FA014491F8014083AA
:10096000F901329694912D5F3F4FFB01908301C0B6
:100970009A018F5F853039F7EAEEF0E08EE18083EF
:100980001082A1C0883081F4603809F095C0E8EE8B
:10099000F0E0808180FFFDCF80910B018093F1001A
:1009A0008EEF8093E8008FC08132B9F4613A09F08C
:1009B00083C0E8EEF0E0808180FFFDCFE0E0F1E071
:1009C00027E031E0A1EFB0E081918C93E217F307CB
:1009D000D9F78EEF8093E80076C08032D1F461328F
:1009E00009F06AC0E8EEF0E0808182FFFDCFE0E030
:1009F000F1E027E031E0A1EFB0E08C918193E217C4
:100A0000F307D9F7E8EEF0E08BEF80838EEF808379
:100A10005AC0823271F4613209F04EC0209308014D
:100A2000E8EEF0E0808180FFFDCF8EEF8093E8005C
:100A30004AC081111AC0E8EEF0E0808180FFFDCF4E
:100A4000623851F4E9EEF0E040838091EB0085FBE1
:100A5000882780F9108201C080E0E1EFF0E0808318
:100A600010828EEF8093E8002EC0982F9D7F9130EA
:100A700019F5623009F5232BF9F44F779FEF940FA6
:100A80009430D0F49EEF9093E8004093E9008330D7
:100A900021F481E28093EB0016C089E18093EB00A2
:100AA00081E090E002C0880F991F4A95E2F7EAEED4
:100AB000F0E08083108207C081E28093EB0003C0E6
:100AC0006C932111F7CEFF91EF91DF91CF91BF9100
:100AD000AF919F918F917F916F915F914F913F91D6
:100AE0002F911F910F910F900FBE0F901F9018958F
:100AF0000F931F93CF938C010F5F1F4FFC01C49185
:100B0000CC2371F0CA3019F48DE00E945C038C2F65
:100B10000E945C03F801C4910F5F1F4FC111F2CF17
:100B2000CF911F910F910895EF92FF920F931F9312
:100B3000CF93DF93CDB7DEB727970FB6F894DEBF1C
:100B40000FBECDBF8E010F5F1F4F27E0F80111923E
:100B50002A95E9F74AE0B8010E9400127E01F8E008
:100B6000EF0EF11CF80181918F0181110E945C034D
:100B70000E151F05B9F727960FB6F894DEBF0FBE06
:100B8000CDBFDF91CF911F910F91FF90EF9008950E
:100B900020E030E0ECEBF0E08081882334F02F5F40
:100BA0003F4F293E83E03807B9F781E0283E3340C4
:100BB00009F480E008958093BB0084E88093BC0032
:100BC0000E94C805882319F08091B900887F089594
:100BD000CF93C82F94EA9093BC000E94C805882345
:100BE00061F08C2F880F0E94DB05803229F484E9A4
:100BF0008093BC0080E001C081E0CF9108950E9405
:100C0000320388E50E94E805882309F4CDC080E31B
:100C10000E94DB05882309F4C9C081E00E94DB053E
:100C2000882309F4C5C084E98093BC0083EC99E073
:100C30000197F1F700C0000088E50E94E8058823CD
:100C400009F4B8C080E00E94DB05882309F4B4C031
:100C500080E00E94DB05882309F4B0C080E00E9498
:100C6000DB05882309F4ACC080E00E94DB05882303
:100C700009F4A8C080E00E94DB05882309F4A4C021
:100C800080E00E94DB05882309F4A0C080E00E9478
:100C9000DB05882309F49CC080E90E94DB058823DA
:100CA00009F498C084E98093BC0083EC99E0019733
:100CB000F1F700C0000088E50E94E805882309F4E8
:100CC0008BC087E00E94DB05882309F487C080E0A1
:100CD0000E94DB05882309F483C081E40E94DB05C0
:100CE000882309F47FC084E98093BC0083EC99E0F9
:100CF0000197F1F700C0000088E50E94E80588230D
:100D000009F472C08AE10E94DB05882309F46EC0F1
:100D100080E40E94DB05882309F46AC080E00E9419
:100D2000DB05882309F466C084E98093BC0083EC6A
:100D300099E00197F1F700C0000088E50E94E805FE
:100D4000882309F459C083E30E94DB05882309F452
:100D500055C083E00E94DB05882309F451C084E973
:100D60008093BC0083EC99E00197F1F700C000008C
:100D700088E50E94E805882309F444C080E30E94C6
:100D8000DB05882309F440C088E00E94DB05882346
:100D9000E9F184E98093BC0083EC99E00197F1F7D5
:100DA00000C0000081E0089580E0089580E008958B
:100DB00080E0089580E0089580E0089580E008953F
:100DC00080E0089580E0089580E0089580E008952F
:100DD00080E0089580E0089580E0089580E008951F
:100DE00080E0089580E0089580E0089580E008950F
:100DF00080E0089580E0089580E0089580E00895FF
:100E000080E0089580E0089580E0089580E00895EE
:100E1000CF93C82F84EA8093BC000E94C805882322
:100E200069F08C2F880F8F5F0E94DB05883429F4CE
:100E300084E98093BC0080E001C081E0CF910895F7
:100E40000F931F93CF93DF93CDB7DEB760970FB6A5
:100E5000F894DEBF0FBECDBF8C01FE01319680E15C
:100E6000DF011D928A95E9F788E50E94E80588234D
:100E700009F469C086E30E94DB05882309F465C094
:100E800084E98093BC00B8E0BA95F1F7000088E5EA
:100E90000E940807882309F45AC0BE016F5F7F4F84
:100EA000AE01405F5F4FECEBF0E084EC2BEB30E009
:100EB000808390819923ECF7D9019C91DB019D936C
:100EC000BD01A417B507A1F784E88093BC00ECEB43
:100ED000F0E080818823ECF78091BB00888B84E967
:100EE0008093BC00BE016C5F7F4FF801085E1F4F0E
:100EF000DB012C91322F3073CB010297DC018C91F6
:100F000090E0B0E13B9F800D911D1124918380837F
:100F1000422F407C50E0440F551F440F551FCB011A
:100F20000197DC018C91480F511D538342832F7030
:100F300030E0358324836D5F7F4F3696E017F107ED
:100F4000B9F681E005C080E003C080E001C080E028
:100F500060960FB6F894DEBF0FBECDBFDF91CF9184
:100F60001F910F9108954F925F926F927F928F928F
:100F70009F92AF92BF92CF92DF92EF92FF920F9328
:100F80001F93CF93DF93CDB7DEB728970FB6F894B2
:100F9000DEBF0FBECDBF3C01562E472E29833A83BC
:100FA0004B835C83ED82FE820F83188788EC92E08E
:100FB0000E9478058301E52CF42C80E1680E711CF9
:100FC00085EC92E00E947805F80161917191819120
:100FD00091918F010E94C20ECB010E94940582EC78
:100FE00092E00E947805F701619171918191919150
:100FF0007F010E94C20ECB010E9494058FEB92E00C
:101000000E94780585EB92E00E9478050615170589
:10101000B9F68DE00E945C0389EA92E00E947805AF
:10102000C6010E9494058AE992E00E9478058BE847
:1010300092E00E947805C5010E9494058DE00E940F
:101040005C0384E792E00E94780581E792E00E94C9
:10105000780569817A818B819C810E94C20ECB01C7
:101060000E9494058EE692E00E9478056D817E8153
:101070008F8198850E94C20ECB010E9494058BE659
:1010800092E00E94780586E592E00E94780583E56B
:1010900092E00E947805F4016081718182819381E0
:1010A0000E94C20ECB010E94940580E592E00E944E
:1010B0007805F40164817581868197810E94C20E52
:1010C000CB010E9494058DE492E00E9478058CE3A8
:1010D00092E00E94780520E030E044E353E4F4011C
:1010E00060857185828593850E941D100E94C20EC5
:1010F000072E000C880B990B0E94FA0E2BED3FE097
:1011000049E450E40E94500E0E94C20ECB010E949E
:1011100094058DE292E00E94780520E030E04DE5F4
:1011200053E4F40160817181828193810E94670D93
:101130006B017C0120E030E047EA53E4F401648174
:101140007581868197810E94670D9058A70196014D
:101150000E94E70D9B01AC016BED7FE089E490E418
:101160000E94670D20E030E044E353E40E941D102C
:101170002BED3FE049E450E40E94500E0E94C20E65
:10118000CB010E9494058DE00E945C038DE00E94DB
:101190005C0328960FB6F894DEBF0FBECDBFDF917B
:1011A000CF911F910F91FF90EF90DF90CF90BF9064
:1011B000AF909F908F907F906F905F904F90089529
:1011C0002F923F924F925F926F927F928F929F9257
:1011D000AF92BF92CF92DF92EF92FF920F931F9345
:1011E000CF93DF93CDB7DEB7C756D1090FB6F894CA
:1011F000DEBF0FBECDBFA8969FAF8EAFA8978B0165
:10120000FB016081718180E090E00E94F80E20E097
:1012100030E040E054E40E94670D69837A838B8359
:101220009C83F8016681778180E090E00E94F80E4F
:1012300020E030E040E054E40E94670D6D837E833F
:101240008F839887F8016485758580E090E00E941F
:10125000F80E20E030E040E054E40E94670D69871A
:101260007A878B879C87F8016289738980E090E098
:101270000E94F80E20E030E040E054E40E94670D48
:101280006D877E878F87988BF8016281738180E0FC
:1012900090E00E94F80E20E030E040EC53E40E9421
:1012A000670DDC01CB01B058898B9A8BAB8BBC8B63
:1012B000F8016085718580E090E00E94F80E20E0E2
:1012C00030E040EC53E40E94670DDC01CB01B058E4
:1012D0008D8B9E8BAF8BB88FF8016685778580E00C
:1012E00090E00E94F80E20E030E040EC53E40E94D1
:1012F000670DDC01CB01B058898F9A8FAB8FBC8F03
:10130000F8016489758980E090E00E94F80E20E081
:1013100030E040EC53E40E94670DDC01CB01B05893
:101320008D8F9E8FAF8FB8A39E012F5F3F4F4901D6
:101330005E0131E1A30EB11C1501750184012596F2
:101340001CAE1DAE1EAE1FAE2597412C512C320196
:10135000F80121913191419151918F01C301B20165
:101360000E94680D2B013C01F701219131914191BF
:1013700051917F0125966CAD7DAD8EAD9FAD2597CA
:101380000E94680D25966CAF7DAF8EAF9FAF2597FD
:1013900002151305E9F620E030E040E85EE3C30102
:1013A000B2010E941D106A966CAF7DAF8EAF9FAFE9
:1013B0006A9720E030E040E85EE325966CAD7DADB5
:1013C0008EAD9FAD25970E941D106E966CAF7DAFC0
:1013D0008EAF9FAF6E973501840125961CAE1DAE72
:1013E0001EAE1FAE2597F801619171918191919187
:1013F0008F016A962CAD3DAD4EAD5FAD6A970E94F0
:10140000670D6B017C01F301619171918191919163
:101410003F016E962CAD3DAD4EAD5FAD6E970E9417
:10142000670D9B01AC010E941D1029966CAF7DAF2A
:101430008EAF9FAF2997A7019601C701B6010E9401
:101440001D109B01AC0129966CAD7DAD8EAD9FAD9D
:1014500029970E94680D9B01AC0125966CAD7DAD6E
:101460008EAD9FAD25970E94680D25966CAF7DAF20
:101470008EAF9FAF25970215130509F0B4CF20E07A
:1014800030E040E85EE30E941D1020E030E040E0E4
:101490005FE30E948A10E62EF72E082F192F2E01E7
:1014A000F1E24F0E511C9E012F5C3F4FA2963FAFC1
:1014B0002EAFA29769013201F4016191719181917E
:1014C00091914F016A962CAD3DAD4EAD5FAD6A97DF
:1014D0000E94670D2E2D3F2D402F512F0E94500E40
:1014E000F30161937193819391933F01F5016191B0
:1014F0007191819191915F016E962CAD3DAD4EAD94
:101500005FAD6E970E94670D2E2D3F2D402F512FFE
:101510000E94500EF60161937193819391936F0134
:101520008214930449F627961FAE1EAE279721E03A
:1015300030E0A4963FAF2EAFA49780E090E02A96CB
:101540001FAE2A972E961FAE2E97612C712C12017A
:10155000AC014F5F5F4FA0965FAF4EAFA097443096
:1015600051050CF088C2F1012191319141915191C5
:101570004F0162962CAF3DAF4EAF5FAF6297A29620
:10158000AEACBFACA297F50121913191419151913F
:101590005F0166962CAF3DAF4EAF5FAF6697A096EA
:1015A0004EAC5FACA097A5968FAFA597A6969FAFC0
:1015B000A697F40121913191419151914F01629689
:1015C0006CAD7DAD8EAD9FAD62970E94670D6B01D6
:1015D0007C01F50121913191419151915F01669614
:1015E0006CAD7DAD8EAD9FAD66970E94670D9B0182
:1015F000AC010E941D1025966CAF7DAF8EAF9FAFE2
:101600002597A7019601C701B6010E941D109B01F5
:10161000AC0125966CAD7DAD8EAD9FAD25970E943A
:10162000680D20E030E040E05FE30E948A10E62E83
:10163000F72E082F192F2A962FAD2A972E963FADF9
:101640002E97462D572D0E9410101816C4F4A496FC
:101650005FAE4EAEA497A596FFADA5972696FFAFB9
:101660002697A6962FADA69727962FAF27972A964F
:10167000EFAE2A972E96FFAE2E97602E712E3FEF7B
:10168000431A530A44E04416510409F092CF54E03F
:10169000250E311CA2968EAD9FADA2970496A29600
:1016A0009FAF8EAFA297A0968EAD9FADA0978330CF
:1016B000910509F04DCF27962EAC3FAC2797A49605
:1016C000CEACDFACA49700E010E02016310609F4A0
:1016D000F4C0C016D10609F4F0C0000F111F000FAE
:1016E000111FE1E0F0E0EC0FFD1F0E0F1F1FF801CE
:1016F00040A051A062A073A07101EE0CFF1CEE0C83
:10170000FF1C21E030E02C0F3D1FE20EF31EA30171
:101710009201F70160A171A182A193A10E94670DBE
:1017200025966CAF7DAF8EAF9FAF2597F80180A84F
:1017300091A8A2A8B3A8A5019401F70160A971A975
:1017400082A993A90E94670D2D966CAF7DAF8EAFD5
:101750009FAF2D9725962CAD3DAD4EAD5FAD259736
:10176000CA01B9010E941D1025966CAF7DAF8EAFE6
:101770009FAF25972D962CAD3DAD4EAD5FAD2D970E
:10178000CA01B9010E941D109B01AC0125966CADE8
:101790007DAD8EAD9FAD25970E94680D20E030E0B5
:1017A00040E05FE30E948A102A966FAF2A972E9638
:1017B0007FAF2E97E82EF92E2FEF3FEF4FE75FE731
:1017C0000E94460E882384F0FFEF2A96FFAF2A97E7
:1017D0002FEF2E962FAF2E970F2EFFE7EF2EF02D27
:1017E0000F2EFFE7FF2EF02D8601000F111F000FB7
:1017F000111F41E050E04C0F5D1F040F151FA301A6
:101800009201F80160A171A182A193A10E94670DCC
:1018100025966CAF7DAF8EAF9FAF2597A501940144
:10182000F80160A971A982A993A90E94670D2B01F3
:101830003C0125962CAD3DAD4EAD5FAD2597CA015F
:10184000B9010E941D104B015C01A3019201C3016B
:10185000B2010E941D109B01AC01C501B4010E94A0
:10186000680D20E030E040E05FE30E948A109B01B9
:10187000AC012A966FAD2A972E967FAD2E978E2DAE
:101880009F2D0E94101018163CF52C143D04E1F019
:10189000A3969FADA397A4968FADA49727962EAD40
:1018A0003FAD2797A4963FAF2EAFA49726969FAF44
:1018B000269727968FAF27970FC00F5F1F4F0430D3
:1018C000110509F002CF08C0A4964EAD5FADA497F4
:1018D00027965FAF4EAF279727960EAD1FAD279780
:1018E000000F111F000F111F81E090E08C0F9D1F52
:1018F000080F191FA496EEACFFACA497EE0CFF1CCA
:10190000EE0CFF1CE80EF91EF70120A131A142A147
:1019100053A1F80160A171A182A193A10E94670D5A
:101920004B015C01F70120A931A942A953A9F80193
:1019300060A971A982A993A90E94670DA5019401CC
:101940000E94E70D2B013C019B01AC016BED7FE098
:1019500089EC90E40E94670D4B015C010E94DA1053
:101960006B017C01C501B4010E944B0E4B015C016F
:101970009B01AC016A966CAD7DAD8EAD9FAD6A9753
:101980000E941D1025966CAF7DAF8EAF9FAF25973F
:10199000A70196016E966CAD7DAD8EAD9FAD6E9735
:1019A0000E941D109B01AC0125966CAD7DAD8EADE6
:1019B0009FAD25970E94670D9B01AC0160E070E030
:1019C0008AEF92E40E94670DA896EEADFFADA8974E
:1019D0006083718382839383A50194016E966CADBD
:1019E0007DAD8EAD9FAD6E970E941D104B015C01C9
:1019F000A70196016A966CAD7DAD8EAD9FAD6A97DD
:101A00000E941D109B01AC01C501B4010E94680D2C
:101A1000905820E030E040EF51E40E94670DA89616
:101A2000EEADFFADA8976483758386839783D3015A
:101A3000C201B05880879187A287B3874F01A496CF
:101A4000AEACBFACA4972796CEACDFAC27976E9612
:101A5000ECACFDAC0EAD1FAD6E976A962CAD3DADF6
:101A60004EAD5FAD6A97BE016F5E7F4FCE010196AE
:101A70000E94B30712C0F4E02F0E311CA2962EADC7
:101A80003FADA2972C5F3F4FA2963FAF2EAFA297DC
:101A9000A0968EAD9FADA0975BCDC959DF4F0FB615
:101AA000F894DEBF0FBECDBFDF91CF911F910F9194
:101AB000FF90EF90DF90CF90BF90AF909F908F906E
:101AC0007F906F905F904F903F902F900895505867
:101AD000BB27AA270E947F0D0C94C20F0E94890F7A
:101AE00038F00E94900F20F039F49F3F19F426F44B
:101AF0000C945F0F0EF4E095E7FB0C94590FE92F5F
:101B00000E94E70F58F3BA17620773078407950717
:101B100020F079F4A6F50C9409100EF4E0950B2E44
:101B2000BA2FA02D0B01B90190010C01CA01A0012F
:101B30001124FF27591B99F0593F50F4503E68F18A
:101B40001A16F040A22F232F342F4427585FF3CFCB
:101B5000469537952795A795F0405395C9F77EF49C
:101B60001F16BA0B620B730B840BBAF09150A1F0E5
:101B7000FF0FBB1F661F771F881FC2F70EC0BA0F6B
:101B8000621F731F841F48F4879577956795B795F3
:101B9000F7959E3F08F0B0CF9395880F08F09927EE
:101BA000EE0F9795879508950E94890F60F080E861
:101BB00091E009F49EEF0E94900F28F040E851E078
:101BC00071F45EEF0CC00C945F0F0C940910E92FB8
:101BD000E0780E94E70F40F3092E052AB1F326179B
:101BE00037074807590738F00E2E07F8E02569F047
:101BF000E025E0640AC0EF6307F8009407FADB0110
:101C0000B9019D01DC01CA01AD01EF930E94670E8D
:101C10000E94C20F0E94170E5F91552339F02BEDE1
:101C20003FE049E450FD49EC0C94680D0895DF93C2
:101C3000DD27B92FBF7740E85FE316161706480780
:101C40005B0718F4D92F0E9415109F938F937F93F1
:101C50006F930E94E210ECEAF0E00E94620F0E9493
:101C6000C20F2F913F914F915F910E943010DD2361
:101C700051F09058A2EA2AED3FE049EC5FE3D078BA
:101C80005D270E947F0DDF910C94C20F0E94350FDB
:101C900008F481E008950E94990FE3950C94D30F06
:101CA0000E94640E0C94C20F0E94900F58F00E9484
:101CB000890F40F029F45F3F29F00C94590F51111E
:101CC0000C940A100C945F0F0E94E70F68F399239D
:101CD000B1F3552391F3951B550BBB27AA27621728
:101CE0007307840738F09F5F5F4F220F331F441F35
:101CF000AA1FA9F335D00E2E3AF0E0E832D0915069
:101D00005040E695001CCAF72BD0FE2F29D0660F55
:101D1000771F881FBB1F261737074807AB07B0E898
:101D200009F0BB0B802DBF01FF2793585F4F3AF09E
:101D30009E3F510578F00C94590F0C940A105F3FA8
:101D4000E4F3983ED4F3869577956795B795F79524
:101D50009F5FC9F7880F911D9695879597F908950C
:101D6000E1E0660F771F881FBB1F621773078407A8
:101D7000BA0720F0621B730B840BBA0BEE1F88F7B7
:101D8000E09508950E94C90E6894B1110C940A1050
:101D900008950E94EF0F88F09F5798F0B92F992768
:101DA000B751B0F0E1F0660F771F881F991F1AF046
:101DB000BA95C9F714C0B13091F00E940910B1E092
:101DC00008950C940910672F782F8827B85F39F091
:101DD000B93FCCF3869577956795B395D9F73EF4DF
:101DE00090958095709561957F4F8F4F9F4F089587
:101DF000E89409C097FB3EF49095809570956195A5
:101E00007F4F8F4F9F4F9923A9F0F92F96E9BB275A
:101E10009395F695879577956795B795F111F8CFD6
:101E2000FAF4BB0F11F460FF1BC06F5F7F4F8F4F41
:101E30009F4F16C0882311F096E911C0772321F037
:101E40009EE8872F762F05C0662371F096E8862FCF
:101E500070E060E02AF09A95660F771F881FDAF726
:101E6000880F9695879597F90895990F0008550F53
:101E7000AA0BE0E8FEEF16161706E807F907C0F010
:101E800012161306E407F50798F0621B730B840B18
:101E9000950B39F40A2661F0232B242B252B21F4F2
:101EA00008950A2609F4A140A6958FEF811D811D92
:101EB000089597F99F6780E870E060E008959FEFCC
:101EC00080EC0895DF93CF931F930F93FF92EF92CF
:101ED000DF927B018C01689406C0DA2EEF010E942C
:101EE0003010FE01E894A5912591359145915591C9
:101EF000A6F3EF010E947F0DFE019701A801DA947D
:101F000069F7DF90EF90FF900F911F91CF91DF91D4
:101F1000089500240A94161617061806090608954F
:101F200000240A94121613061406050608950C944C
:101F30005F0F0E94EF0FD8F3E894E0E0BB279F57B4
:101F4000F0F02AED3FE049EC06C0EE0FBB0F661F34
:101F5000771F881F28F0B23A62077307840728F0BA
:101F6000B25A620B730B840BE3959A9572F7803823
:101F700030F49A95BB0F661F771F881FD2F79048E1
:101F80000C942211092E0394000C11F4882352F0B2
:101F9000BB0F40F4BF2B11F460FF04C06F5F7F4F95
:101FA0008F4F9F4F0895EF93E0FF07C0A2EA2AEDFD
:101FB0003FE049EC5FEB0E947F0D0E94C20F0F9043
:101FC000039401FC9058E9EDF0E00C942E1157FDBC
:101FD0009058440F551F59F05F3F71F04795880F97
:101FE00097FB991F61F09F3F79F08795089512162E
:101FF00013061406551FF2CF4695F1DF08C01616DA
:1020000017061806991FF1CF86957105610508948A
:102010000895E894BB2766277727CB0197F90895A1
:102020000E94350F08F48FEF08959B01AC0160E02A
:1020300070E080E89FE30C94500E0E9430100C94E6
:10204000C20F0E94890F38F00E94900F20F0952354
:1020500011F00C94590F0C945F0F11240C940A107A
:102060000E94E70F70F3959FC1F3950F50E0551F45
:10207000629FF001729FBB27F00DB11D639FAA27DD
:10208000F00DB11DAA1F649F6627B00DA11D661F2C
:10209000829F2227B00DA11D621F739FB00DA11D4D
:1020A000621F839FA00D611D221F749F3327A00D07
:1020B000611D231F849F600D211D822F762F6A2FA3
:1020C00011249F5750409AF0F1F088234AF0EE0F08
:1020D000FF1FBB1F661F771F881F91505040A9F735
:1020E0009E3F510580F00C94590F0C940A105F3FED
:1020F000E4F3983ED4F3869577956795B795F79571
:10210000E7959F5FC1F7FE2B880F911D96958795E8
:1021100097F90895FA01EE0FFF1F3096210531055A
:10212000A1F16115710561F48038BFE39B0749F1A6
:1021300068949038810561F08038BFEF9B0741F0CB
:1021400099234AF5FF3FE1053105210519F1E8948E
:102150000894E795D901AA2329F4AB2FBE2FF85F85
:10216000D0F310C0FF5F70F4A695E0F7F73950F098
:1021700019F0FF3A38F49F779F930DD00F9007FC2A
:102180009058089546F00C945F0F60E070E080E88E
:102190009FE308954FE79F775F934F933F932F936C
:1021A0000E9484112F913F914F915F910E941D10C9
:1021B0000C94EE109F930E94990F0F9007FCEE5F16
:1021C0000C94D30F9B01AC010C941D1029F416F054
:1021D0000C94590F0C9409100C945F0F0E94EF0F90
:1021E000A8F39638A0F707F80F92E8942BE33AEAA1
:1021F00048EB5FE70E9433100F920F920F924DB79A
:102200005EB70F920E94CC11E7EFF0E00E94620FE0
:102210004F915F91EF91FF91E595EE1FFF1F49F000
:10222000FE57E0684427EE0F441FFA95E1F7419509
:10223000550B0E9446110F9007FE0C94151008953F
:102240009F3F31F0915020F4879577956795B7952A
:10225000880F911D9695879597F908959F938F9371
:102260007F936F93FF93EF939B01AC010E941D102E
:10227000EF91FF910E94620F2F913F914F915F91DB
:102280000C941D100C94590F0C9420110E94EF0F08
:10229000D8F39923C9F3940F511DA3F391505040E3
:1022A00094F059F0882332F0660F771F881F915001
:1022B0005040C1F79E3F51052CF7880F911D969510
:1022C000879597F908955F3FACF0983E9CF0BB2747
:1022D000869577956795B79508F4B1609395C1F7A2
:1022E000BB0F58F711F460FFE8CF6F5F7F4F8F4F40
:1022F0009F4FE3CF0C940A1016F00C9420110C940D
:102300005F0F68940C94590F0E94EF0FA8F3992364
:10231000C1F3AEF3DF93CF931F930F93FF92C92FB7
:10232000DD2788232AF02197660F771F881FDAF7A9
:1023300020E030E040E85FEB9FE3883920F0803E0A
:1023400038F021968F770E94680DEFE1F1E004C02C
:102350000E94680DECE4F1E00E94620F8B01BE0167
:10236000EC01FB2E6F5771097595771F880B990B40
:102370000E94FA0E28E132E741E35FE30E94301049
:10238000AF2D9801AE01FF900F911F91CF91DF917A
:102390000E947F0D0C94C20FFA01DC01AA0FBB1F33
:1023A0009B01AC01BF5728F42227332744275078DC
:1023B00020C0B75190F4AB2F002446953795279550
:1023C000011CA395D2F3002071F0220F331F441F8C
:1023D000B395DAF30ED00C94670D61307105A0E867
:1023E0008A07B94630F49B01AC0166277727882716
:1023F0009078309621F0208331834283538308956F
:10240000BB274A3031F4992322F4BDE2909581959F
:102410009F4F0C940C12BB27FB015527AA27880F4E
:10242000991FAA1FA41710F0A41B83955051B9F748
:10243000A05DAA3308F0A95DA193009779F7B111C7
:10244000B1931192CB010C942512DC01FC01672F92
:1024500071917723E1F7329704C07C916D9370837B
:0E2460006291AE17BF07C8F30895F894FFCF3E
:08246E0000E10000000008007D
:00000001FF
