:100000000C9456000C946B000C946B000C946B00D9
:100010000C946B000C946B000C946B000C946B00B4
:100020000C946B000C946B000C946B000C946B00A4
:100030000C946B000C946B000C946B000C946B0094
:100040000C946B000C946B000C946B000C946B0084
:100050000C946B000C946B000C946B000C946B0074
:100060000C946B000C946B000C946B000C946B0064
:100070000C946B000C946B000C946B000C946B0054
:100080000C946B000C946B000C946B000C946B0044
:100090000C946B000C946B000C946B000C946B0034
:1000A0000C946B000C946B000C946B0011241FBE1D
:1000B000CFEFDAE0DEBFCDBF11E0A0E0B1E0EAECC7
:1000C000F2E002C005900D92AA30B107D9F70E9464
:1000D0006D000C9463010C940000CF93DF93CDB7B7
:1000E000DEB72A970FB6F894DEBF0FBECDBFE1E6AC
:1000F000F0E080E8808383E080830E94AB004AE0E8
:1001000064E389E10E94BC00811101C06E9A769877
:100110008AE0E0E0F1E0DE01119601900D928A950F
:10012000E1F74AE0BE016F5F7F4F84E30E94120156
:10013000882311F06A9A72988FE493EC0197F1F793
:1001400000C000006A9A729A8FE493EC0197F1F76D
:1001500000C00000E6CF589A599A5A9A8CE08093D2
:10016000B800E9E6F0E080818062808380818F7E44
:100170008083EA9A789408951F93CF93DF93182F82
:10018000D62FC42F0E94AB0094EA9093BC00ECEBF6
:10019000F0E090819923ECF790E59093BB0094E810
:1001A0009093BC00ECEBF0E090819923ECF79091F8
:1001B000B900987F903229F484E98093BC0080E0F4
:1001C0002DC081E08093BB0084E88093BC00ECEB01
:1001D000F0E090819923ECF71093BB0084E88093C2
:1001E000BC00ECEBF0E080818823ECF7D093BB00FF
:1001F00084E88093BC00ECEBF0E080818823ECF78E
:10020000C093BB0084E88093BC00ECEBF0E08081FD
:100210008823ECF784E98093BC0081E0DF91CF91E3
:100220001F910895CF93DF93F89494EA9093BC00C4
:10023000ECEBF0E090819923ECF790E59093BB0014
:1002400094E89093BC00ECEBF0E090819923ECF7FC
:100250009091B900987F903231F484E98093BC008A
:10026000789480E02DC093E09093BB0094E8909345
:10027000BC00ECEBF0E090819923ECF78093BB009D
:1002800084E88093BC00ECEBF0E080818823ECF7FD
:10029000442389F0DB01640F711DCBEBD0E0ECEB64
:1002A000F0E094E88D918883908380818823ECF737
:1002B000A617B707B9F784E98093BC00789481E06A
:0A02C000DF91CF910895F894FFCF6D
:0A02CA00A0A0A0A0A0A0A0A0A0A0EA
:00000001FF
