:100000000C9467010C9484010C9484010C94120EDE
:100010000C9484010C9484010C9484010C9484014C
:100020000C9484010C9484010C94F4030C94320419
:100030000C9484010C9484010C9484010C9484012C
:100040000C9484010C9484010C9484010C9484011C
:100050000C9484010C9484010C9484010C9484010C
:100060000C9484010C9484010C9484010C948401FC
:100070000C9484010C9484010C9484010C948401EC
:100080000C9484010C9484010C9484010C948401DC
:100090000C9484010C9484010C9484010C948401CC
:1000A0000C9484010C9484010C948401084AD73B7D
:1000B0003BCE016E84BCBFFDC12F3D6C74319ABD37
:1000C00056833DDA3D00C77F11BED9E4BB4C3E915B
:1000D0006BAAAABE000000803F05A84CCDB2D44E4A
:1000E000B93836A9020C50B9918688083CA6AAAA4C
:1000F0002ABE000000803F07634236B79BD8A71A8C
:1001000039685618AEBAAB558C1D3CB7CC5763BD99
:100110006DEDFD753EF6177231BF000000803F089F
:10012000000000BE922449123EABAAAA2ABECDCC42
:10013000CC4C3E00000080BEABAAAAAA3E00000044
:1001400000BF000000803F0000000000084178D39D
:10015000BB4387D1133D190E3CC3BD4282AD2B3E3C
:1001600068EC8276BED98FE1A93E4C80EFFFBE01DC
:10017000C4FF7F3F000000000000000100001102EA
:100180001200020000CE014300030000CA01040176
:10019000030904B6011202030904AE0106030309B0
:1001A00004A40108080334003100300000000603F5
:1001B0004D003200000012034A002E0020004600CD
:1001C000690065006E00650000000403090409026F
:1001D0004300020100C032090400000102020100D4
:1001E0000524001001052401010104240206052450
:1001F0000600010705820310004009040100020AFD
:1002000000000007050302400000070584024000CB
:10021000001201000202000010C0167A0400010161
:100220000203010001C11201803601813620202025
:100230002D2D2D20202052686F3A20002020202DC7
:100240002D2D20202054686574613A20002029005B
:100250002C20002820002020202D2D2D2020204E75
:100260006577206672616D653A20002029002C2098
:10027000002820002020202D2D2D202020547261C8
:100280006E736C6174696F6E3A2000426F74746FA4
:100290006D20496E6465783A2000202020202D2DA5
:1002A0002D2D2D2D2020202000546F7020496E64AC
:1002B00065783A20002020202D2D2D2020200020A0
:1002C00029002C2000282000202D2D2D2000112475
:1002D0001FBECFEFDAE0DEBFCDBF11E0A0E0B1E09E
:1002E000E6E4F6E202C005900D92A830B107D9F716
:1002F00021E0A8E0B1E001C01D92A831B207E1F70A
:100300000E9491010C9421130C940000529A539A6C
:100310000895882319F05A9A5B9808955A985B9A21
:100320000895CF93DF93CDB7DEB7A5970FB6F894B6
:10033000DEBF0FBECDBF2FEB87E299E0215080409A
:100340009040E1F700C00000E1E6F0E080E8808343
:1003500083E080830E94860180E00E9489010E94E0
:100360007D030E9496030E94F9010E943C066E9A4A
:1003700076988823D1F36E9A769ACE0101960E94E0
:10038000140981E080930C0101E010E06894DD2401
:10039000D6F8E12CF12C6894CC24C2F81DC00436A8
:1003A00011051CF40F5F1F4F17C0CE010E960E945F
:1003B0005D07882321F06A9A8EB18C258EB96E9ADA
:1003C0008EB18D258EB9BE01625F7F4FCE01019641
:1003D0000E9425090E2D1F2D80910C018823F9F212
:1003E000CE0101960E94A00D8823C9F26A9A7298E4
:1003F000D6CF219A229A239A279A299A2A982B9A19
:100400002F98E1E8F0E080818B7F8083808182609B
:10041000808380818E7F808380818F7E80838081B6
:1004200088608083E0E8F0E080818D7F8083808138
:100430008160808380818068808380818064808304
:100440008081806280838081806180838FEB90E0F7
:10045000909389008093880090938B0080938A000A
:10046000269A259A089529982A982B982F980895C6
:10047000882389F08FEF90E0861B970B909389007B
:100480008093880090938B0080938A00299A2A9801
:100490002B982F9A08958FEF90E0861B970B9093DF
:1004A00089008093880090938B0080938A0029981C
:1004B0002A9A2B9A2F98089529982A9A2B982F9A3E
:1004C000009769F487E390E0909389008093880017
:1004D0008FE390E090938B0080938A000895BC0195
:1004E00018161906ECF41092890010928800072E55
:1004F000000C880B990B0E94E60F20E030E04FE7DC
:1005000053E40E94091120E030E048E452E40E94E4
:100510003C0F0E94AE0F70938B0060938A00089589
:10052000719561957109072E000C880B990B0E943B
:10053000E60F20E030E04FE753E40E94091120E08D
:1005400030E048E452E40E943C0F0E94AE0F7093EA
:1005500089006093880010928B0010928A000895A1
:100560008F929F92AF92BF92CF92DF92EF92FF92C3
:100570000F931F93CF93DF93EC01CB01BA01480196
:10058000590129813A814B815C810E94530E6B0194
:100590007C012D813E814F815885C501B4010E94A7
:1005A000530EA70196010E94D30E4B015C01C98432
:1005B000DA84EB84FC8429EB38EB42E35EE30E94AF
:1005C000530EA70196010E94320F882394F429EB61
:1005D00038EB42E35EE3C501B4010E94540EC1E072
:1005E000A70196010E94FC1018160CF0C0E08C2F99
:1005F00001C080E08170DF91CF911F910F91FF903A
:10060000EF90DF90CF90BF90AF909F908F90089524
:10061000589A599A5A9A8CE08093B800E9E6F0E02B
:1006200080818062808380818F7E8083EA9A789443
:100630000895CF93DF939C0184EA8093BC00ECEB98
:10064000F0E090819923ECF781E58093BB0084E88A
:100650008093BC00ECEBF0E090819923ECF7809163
:10066000B900887F883429F484E98093BC0080E055
:1006700041C084EC8093BC00ECEBF0E090819923C6
:10068000ECF74091BB00461309C0842F90E001971E
:100690001816190644F040E050E01AC084E980932F
:1006A000BC0080E027C0D90150E041505109B90198
:1006B000640F751FECEBF0E084ECCBEBD0E08083B3
:1006C00090819923ECF798819D93A617B707B9F706
:1006D00084E88093BC00ECEBF0E090819923ECF788
:1006E0008091BB00F901E40FF51F808384E98093BA
:1006F000BC0081E0DF91CF91089581E08093D70025
:1007000080EA8093D80082E189BD09B400FEFDCF64
:1007100080E98093D8001092E00010920B011092B3
:1007200008018CE08093E2007894089580910B0199
:100730000895CF93DF9390910B01992309F44CC056
:100740009FB7F89424E02093E90020910901222327
:1007500049F02091E80025FD03C09FBF8FEF41C005
:10076000109209013091E400375E2091E80025FDE8
:1007700024C09FBF9091E400931781F090910B01EA
:10078000992361F1A9EEB0E044E0E8EEF0E0C4EEB8
:10079000D0E00DC09FBF9881931305C081E0809386
:1007A00009018FEF1EC090910B019923C9F09FB7EB
:1007B000F8944C93208125FFEDCF8093F100809138
:1007C000E80085FD03C08AE38093E80085E080931C
:1007D0000A019FBF80E005C08FEF03C08FEF01C00B
:1007E0008FEFDF91CF9108951F920F920FB60F9266
:1007F00011248F939F93EF93FF93E1EEF0E08081BC
:10080000108283FF11C01092E90091E09093EB00F9
:100810001092EC0092E19093ED0098E09093F0003C
:1008200010920B011092080182FF13C080910B01FE
:10083000882379F080910A01882359F081508093B0
:100840000A01811106C084E08093E9008AE3809365
:10085000E800FF91EF919F918F910F900FBE0F9045
:100860001F9018951F920F920FB60F9211240F939D
:100870001F932F933F934F935F936F937F938F9328
:100880009F93AF93BF93CF93DF93EF93FF93109218
:10089000E9008091E80083FF4CC1E1EFF0E0608166
:1008A00080812081908130E0392B4081908150E01F
:1008B000592B7081C08192EF9093E800863009F047
:1008C00058C004C081E28093EB003AC166E08AE739
:1008D00091E0FC01A591B4912A173B0711F007960E
:1008E00023C0FC013296A591B4914A175B0711F021
:1008F00007961AC0FC01349645915491FC01369636
:100900002491872F90E09C2B8F3F910519F010F0D8
:100910008FEF90E0821708F4282FA8EEB0E070E186
:100920006EEFC1EFD0E003C0615099F6CBCF8C9150
:10093000982F9570E1F382FD03C1322F213108F029
:10094000372F332309F4F9C0FA01832F9491988348
:10095000815031968111FACF8FEF830F90E001968D
:10096000480F591F231B6C932111E1CF3031F9F24D
:10097000E7C0853061F48EEF8093E800E8EEF0E0A8
:10098000808180FFFDCF20682093E300D9C08930AB
:1009900009F035C06111CDC020930B011092080100
:1009A00010920A018EEF8093E80081E023E232E0AA
:1009B000C9EED0E0ABEEB0E00CEE10E06DEE70E012
:1009C0008883A9014F5F5F4FF90194919C9399230C
:1009D00061F0FA014491F8014083F9013296949153
:1009E0002D5F3F4FFB01908301C09A018F5F8530DF
:1009F00039F7EAEEF0E08EE180831082A1C0883002
:100A000081F4603809F095C0E8EEF0E0808180FF65
:100A1000FDCF80910B018093F1008EEF8093E80071
:100A20008FC08132B9F4613A09F083C0E8EEF0E09A
:100A3000808180FFFDCFE0E0F1E027E031E0A1EF31
:100A4000B0E081918C93E217F307D9F78EEF809392
:100A5000E80076C08032D1F4613209F06AC0E8EE75
:100A6000F0E0808182FFFDCFE0E0F1E027E031E0BF
:100A7000A1EFB0E08C918193E217F307D9F7E8EE8C
:100A8000F0E08BEF80838EEF80835AC0823271F466
:100A9000613209F04EC020930801E8EEF0E0808159
:100AA00080FFFDCF8EEF8093E8004AC081111AC00D
:100AB000E8EEF0E0808180FFFDCF623851F4E9EE8E
:100AC000F0E040838091EB0085FB882780F910825D
:100AD00001C080E0E1EFF0E0808310828EEF809330
:100AE000E8002EC0982F9D7F913019F5623009F5EE
:100AF000232BF9F44F779FEF940F9430D0F49EEFAF
:100B00009093E8004093E900833021F481E28093E0
:100B1000EB0016C089E18093EB0081E090E002C019
:100B2000880F991F4A95E2F7EAEEF0E08083108281
:100B300007C081E28093EB0003C06C932111F7CED4
:100B4000FF91EF91DF91CF91BF91AF919F918F91E5
:100B50007F916F915F914F913F912F911F910F91D5
:100B60000F900FBE0F901F9018950F931F93CF9368
:100B70008C010F5F1F4FFC01C491CC2371F0CA3070
:100B800019F48DE00E9499038C2F0E949903F801BB
:100B9000C4910F5F1F4FC111F2CFCF911F910F91E1
:100BA0000895EF92FF920F931F93CF93DF93CDB7EA
:100BB000DEB727970FB6F894DEBF0FBECDBF8E010C
:100BC0000F5F1F4F27E0F80111922A95E9F74AE0DD
:100BD000B8010E94EC127E01F8E0EF0EF11CF80162
:100BE00081918F0181110E9499030E151F05B9F79C
:100BF00027960FB6F894DEBF0FBECDBFDF91CF9121
:100C00001F910F91FF90EF90089520E030E0ECEB02
:100C1000F0E08081882334F02F5F3F4F293E83E04E
:100C20003807B9F781E0283E334009F480E00895A1
:100C30008093BB0084E88093BC000E940506882353
:100C400019F08091B900887F0895CF93C82F94EA56
:100C50009093BC000E940506882361F08C2F880FBA
:100C60000E941806803229F484E98093BC0080E059
:100C700001C081E0CF9108950E94080388E50E9499
:100C80002506882309F4CDC080E30E941806882336
:100C900009F4C9C081E00E941806882309F4C5C080
:100CA00084E98093BC0083EC99E00197F1F700C0E0
:100CB000000088E50E942506882309F4B8C080E07A
:100CC0000E941806882309F4B4C080E00E94180628
:100CD000882309F4B0C080E00E941806882309F434
:100CE000ACC080E00E941806882309F4A8C080E008
:100CF0000E941806882309F4A4C080E00E94180608
:100D0000882309F4A0C080E00E941806882309F413
:100D10009CC080E90E941806882309F498C084E9E1
:100D20008093BC0083EC99E00197F1F700C00000CC
:100D300088E50E942506882309F48BC087E00E947D
:100D40001806882309F487C080E00E9418068823CB
:100D500009F483C081E40E941806882309F47FC047
:100D600084E98093BC0083EC99E00197F1F700C01F
:100D7000000088E50E942506882309F472C08AE1F4
:100D80000E941806882309F46EC080E40E941806A9
:100D9000882309F46AC080E00E941806882309F4B9
:100DA00066C084E98093BC0083EC99E00197F1F779
:100DB00000C0000088E50E942506882309F459C078
:100DC00083E30E941806882309F455C083E00E943B
:100DD0001806882309F451C084E98093BC0083EC91
:100DE00099E00197F1F700C0000088E50E94250610
:100DF000882309F444C080E30E941806882309F47C
:100E000040C088E00E9418068823E9F184E98093B5
:100E1000BC0083EC99E00197F1F700C0000081E08D
:100E2000089580E0089580E0089580E0089580E0CE
:100E3000089580E0089580E0089580E0089580E0BE
:100E4000089580E0089580E0089580E0089580E0AE
:100E5000089580E0089580E0089580E0089580E09E
:100E6000089580E0089580E0089580E0089580E08E
:100E7000089580E0089580E0089580E0089580E07E
:100E8000089580E0089580E00895CF93C82F84EA04
:100E90008093BC000E940506882369F08C2F880F80
:100EA0008F5F0E941806883429F484E98093BC007F
:100EB00080E001C081E0CF9108950F931F93CF93FD
:100EC000DF93CDB7DEB760970FB6F894DEBF0FBEE5
:100ED000CDBF8C01FE01319680E1DF011D928A9524
:100EE000E9F788E50E942506882309F469C086E3AE
:100EF0000E941806882309F465C084E98093BC0029
:100F0000B8E0BA95F1F7000088E50E94450788230C
:100F100009F45AC0BE016F5F7F4FAE01405F5F4F63
:100F2000ECEBF0E084EC2BEB30E0808390819923B4
:100F3000ECF7D9019C91DB019D93BD01A417B50786
:100F4000A1F784E88093BC00ECEBF0E0808188237B
:100F5000ECF78091BB00888B84E98093BC00BE01D4
:100F60006C5F7F4FF801085E1F4FDB012C91322F21
:100F70003073CB010297DC018C9190E0B0E13B9F94
:100F8000800D911D112491838083422F407C50E07D
:100F9000440F551F440F551FCB010197DC018C9165
:100FA000480F511D538342832F7030E035832483D3
:100FB0006D5F7F4F3696E017F107B9F681E005C007
:100FC00080E003C080E001C080E060960FB6F89436
:100FD000DEBF0FBECDBFDF91CF911F910F9108955E
:100FE0004F925F926F927F928F929F92AF92BF9239
:100FF000CF92DF92EF92FF920F931F93CF93DF93E5
:10100000CDB7DEB728970FB6F894DEBF0FBECDBFC1
:101010003C01562E472E29833A834B835C83ED8215
:10102000FE820F83188788EC92E00E94B505830149
:10103000E52CF42C80E1680E711C85EC92E00E9496
:10104000B505F80161917191819191918F010E9493
:10105000AE0FCB010E94D10582EC92E00E94B50553
:10106000F70161917191819191917F010E94AE0F81
:10107000CB010E94D1058FEB92E00E94B50585EB74
:1010800092E00E94B50506151705B9F68DE00E949D
:10109000990389EA92E00E94B505C6010E94D10534
:1010A0008AE992E00E94B5058BE892E00E94B505BE
:1010B000C5010E94D1058DE00E94990384E792E06A
:1010C0000E94B50581E792E00E94B50569817A81A9
:1010D0008B819C810E94AE0FCB010E94D1058EE6D0
:1010E00092E00E94B5056D817E818F8198850E9476
:1010F000AE0FCB010E94D1058BE692E00E94B505B0
:1011000086E592E00E94B50583E592E00E94B50570
:10111000F40161817281838194810E94AE0FCB01C1
:101120000E94D10580E592E00E94B505F401658139
:101130007681878190850E94AE0FCB010E94D105F8
:101140008DE492E00E94B5058CE392E00E94B50523
:1011500020E030E044E353E4F40161857285838547
:1011600094850E9409110E94AE0F072E000C880B77
:10117000990B0E94E60F2BED3FE049E450E40E94FA
:101180003C0F0E94AE0FCB010E94D1058DE292E090
:101190000E94B505F401218132814381548160E0D0
:1011A00070E082EF92E40E94530E6B017C01F40127
:1011B000258136814781508560E070E886EB93E4B5
:1011C0000E94530EA70196010E94D30E20E030E04A
:1011D00044E353E40E9409112BED3FE049E450E45D
:1011E0000E943C0F0E94AE0FCB010E94D1058DE002
:1011F0000E9499038DE00E94990328960FB6F894F7
:10120000DEBF0FBECDBFDF91CF911F910F91FF9039
:10121000EF90DF90CF90BF90AF909F908F907F9096
:101220006F905F904F900895FC011182128213829B
:1012300014821582168217821086118612861386F2
:101240001486108210920C0108952F923F924F92B3
:101250005F926F927F928F929F92AF92BF92CF9246
:10126000DF92EF92FF920F931F93CF93DF93CDB74F
:10127000DEB7C756D1090FB6F894DEBF0FBECDBF9B
:10128000A8969FAF8EAFA8978B01DB016D917C91E3
:1012900080E090E00E94E40F20E030E040E054E481
:1012A0000E94530E69837A838B839C83F801668145
:1012B000778180E090E00E94E40F20E030E040E0A1
:1012C00054E40E94530E6D837E838F839887D801E8
:1012D0001C966D917C911D9780E090E00E94E40F38
:1012E00020E030E040E054E40E94530E69877A87A2
:1012F0008B879C87F8016289738980E090E00E9467
:10130000E40F20E030E040E054E40E94530E6D878B
:101310007E878F87988BD80112966D917C91139759
:1013200080E090E00E94E40F20E030E040EC53E4E5
:101330000E94530EDC01CB01B058898B9A8BAB8B8A
:10134000BC8BF8016085718580E090E00E94E40F1D
:1013500020E030E040EC53E40E94530EDC01CB016E
:10136000B0588D8B9E8BAF8BB88FD8011E966D9128
:101370007C911F9780E090E00E94E40F20E030E035
:1013800040EC53E40E94530EDC01CB01B058898F2E
:101390009A8FAB8FBC8FF8016489758980E090E0EB
:1013A0000E94E40F20E030E040EC53E40E94530E32
:1013B000DC01CB01B0588D8F9E8FAF8FB8A39E01FB
:1013C0002F5F3F4F49015E0131E1A30EB11C1501B2
:1013D0007501840125961CAE1DAE1EAE1FAE25976D
:1013E000412C512C3201D8012D913D914D915D91AF
:1013F0008D01C301B2010E94540E2B013C01F70183
:1014000021913191419151917F0125966CAD7DAD36
:101410008EAD9FAD25970E94540E25966CAF7DAF83
:101420008EAF9FAF259702151305E9F620E030E057
:1014300040E85EE3C301B2010E9409116A966CAFF5
:101440007DAF8EAF9FAF6A9720E030E040E85EE36B
:1014500025966CAD7DAD8EAD9FAD25970E9409118F
:101460006E966CAF7DAF8EAF9FAF6E9735018401E6
:1014700025961CAE1DAE1EAE1FAE2597D8016D91F0
:101480007D918D919D918D016A962CAD3DAD4EADB6
:101490005FAD6A970E94530E6B017C01F30161916D
:1014A0007191819191913F016E962CAD3DAD4EAD04
:1014B0005FAD6E970E94530E9B01AC010E94091113
:1014C00029966CAF7DAF8EAF9FAF2997A70196018C
:1014D000C701B6010E9409119B01AC0129966CADB0
:1014E0007DAD8EAD9FAD29970E94540E9B01AC013E
:1014F00025966CAD7DAD8EAD9FAD25970E94540EA7
:1015000025966CAF7DAF8EAF9FAF25970215130563
:1015100009F0B4CF20E030E040E85EE30E9409111A
:1015200020E030E040E05FE30E947611E62EF72EE7
:10153000082F192F2E01F1E24F0E511C9E012F5C36
:101540003F4FA2963FAF2EAFA29769013201D4015F
:101550006D917D918D919D914D016A962CAD3DAD22
:101560004EAD5FAD6A970E94530E2E2D3F2D402F3A
:10157000512F0E943C0FF3016193719381939193DA
:101580003F01D5016D917D918D919D915D016E968B
:101590002CAD3DAD4EAD5FAD6E970E94530E2E2D1E
:1015A0003F2D402F512F0E943C0FF6016193719304
:1015B000819391936F018214930449F627961FAE8D
:1015C0001EAE279721E030E0A4963FAF2EAFA49740
:1015D00080E090E02A961FAE2A972E961FAE2E9797
:1015E000612C712C1201AC014F5F5F4FA0965FAF71
:1015F0004EAFA097443051050CF076C2D1012D9129
:101600003D914D915D914D0162962CAF3DAF4EAF36
:101610005FAF6297A296AEACBFACA297D5012D91F9
:101620003D914D915D915D0166962CAF3DAF4EAF02
:101630005FAF6697A0964EAC5FACA097A5968FAFB4
:10164000A597A6969FAFA697F4012191319141915C
:1016500051914F0162966CAD7DAD8EAD9FAD62979D
:101660000E94530E6B017C01D5012D913D914D914E
:101670005D915D0166966CAD7DAD8EAD9FAD66975B
:101680000E94530E9B01AC010E94091125966CAF7C
:101690007DAF8EAF9FAF2597A7019601C701B60119
:1016A0000E9409119B01AC0125966CAD7DAD8EADFC
:1016B0009FAD25970E94540E20E030E040E05FE3AC
:1016C0000E947611E62EF72E082F192F2A962FAD9D
:1016D0002A972E963FAD2E97462D572D0E94FC102F
:1016E0001816C4F4A4965FAE4EAEA497A596BFADEF
:1016F000A5972696BFAF2697A696EFADA6972796F5
:10170000EFAF27972A96EFAE2A972E96FFAE2E9729
:10171000602E712EFFEF4F1A5F0A24E0421651042B
:1017200009F092CF34E0230E311CA2964EAD5FAD8E
:10173000A2974C5F5F4FA2965FAF4EAFA297A09665
:101740008EAD9FADA0978330910509F04CCF2796C1
:101750002EAC3FAC2797A4966EAC7FACA49700E06C
:1017600010E02016310609F4DAC06016710609F49B
:10177000D6C0000F111F000F111F81E090E08C0FE9
:101780009D1F080F191FD80190962D913D914D91E5
:101790005C91939725962CAF3DAF4EAF5FAF2597E9
:1017A0007101EE0CFF1CEE0CFF1CE80EF91EF70198
:1017B00060A171A182A193A10E94530E2D966CAFDE
:1017C0007DAF8EAF9FAF2D97D801D0968D909D9015
:1017D000AD90BC90D397A5019401F70160A971A9C0
:1017E00082A993A90E94530E6B017C012D962CAD0A
:1017F0003DAD4EAD5FAD2D97CA01B9010E940911F3
:101800002D966CAF7DAF8EAF9FAF2D97A701960140
:10181000C701B6010E9409119B01AC012D966CAD68
:101820007DAD8EAD9FAD2D970E94540E20E030E02F
:1018300040E05FE30E9476112D966CAF7DAF8EAFD6
:101840009FAF2D978301000F111F000F111F21E083
:1018500030E02C0F3D1F020F131F25962CAD3DAD20
:101860004EAD5FAD2597D80190966D917D918D918C
:101870009C9193970E94530E25966CAF7DAF8EAFCF
:101880009FAF2597A5019401F80160A971A982A9CC
:1018900093A90E94530E6B017C0125962CAD3DADA2
:1018A0004EAD5FAD2597CA01B9010E9409114B01E8
:1018B0005C01A7019601C701B6010E9409119B01B5
:1018C000AC01C501B4010E94540E20E030E040E0BC
:1018D0005FE30E9476119B01AC012D966CAD7DAD4E
:1018E0008EAD9FAD2D970E94FC1018163CF5261466
:1018F0003704E1F0A3969FADA397A4968FADA4976C
:1019000027962EAD3FAD2797A4963FAF2EAFA49755
:1019100026969FAF269727968FAF27970FC00F5F0A
:101920001F4F0430110509F01CCF08C0A4964EAD1E
:101930005FADA49727965FAF4EAF279727960EAD62
:101940001FAD2797000F111F000F111F81E090E0BE
:101950008C0F9D1F080F191FA496EEACFFACA49727
:10196000EE0CFF1CEE0CFF1CE80EF91ED701909642
:101970002D913D914D915C919397F80160A171A1DA
:1019800082A193A10E94530E4B015C01D701D09616
:101990002D913D914D915C91D397F80160A971A96A
:1019A00082A993A90E94530EA50194010E94D30E0F
:1019B0002B013C019B01AC016BED7FE089EC90E4D5
:1019C0000E94530E4B015C010E94C6116B017C0109
:1019D000C501B4010E94370F4B015C019B01AC01B2
:1019E0006A966CAD7DAD8EAD9FAD6A970E94091170
:1019F00025966CAF7DAF8EAF9FAF2597A70196015F
:101A00006E966CAD7DAD8EAD9FAD6E970E94091147
:101A10009B01AC0125966CAD7DAD8EAD9FAD25973C
:101A20000E94530E9B01AC0160E070E088EC91E4F1
:101A30000E94530EA896AEADBFADA89711966D93B8
:101A40007D938D939C931497A50194016E966CAD34
:101A50007DAD8EAD9FAD6E970E9409114B015C016B
:101A6000A70196016A966CAD7DAD8EAD9FAD6A976C
:101A70000E9409119B01AC01C501B4010E94540EE2
:101A80009B01AC0160E070E080E89FE30E94530E90
:101A9000A896EEADFFADA897658376838783908780
:101AA000D301C201B05881879287A387B4874F01C1
:101AB000A496AEACBFACA4972796CEACDFAC27976C
:101AC0006E96ECACFDAC0EAD1FAD6E976A962CAD6C
:101AD0003DAD4EAD5FAD6A97BE016F5E7F4FCE01EB
:101AE00001960E94F00712C0F4E02F0E311CA2965E
:101AF0002EAD3FADA2972C5F3F4FA2963FAF2EAFCA
:101B0000A297A0968EAD9FADA0976DCDC959DF4F1E
:101B10000FB6F894DEBF0FBECDBFDF91CF911F91FE
:101B20000F91FF90EF90DF90CF90BF90AF909F907C
:101B30008F907F906F905F904F903F902F9008957F
:101B4000EF92FF920F931F93CF93DF93CDB7DEB742
:101B500068970FB6F894DEBF0FBECDBF7C01CE01F3
:101B600001960E945D07BE016F5F7F4FC7010E9413
:101B7000250900E010E82DE933E440E050E06CE096
:101B800072E4C7010E94B002882329F080E090E04F
:101B90000E945C0205C064E670E081E00E943802A9
:101BA000F701258136814781508560E070E88DE935
:101BB00093E40E94530E0E94AE0F9B01772324F4FE
:101BC00022273327261B370B20313105BCF4F701C0
:101BD000218132814381548160E070E08CE092E4A5
:101BE0000E94530E0E94AE0F9B01772324F42227FC
:101BF0003327261B370B2F31310534F00E94330277
:101C00006E9A769881E001C080E068960FB6F894ED
:101C1000DEBF0FBECDBFDF91CF911F910F91FF901F
:101C2000EF9008951F920F920FB60F9211242F93E9
:101C30003F934F935F936F937F938F939F93AF9354
:101C4000BF93EF93FF936AE08EE091E00E94190347
:101C5000811104C084EA80930E0112C06A9A7298BE
:101C600080910E01843A61F018F4813A29F00AC09B
:101C7000865A823038F404C081E080930C0102C09F
:101C800010920C01FF91EF91BF91AF919F918F91B5
:101C90007F916F915F914F913F912F910F900FBE68
:101CA0000F901F9018955058BB27AA270E946B0EC3
:101CB0000C94AE100E94751038F00E947C1020F039
:101CC00039F49F3F19F426F40C944B100EF4E09570
:101CD000E7FB0C944510E92F0E94D31058F3BA1774
:101CE000620773078407950720F079F4A6F50C9432
:101CF000F5100EF4E0950B2EBA2FA02D0B01B901B3
:101D000090010C01CA01A0011124FF27591B99F071
:101D1000593F50F4503E68F11A16F040A22F232F7D
:101D2000342F4427585FF3CF469537952795A795CD
:101D3000F0405395C9F77EF41F16BA0B620B730B74
:101D4000840BBAF09150A1F0FF0FBB1F661F771FE5
:101D5000881FC2F70EC0BA0F621F731F841F48F49A
:101D6000879577956795B795F7959E3F08F0B0CF23
:101D70009395880F08F09927EE0F9795879508950A
:101D80000E94751060F080E891E009F49EEF0E94D7
:101D90007C1028F040E851E071F45EEF0CC00C9428
:101DA0004B100C94F510E92FE0780E94D31040F30B
:101DB000092E052AB1F3261737074807590738F0C7
:101DC0000E2E07F8E02569F0E025E0640AC0EF6315
:101DD00007F8009407FADB01B9019D01DC01CA0193
:101DE000AD01EF930E94530F0E94AE100E94030FAB
:101DF0005F91552339F02BED3FE049E450FD49EC6C
:101E00000C94540E0895DF93DD27B92FBF7740E877
:101E10005FE31616170648075B0718F4D92F0E94D0
:101E200001119F938F937F936F930E94CE11ECEAE1
:101E3000F0E00E944E100E94AE102F913F914F9102
:101E40005F910E941C11DD2351F09058A2EA2AED07
:101E50003FE049EC5FE3D0785D270E946B0EDF9195
:101E60000C94AE100E94211008F481E008950E94A5
:101E70008510E3950C94BF100E94500F0C94AE1087
:101E80000E947C1058F00E94751040F029F45F3FCA
:101E900029F00C94451051110C94F6100C944B1031
:101EA0000E94D31068F39923B1F3552391F3951B46
:101EB000550BBB27AA2762177307840738F09F5F6B
:101EC0005F4F220F331F441FAA1FA9F335D00E2ED8
:101ED0003AF0E0E832D091505040E695001CCAF745
:101EE0002BD0FE2F29D0660F771F881FBB1F261708
:101EF00037074807AB07B0E809F0BB0B802DBF01DF
:101F0000FF2793585F4F3AF09E3F510578F00C94AD
:101F100045100C94F6105F3FE4F3983ED4F3869599
:101F200077956795B795F7959F5FC9F7880F911DCE
:101F30009695879597F90895E1E0660F771F881FBA
:101F4000BB1F621773078407BA0720F0621B730B6D
:101F5000840BBA0BEE1F88F7E09508950E94B50F29
:101F60006894B1110C94F61008950E94DB1088F06B
:101F70009F5798F0B92F9927B751B0F0E1F0660F4D
:101F8000771F881F991F1AF0BA95C9F714C0B1308E
:101F900091F00E94F510B1E008950C94F510672FB0
:101FA000782F8827B85F39F0B93FCCF386957795BD
:101FB0006795B395D9F73EF49095809570956195A6
:101FC0007F4F8F4F9F4F0895E89409C097FB3EF4D1
:101FD00090958095709561957F4F8F4F9F4F992376
:101FE000A9F0F92F96E9BB279395F69587957795F4
:101FF0006795B795F111F8CFFAF4BB0F11F460FFB4
:102000001BC06F5F7F4F8F4F9F4F16C0882311F00B
:1020100096E911C0772321F09EE8872F762F05C01F
:10202000662371F096E8862F70E060E02AF09A95BA
:10203000660F771F881FDAF7880F9695879597F9AF
:102040000895990F0008550FAA0BE0E8FEEF161649
:102050001706E807F907C0F012161306E407F5079C
:1020600098F0621B730B840B950B39F40A2661F010
:10207000232B242B252B21F408950A2609F4A140B3
:10208000A6958FEF811D811D089597F99F6780E8C0
:1020900070E060E008959FEF80EC0895DF93CF93A8
:1020A0001F930F93FF92EF92DF927B018C01689454
:1020B00006C0DA2EEF010E941C11FE01E894A591E2
:1020C0002591359145915591A6F3EF010E946B0E34
:1020D000FE019701A801DA9469F7DF90EF90FF9075
:1020E0000F911F91CF91DF91089500240A94161645
:1020F000170618060906089500240A9412161306F6
:102100001406050608950C944B100E94DB10D8F3BA
:10211000E894E0E0BB279F57F0F02AED3FE049EC60
:1021200006C0EE0FBB0F661F771F881F28F0B23A5C
:1021300062077307840728F0B25A620B730B840B93
:10214000E3959A9572F7803830F49A95BB0F661F25
:10215000771F881FD2F790480C940E12092E039413
:10216000000C11F4882352F0BB0F40F4BF2B11F484
:1021700060FF04C06F5F7F4F8F4F9F4F0895EF93B5
:10218000E0FF07C0A2EA2AED3FE049EC5FEB0E94C6
:102190006B0E0E94AE100F90039401FC9058E9ED75
:1021A000F0E00C941A1257FD9058440F551F59F047
:1021B0005F3F71F04795880F97FB991F61F09F3F34
:1021C00079F087950895121613061406551FF2CF5D
:1021D0004695F1DF08C0161617061806991FF1CFAD
:1021E00086957105610508940895E894BB276627D4
:1021F0007727CB0197F908950E94211008F48FEFFB
:1022000008959B01AC0160E070E080E89FE30C94CE
:102210003C0F0E941C110C94AE100E94751038F0F7
:102220000E947C1020F0952311F00C9445100C9422
:102230004B1011240C94F6100E94D31070F3959F4C
:10224000C1F3950F50E0551F629FF001729FBB27AD
:10225000F00DB11D639FAA27F00DB11DAA1F649F49
:102260006627B00DA11D661F829F2227B00DA11DFC
:10227000621F739FB00DA11D621F839FA00D611D82
:10228000221F749F3327A00D611D231F849F600DA3
:10229000211D822F762F6A2F11249F5750409AF0CC
:1022A000F1F088234AF0EE0FFF1FBB1F661F771F58
:1022B000881F91505040A9F79E3F510580F00C9423
:1022C00045100C94F6105F3FE4F3983ED4F38695E6
:1022D00077956795B795F795E7959F5FC1F7FE2BC3
:1022E000880F911D9695879597F90895FA01EE0F3D
:1022F000FF1F309621053105A1F16115710561F4CB
:102300008038BFE39B0749F168949038810561F0FC
:102310008038BFEF9B0741F099234AF5FF3FE10565
:102320003105210519F1E8940894E795D901AA230C
:1023300029F4AB2FBE2FF85FD0F310C0FF5F70F40D
:10234000A695E0F7F73950F019F0FF3A38F49F7787
:102350009F930DD00F9007FC9058089546F00C9471
:102360004B1060E070E080E89FE308954FE79F77AF
:102370005F934F933F932F930E9470122F913F9141
:102380004F915F910E9409110C94DA119F930E9462
:1023900085100F9007FCEE5F0C94BF109B01AC0101
:1023A0000C94091129F416F00C9445100C94F510B6
:1023B0000C944B100E94DB10A8F39638A0F707F896
:1023C0000F92E8942BE33AEA48EB5FE70E941F1173
:1023D0000F920F920F924DB75EB70F920E94B812F4
:1023E000E7EFF0E00E944E104F915F91EF91FF9167
:1023F000E595EE1FFF1F49F0FE57E0684427EE0FFA
:10240000441FFA95E1F74195550B0E9432120F9047
:1024100007FE0C94011108959F3F31F0915020F474
:10242000879577956795B795880F911D96958795B0
:1024300097F908959F938F937F936F93FF93EF93F3
:102440009B01AC010E940911EF91FF910E944E1077
:102450002F913F914F915F910C9409110C9445106D
:102460000C940C120E94DB10D8F39923C9F3940F3B
:10247000511DA3F39150504094F059F0882332F04D
:10248000660F771F881F91505040C1F79E3F51053E
:102490002CF7880F911D9695879597F908955F3FC2
:1024A000ACF0983E9CF0BB27869577956795B795DD
:1024B00008F4B1609395C1F7BB0F58F711F460FFB2
:1024C000E8CF6F5F7F4F8F4F9F4FE3CF0C94F61095
:1024D00016F00C940C120C944B1068940C9445104C
:1024E0000E94DB10A8F39923C1F3AEF3DF93CF93DF
:1024F0001F930F93FF92C92FDD2788232AF021977E
:10250000660F771F881FDAF720E030E040E85FEBC6
:102510009FE3883920F0803E38F021968F770E9423
:10252000540EEFE1F1E004C00E94540EECE4F1E03F
:102530000E944E108B01BE01EC01FB2E6F577109FA
:102540007595771F880B990B0E94E60F28E132E7FB
:1025500041E35FE30E941C11AF2D9801AE01FF9093
:102560000F911F91CF91DF910E946B0E0C94AE10D2
:10257000FA01DC01AA0FBB1F9B01AC01BF5728F475
:10258000222733274427507820C0B75190F4AB2F2F
:102590000024469537952795011CA395D2F300207A
:1025A00071F0220F331F441FB395DAF30ED00C9451
:1025B000530E61307105A0E88A07B94630F49B01DB
:1025C000AC016627772788279078309621F0208302
:1025D0003183428353830895BB274A3031F49923D2
:1025E00022F4BDE2909581959F4F0C94F812BB2781
:1025F000FB015527AA27880F991FAA1FA41710F0BF
:10260000A41B83955051B9F7A05DAA3308F0A95DCA
:10261000A193009779F7B111B1931192CB010C946A
:102620001113DC01FC01672F71917723E1F73297D9
:1026300004C07C916D9370836291AE17BF07C8F39D
:062640000895F894FFCF9D
:0826460000E1000000000800A3
:00000001FF
