:100000000C9467010C9484010C9484010C943410BA
:100010000C9484010C9484010C9484010C9484014C
:100020000C9484010C9484010C94E8030C94260431
:100030000C9484010C9484010C9484010C9484012C
:100040000C9484010C9484010C9484010C9484011C
:100050000C9484010C9484010C9484010C9484010C
:100060000C9484010C9484010C9484010C948401FC
:100070000C9484010C9484010C9484010C948401EC
:100080000C9484010C9484010C9484010C948401DC
:100090000C9484010C9484010C9484010C948401CC
:1000A0000C9484010C9484010C948401084AD73B7D
:1000B0003BCE016E84BCBFFDC12F3D6C74319ABD37
:1000C00056833DDA3D00C77F11BED9E4BB4C3E915B
:1000D0006BAAAABE000000803F05A84CCDB2D44E4A
:1000E000B93836A9020C50B9918688083CA6AAAA4C
:1000F0002ABE000000803F07634236B79BD8A71A8C
:1001000039685618AEBAAB558C1D3CB7CC5763BD99
:100110006DEDFD753EF6177231BF000000803F089F
:10012000000000BE922449123EABAAAA2ABECDCC42
:10013000CC4C3E00000080BEABAAAAAA3E00000044
:1001400000BF000000803F0000000000084178D39D
:10015000BB4387D1133D190E3CC3BD4282AD2B3E3C
:1001600068EC8276BED98FE1A93E4C80EFFFBE01DC
:10017000C4FF7F3F000000000000000100001102EA
:100180001200020000CE014300030000CA01040176
:10019000030904B6011202030904AE0106030309B0
:1001A00004A40108080334003100300000000603F5
:1001B0004D003200000012034A002E0020004600CD
:1001C000690065006E00650000000403090409026F
:1001D0004300020100C032090400000102020100D4
:1001E0000524001001052401010104240206052450
:1001F0000600010705820310004009040100020AFD
:1002000000000007050302400000070584024000CB
:10021000001201000202000010C0167A0400010161
:100220000203010001C11201803601813620202025
:100230002D2D2D20202052686F3A20002020202DC7
:100240002D2D20202054686574613A20002029005B
:100250002C20002820002020202D2D2D2020204E75
:100260006577206672616D653A20002029002C2098
:10027000002820002020202D2D2D202020547261C8
:100280006E736C6174696F6E3A2000426F74746FA4
:100290006D20496E6465783A2000202020202D2DA5
:1002A0002D2D2D2D2020202000546F7020496E64AC
:1002B00065783A20002020202D2D2D2020200020A0
:1002C00029002C2000282000202D2D2D2000112475
:1002D0001FBECFEFDAE0DEBFCDBF11E0A0E0B1E09E
:1002E000EAE8FAE202C005900D92AA31B107D9F707
:1002F00021E0AAE1B1E001C01D92A439B207E1F703
:100300000E9486010C9443150C940000CF93DF9358
:10031000CDB7DEB7A5970FB6F894DEBF0FBECDBF41
:100320002FEB87E299E0215080409040E1F700C038
:100330000000E1E6F0E080E8808383E080830E94B3
:1003400074030E94E7010E943006811103C06E9A77
:100350007698FDCF61E070E0CE0101960E94380BE7
:1003600081E080931E0101E010E0E12CF12C13C02C
:10037000083211051CF40F5F1F4F0DC0CE010E9601
:100380000E945107BE01625F7F4FCE0101960E941D
:10039000490B0E2D1F2D80911E01882349F30E94C9
:1003A0005009882329F30E9421022FE78AE196E071
:1003B000215080409040E1F700C00000CE0101963E
:1003C0000E94C30F8823A1F26A9A7298D1CF219A12
:1003D000229A239A279A299A2A982B9A2F98E1E809
:1003E000F0E080818B7F8083808182608083808148
:1003F0008E7F808380818F7E8083808188608083F0
:10040000E0E8F0E080818D7F80838081816080835F
:100410008081806880838081806480838081806225
:1004200080838081806180838FEB90E0909389004E
:100430008093880090938B0080938A00269A259A57
:10044000089529982A982B982F980895882389F041
:100450008FEF90E0861B970B909389008093880024
:1004600090938B0080938A00299A2A982B982F9A30
:1004700008958FEF90E0861B970B909389008093EF
:10048000880090938B0080938A0029982A9A2B9A4F
:100490002F98089529982A9A2B982F9A009769F4F3
:1004A00087E390E090938900809388008FE390E049
:1004B00090938B0080938A000895BC01181619064A
:1004C000ECF41092890010928800072E000C880B23
:1004D000990B0E94081220E030E04FE753E40E949D
:1004E0002B1320E030E048E452E40E945E110E94A9
:1004F000D01170938B0060938A0008957195619577
:100500007109072E000C880B990B0E94081220E03D
:1005100030E04FE753E40E942B1320E030E048E442
:1005200052E40E945E110E94D01170938900609382
:10053000880010928B0010928A0008958F929F92EB
:10054000AF92BF92CF92DF92EF92FF920F931F93E1
:10055000CF93DF93EC01480159019A01AB01698106
:100560007A818B819C810E9475106B017C01A501B1
:1005700094016D817E818F8198850E9475109058BD
:10058000A70196010E94F5109B01AC0160ED7FE090
:1005900089E490E40E9475104B015C01C984DA84FF
:1005A000EB84FC842EE23AEF4EE85DE30E94751086
:1005B000A70196010E945411882394F42EE23AEF89
:1005C0004EE85DE3C501B4010E947610C1E0A701C9
:1005D00096010E941E1318160CF0C0E08C2F01C06B
:1005E00080E08170DF91CF911F910F91FF90EF908C
:1005F000DF90CF90BF90AF909F908F900895589AC2
:10060000599A5A9A8CE08093B800E9E6F0E080812C
:100610008062808380818F7E8083EA9A78940895B7
:10062000CF93DF939C0184EA8093BC00ECEBF0E075
:1006300090819923ECF781E58093BB0084E8809357
:10064000BC00ECEBF0E090819923ECF78091B900CD
:10065000887F883429F484E98093BC0080E041C01D
:1006600084EC8093BC00ECEBF0E090819923ECF7F4
:100670004091BB00461309C0842F90E001971816E3
:10068000190644F040E050E01AC084E98093BC00B1
:1006900080E027C0D90150E041505109B901640FF1
:1006A000751FECEBF0E084ECCBEBD0E08083908125
:1006B0009923ECF798819D93A617B707B9F784E8BB
:1006C0008093BC00ECEBF0E090819923ECF78091F3
:1006D000BB00F901E40FF51F808384E98093BC001F
:1006E00081E0DF91CF91089581E08093D70080EA87
:1006F0008093D80082E189BD09B400FEFDCF80E976
:100700008093D8001092E00010921D0110921A01FF
:100710008CE08093E20078940895CF93DF939091DA
:100720001D01992309F44CC09FB7F89424E020934D
:10073000E90020911B01222349F02091E80025FDCA
:1007400003C09FBF8FEF41C010921B013091E400A6
:10075000375E2091E80025FD24C09FBF9091E40002
:10076000931781F090911D01992361F1A9EEB0E0FA
:1007700044E0E8EEF0E0C4EED0E00DC09FBF988109
:10078000931305C081E080931B018FEF1EC09091F1
:100790001D019923C9F09FB7F8944C93208125FF40
:1007A000EDCF8093F1008091E80085FD03C08AE3DE
:1007B0008093E80085E080931C019FBF80E005C026
:1007C0008FEF03C08FEF01C08FEFDF91CF910895BE
:1007D0001F920F920FB60F9211248F939F93EF9356
:1007E000FF93E1EEF0E08081108283FF11C0109250
:1007F000E90091E09093EB001092EC0092E190936D
:10080000ED0098E09093F00010921D0110921A01F3
:1008100082FF13C080911D01882379F080911C0113
:10082000882359F0815080931C01811106C084E017
:100830008093E9008AE38093E800FF91EF919F9114
:100840008F910F900FBE0F901F9018951F920F92CF
:100850000FB60F9211240F931F932F933F934F9333
:100860005F936F937F938F939F93AF93BF93CF9338
:10087000DF93EF93FF931092E9008091E80083FFEC
:100880004CC1E1EFF0E0608180812081908130E017
:10089000392B4081908150E0592B7081C08192EFBB
:1008A0009093E800863009F058C004C081E280933C
:1008B000EB003AC166E08AE791E0FC01A591B491B2
:1008C0002A173B0711F0079623C0FC013296A59129
:1008D000B4914A175B0711F007961AC0FC013496D1
:1008E00045915491FC0136962491872F90E09C2BE2
:1008F0008F3F910519F010F08FEF90E0821708F408
:10090000282FA8EEB0E070E16EEFC1EFD0E003C099
:10091000615099F6CBCF8C91982F9570E1F382FDC1
:1009200003C1322F213108F0372F332309F4F9C0E6
:10093000FA01832F94919883815031968111FACFD7
:100940008FEF830F90E00196480F591F231B6C9384
:100950002111E1CF3031F9F2E7C0853061F48EEF3B
:100960008093E800E8EEF0E0808180FFFDCF206812
:100970002093E300D9C0893009F035C06111CDC0A2
:1009800020931D0110921A0110921C018EEF80938A
:10099000E80081E023E232E0C9EED0E0ABEEB0E067
:1009A0000CEE10E06DEE70E08883A9014F5F5F4FA1
:1009B000F90194919C93992361F0FA014491F80113
:1009C0004083F901329694912D5F3F4FFB01908354
:1009D00001C09A018F5F853039F7EAEEF0E08EE1D1
:1009E00080831082A1C0883081F4603809F095C0FE
:1009F000E8EEF0E0808180FFFDCF80911D018093C3
:100A0000F1008EEF8093E8008FC08132B9F4613A33
:100A100009F083C0E8EEF0E0808180FFFDCFE0E0E8
:100A2000F1E027E031E0A1EFB0E081918C93E21793
:100A3000F307D9F78EEF8093E80076C08032D1F4C7
:100A4000613209F06AC0E8EEF0E0808182FFFDCFFC
:100A5000E0E0F1E027E031E0A1EFB0E08C9181939C
:100A6000E217F307D9F7E8EEF0E08BEF80838EEF23
:100A700080835AC0823271F4613209F04EC02093F3
:100A80001A01E8EEF0E0808180FFFDCF8EEF8093C9
:100A9000E8004AC081111AC0E8EEF0E0808180FFD2
:100AA000FDCF623851F4E9EEF0E040838091EB0035
:100AB00085FB882780F9108201C080E0E1EFF0E03B
:100AC000808310828EEF8093E8002EC0982F9D7F48
:100AD000913019F5623009F5232BF9F44F779FEF28
:100AE000940F9430D0F49EEF9093E8004093E90087
:100AF000833021F481E28093EB0016C089E180937A
:100B0000EB0081E090E002C0880F991F4A95E2F760
:100B1000EAEEF0E08083108207C081E28093EB0070
:100B200003C06C932111F7CEFF91EF91DF91CF912C
:100B3000BF91AF919F918F917F916F915F914F91F5
:100B40003F912F911F910F910F900FBE0F901F900B
:100B500018950F931F93CF938C010F5F1F4FFC01CC
:100B6000C491CC2371F0CA3019F48DE00E948D033A
:100B70008C2F0E948D03F801C4910F5F1F4FC1118C
:100B8000F2CFCF911F910F910895EF92FF920F93A3
:100B90001F93CF93DF93CDB7DEB727970FB6F894A7
:100BA000DEBF0FBECDBF8E010F5F1F4F27E0F801E4
:100BB00011922A95E9F74AE0B8010E940E157E01CC
:100BC000F8E0EF0EF11CF80181918F0181110E9474
:100BD0008D030E151F05B9F727960FB6F894DEBFE3
:100BE0000FBECDBFDF91CF911F910F91FF90EF907E
:100BF000089520E030E0ECEBF0E08081882334F0D1
:100C00002F5F3F4F293E83E03807B9F781E0283E48
:100C1000334009F480E008958093BB0084E880931A
:100C2000BC000E94F905882319F08091B900887FE3
:100C30000895CF93C82F94EA9093BC000E94F905C1
:100C4000882361F08C2F880F0E940C06803229F4D3
:100C500084E98093BC0080E001C081E0CF910895D9
:100C60000E94FF0288E50E941906882309F4CDC07E
:100C700080E30E940C06882309F4C9C081E00E9429
:100C80000C06882309F4C5C084E98093BC0083EC7A
:100C900099E00197F1F700C0000088E50E9419066D
:100CA000882309F4B8C080E00E940C06882309F468
:100CB000B4C080E00E940C06882309F4B0C080E034
:100CC0000E940C06882309F4ACC080E00E940C0648
:100CD000882309F4A8C080E00E940C06882309F448
:100CE000A4C080E00E940C06882309F4A0C080E024
:100CF0000E940C06882309F49CC080E90E940C061F
:100D0000882309F498C084E98093BC0083EC99E0BF
:100D10000197F1F700C0000088E50E9419068823BA
:100D200009F48BC087E00E940C06882309F487C071
:100D300080E00E940C06882309F483C081E40E94AD
:100D40000C06882309F47FC084E98093BC0083ECFF
:100D500099E00197F1F700C0000088E50E941906AC
:100D6000882309F472C08AE10E940C06882309F4E2
:100D70006EC080E40E940C06882309F46AC080E0FB
:100D80000E940C06882309F466C084E98093BC00A5
:100D900083EC99E00197F1F700C0000088E50E941C
:100DA0001906882309F459C083E30E940C0688239E
:100DB00009F455C083E00E940C06882309F451C051
:100DC00084E98093BC0083EC99E00197F1F700C0BF
:100DD000000088E50E941906882309F444C080E3D6
:100DE0000E940C06882309F440C088E00E940C068B
:100DF0008823E9F184E98093BC0083EC99E00197B2
:100E0000F1F700C0000081E0089580E0089580E0DF
:100E1000089580E0089580E0089580E0089580E0DE
:100E2000089580E0089580E0089580E0089580E0CE
:100E3000089580E0089580E0089580E0089580E0BE
:100E4000089580E0089580E0089580E0089580E0AE
:100E5000089580E0089580E0089580E0089580E09E
:100E6000089580E0089580E0089580E0089580E08E
:100E70000895CF93C82F84EA8093BC000E94F9059F
:100E8000882369F08C2F880F8F5F0E940C068834AE
:100E900029F484E98093BC0080E001C081E0CF9117
:100EA00008950F931F93CF93DF93CDB7DEB760976D
:100EB0000FB6F894DEBF0FBECDBF8C01FE01319698
:100EC00080E1DF011D928A95E9F788E50E94190605
:100ED000882309F469C086E30E940C06882309F47C
:100EE00065C084E98093BC00B8E0BA95F1F70000D2
:100EF00088E50E943907882309F45AC0BE016F5F54
:100F00007F4FAE01405F5F4FECEBF0E084EC2BEBEA
:100F100030E0808390819923ECF7D9019C91DB012B
:100F20009D93BD01A417B507A1F784E88093BC0089
:100F3000ECEBF0E080818823ECF78091BB00888B9C
:100F400084E98093BC00BE016C5F7F4FF801085EAE
:100F50001F4FDB012C91322F3073CB010297DC0144
:100F60008C9190E0B0E13B9F800D911D1124918305
:100F70008083422F407C50E0440F551F440F551F83
:100F8000CB010197DC018C91480F511D53834283A3
:100F90002F7030E0358324836D5F7F4F3696E017E6
:100FA000F107B9F681E005C080E003C080E001C030
:100FB00080E060960FB6F894DEBF0FBECDBFDF9124
:100FC000CF911F910F910895ECE7F0E080818F772A
:100FD0008083808180648083AAE7B0E08C91846004
:100FE0008C938C918D7F8C938C9181608C93EEE7A8
:100FF000F0E0808181608083808182608083808155
:10100000806180838081806280838081806480832E
:10101000808180688083EDE7F0E08081816080835B
:101020008081826080838081846080838C918062F3
:101030008C93089582309105B0F084309105D9F0F9
:101040008530910591F086309105A9F087309105A2
:1010500061F08830910579F08930910531F08A305E
:101060009105B1F508C080FF06C0ECE7F0E02081F3
:101070002160208305C0ECE7F0E020812E7F2083F3
:1010800081FF06C0ECE7F0E020812260208305C0EC
:10109000ECE7F0E020812D7F208382FF06C0ECE7A3
:1010A000F0E020812460208305C0ECE7F0E020819F
:1010B0002B7F208383FF06C0EBE7F0E08081806216
:1010C00080830895EBE7F0E080818F7D8083089531
:1010D0006A9A72980895EAE7F0E0808180688083D8
:1010E000808180648083808184FFFDCF209178009F
:1010F00030917900EAE7F0E090819F7E90839081C3
:101100009F779083C9010895CF92DF92EF92FF926B
:101110000F931F93CF93DF93CDB7DEB762970FB6D0
:10112000F894DEBF0FBECDBF6C018091070188230C
:1011300029F080E885BF85BF1092070189E090E023
:101140000E94E40782E1E8E0F1E0DE0111960190FF
:101150000D928A95E1F7CE0101967C01860192E11C
:10116000C90ED11CF701819191917F010E941A084B
:101170000E946B08F801819391938F0183EF91E0B6
:101180000197F1F700C00000EC15FD0559F76296D4
:101190000FB6F894DEBF0FBECDBFDF91CF911F9188
:1011A0000F91FF90EF90DF90CF900895FC01208584
:1011B0003185220F331F66817781A901460F571FA2
:1011C00022853385C901880F991F280F391F240FE5
:1011D000351F84859585AC01440F551F840F951FDD
:1011E000281B390B86859785880F991F281B390B7B
:1011F00080899189281B390BC90122F488279927F6
:10120000821B930B45972CF03323DCF081E090E0B8
:101210000895828193814097BCF4848195814097A1
:10122000B4F433231CF081E090E002C08FEF9FEF15
:1012300041E050E0232B11F040E050E0841B950B7F
:1012400008958FEF9FEF089580E090E0089580E08B
:1012500090E00895FC018081918122813381280FE3
:10126000391F84819581280F391F81E02F32314049
:101270000CF480E0089599235CF4BC01992324F4D4
:1012800066277727681B790B80E00E942602089565
:101290001816190624F4BC0181E00E942602089564
:1012A000CF93DF93CDB7DEB762970FB6F894DEBF6A
:1012B0000FBECDBFCE0101960E948408CE010196DB
:1012C0000E94D6080E94A309009769F480E090E08C
:1012D0000E944A02CE0101960E942A09882369F0E1
:1012E0006E9A76980AC026E9AC01249FC001259F1A
:1012F000900D11240E943B0980E062960FB6F8948D
:10130000DEBF0FBECDBFDF91CF910895ECE7F1E0D6
:101310008AE891E011921192E817F907D9F781E074
:1013200080937B010895E8E8F1E04CE751E03291C9
:10133000229133832283E417F507C9F790937D0147
:1013400080937C010895AF92BF92CF92DF92EF928B
:10135000FF920F931F93CF93DF93EC0180917B015A
:10136000811102C00E948609CE010E949309ECE718
:10137000F1E00AE811E0E12CF12CC0E0D0E0A0E0BF
:10138000B0E0AA24AA94BB24BA9471E060E0C12C16
:10139000D12C4191519155231CF0872F962F02C0DB
:1013A0008A2D9B2D272F362F452B11F02C2D3D2DCF
:1013B000821B930B8F3F2FEF920719F0892B19F0A7
:1013C00006C0119605C08FEFE81AF80A01C02196F1
:1013D000E017F107F1F6CA17DB071CF4EA16FB0663
:1013E00054F0AC17BD0754F481E090E0EC16FD0614
:1013F0003CF080E005C08FEF9FEF02C080E090E0FE
:10140000DF91CF911F910F91FF90EF90DF90CF90E0
:10141000BF90AF9008954F925F926F927F928F929C
:101420009F92AF92BF92CF92DF92EF92FF920F9373
:101430001F93CF93DF93CDB7DEB728970FB6F894FD
:10144000DEBF0FBECDBF3C01562E472E29833A8307
:101450004B835C83ED82FE820F83188788EC92E0D9
:101460000E94A9058301E52CF42C80E1680E711C13
:1014700085EC92E00E94A905F8016191719181913A
:1014800091918F010E94D011CB010E94C50582EC81
:1014900092E00E94A905F70161917191819191916A
:1014A0007F010E94D011CB010E94C5058FEB92E015
:1014B0000E94A90585EB92E00E94A9050615170573
:1014C000B9F68DE00E948D0389EA92E00E94A90599
:1014D000C6010E94C5058AE992E00E94A9058BE831
:1014E00092E00E94A905C5010E94C5058DE00E94F9
:1014F0008D0384E792E00E94A90581E792E00E94B3
:10150000A90569817A818B819C810E94D011CB01D0
:101510000E94C5058EE692E00E94A9056D817E813C
:101520008F8198850E94D011CB010E94C5058BE662
:1015300092E00E94A90586E592E00E94A90583E554
:1015400092E00E94A905F4016181728183819481F6
:101550000E94D011CB010E94C50580E592E00E9457
:10156000A905F40165817681878190850E94D0115B
:10157000CB010E94C5058DE492E00E94A9058CE391
:1015800092E00E94A90520E030E044E353E4F40136
:1015900061857285838594850E942B130E94D011EA
:1015A000072E000C880B990B0E9408122BED3FE0D0
:1015B00049E450E40E945E110E94D011CB010E94C8
:1015C000C5058DE292E00E94A90520E030E043E2EB
:1015D00053E4F40161817281838194810E947510CA
:1015E0006B017C0120E030E84FE853E4F4016581B1
:1015F0007681878190850E9475109058A701960189
:101600000E94F5109B01AC016BED7FE089E490E452
:101610000E94751020E030E044E353E40E942B1355
:101620002BED3FE049E450E40E945E110E94D0118E
:10163000CB010E94C5058DE00E948D038DE00E94C4
:101640008D0328960FB6F894DEBF0FBECDBFDF9195
:10165000CF911F910F91FF90EF90DF90CF90BF90AF
:10166000AF909F908F907F906F905F904F90089574
:10167000FC01118212821382148215821682178253
:1016800010861186128613861486108210921E010F
:1016900008952F923F924F925F926F927F928F9216
:1016A0009F92AF92BF92CF92DF92EF92FF920F93F1
:1016B0001F93CF93DF93CDB7DEB7C756D1090FB6CF
:1016C000F894DEBF0FBECDBFA8969FAF8EAFA89790
:1016D0008B01DB016D917C9180E090E00E9406120D
:1016E00020E030E040E054E40E94751069837A8382
:1016F0008B839C83F8016681778180E090E00E9473
:10170000061220E030E040E054E40E9475106D8342
:101710007E838F839887D8011C966D917C911D974D
:1017200080E090E00E94061220E030E040E054E4C7
:101730000E94751069877A878B879C87F801628978
:10174000738980E090E00E94061220E030E040E0E3
:1017500054E40E9475106D877E878F87988BD8011F
:1017600012966D917C91139780E090E00E94061292
:1017700020E030E040EC53E40E947510DC01CB0126
:10178000B058898B9A8BAB8BBC8BF80160857185C7
:1017900080E090E00E94061220E030E040EC53E44C
:1017A0000E947510DC01CB01B0588D8B9E8BAF8BE6
:1017B000B88FD8011E966D917C911F9780E090E0C4
:1017C0000E94061220E030E040EC53E40E947510C5
:1017D000DC01CB01B058898F9A8FAB8FBC8FF80199
:1017E0006489758980E090E00E94061220E030E074
:1017F00040EC53E40E947510DC01CB01B0588D8F92
:101800009E8FAF8FB8A39E012F5F3F4F49015E01AE
:1018100031E1A30EB11C15017501840125961CAEA2
:101820001DAE1EAE1FAE2597412C512C3201D801A2
:101830002D913D914D915D918D01C301B2010E94A9
:1018400076102B013C01F701219131914191519189
:101850007F0125966CAD7DAD8EAD9FAD25970E9425
:10186000761025966CAF7DAF8EAF9FAF2597021592
:101870001305E9F620E030E040E85EE3C301B20181
:101880000E942B136A966CAF7DAF8EAF9FAF6A97A5
:1018900020E030E040E85EE325966CAD7DAD8EAD96
:1018A0009FAD25970E942B136E966CAF7DAF8EAFC8
:1018B0009FAF6E973501840125961CAE1DAE1EAEFE
:1018C0001FAE2597D8016D917D918D919D918D01D0
:1018D0006A962CAD3DAD4EAD5FAD6A970E94751016
:1018E0006B017C01F30161917191819191913F01B3
:1018F0006E962CAD3DAD4EAD5FAD6E970E947510EE
:101900009B01AC010E942B1329966CAF7DAF8EAF6B
:101910009FAF2997A7019601C701B6010E942B131B
:101920009B01AC0129966CAD7DAD8EAD9FAD299725
:101930000E9476109B01AC0125966CAD7DAD8EADFD
:101940009FAD25970E94761025966CAF7DAF8EAF28
:101950009FAF25970215130509F0B4CF20E030E0C2
:1019600040E85EE30E942B1320E030E040E05FE3BC
:101970000E949813E62EF72E082F192F2E01F1E260
:101980004F0E511C9E012F5C3F4FA2963FAF2EAFD2
:10199000A29769013201D4016D917D918D919D9144
:1019A0004D016A962CAD3DAD4EAD5FAD6A970E947C
:1019B00075102E2D3F2D402F512F0E945E11F301E7
:1019C00061937193819391933F01D5016D917D91C5
:1019D0008D919D915D016E962CAD3DAD4EAD5FAD8F
:1019E0006E970E9475102E2D3F2D402F512F0E9473
:1019F0005E11F60161937193819391936F0182144B
:101A0000930449F627961FAE1EAE279721E030E0DB
:101A1000A4963FAF2EAFA49780E090E02A961FAE29
:101A20002A972E961FAE2E97612C712C1201AC01B5
:101A30004F5F5F4FA0965FAF4EAFA0974430510508
:101A40000CF075C2D1012D913D914D915D914D01EB
:101A500062962CAF3DAF4EAF5FAF6297A296AEAC31
:101A6000BFACA297D5012D913D914D915D915D0146
:101A700066962CAF3DAF4EAF5FAF6697A0964EAC6B
:101A80005FACA097A5968FAFA597A6969FAFA69798
:101A9000F40121913191419151914F0162966CADC8
:101AA0007DAD8EAD9FAD62970E9475106B017C017C
:101AB000D5012D913D914D915D915D0166966CAD85
:101AC0007DAD8EAD9FAD66970E9475109B01AC01F8
:101AD0000E942B1325966CAF7DAF8EAF9FAF2597DD
:101AE000A7019601C701B6010E942B139B01AC010F
:101AF00025966CAD7DAD8EAD9FAD25970E9476107D
:101B000020E030E040E05FE30E949813E62EF72EDD
:101B1000082F192F2A962FAD2A972E963FAD2E9774
:101B2000462D572D0E941E131816C4F4A4965FAEBE
:101B30004EAEA497A596BFADA5972696BFAF2697A4
:101B4000A696EFADA6972796EFAF27972A96EFAE0A
:101B50002A972E96FFAE2E97602E712EFFEF4F1A0A
:101B60005F0A24E04216510409F092CF34E0230EBC
:101B7000311CA2964EAD5FADA2974C5F5F4FA2960F
:101B80005FAF4EAFA297A0968EAD9FADA09783306A
:101B9000910509F04CCF27962EAC3FAC2797A49621
:101BA0006EAC7FACA49700E010E02016310609F47B
:101BB000DAC06016710609F4D6C0000F111F000FBD
:101BC000111F81E090E08C0F9D1F080F191FD80195
:101BD00090962D913D914D915C91939725962CAFC8
:101BE0003DAF4EAF5FAF25977101EE0CFF1CEE0CC1
:101BF000FF1CE80EF91EF70160A171A182A193A15B
:101C00000E9475102D966CAF7DAF8EAF9FAF2D9754
:101C1000D801D0968D909D90AD90BC90D397A501A2
:101C20009401F70160A971A982A993A90E94751076
:101C30006B017C012D962CAD3DAD4EAD5FAD2D976A
:101C4000CA01B9010E942B132D966CAF7DAF8EAFE8
:101C50009FAF2D97A7019601C701B6010E942B13D4
:101C60009B01AC012D966CAD7DAD8EAD9FAD2D97DA
:101C70000E94761020E030E040E05FE30E9498137D
:101C80002D966CAF7DAF8EAF9FAF2D978301000F68
:101C9000111F000F111F21E030E02C0F3D1F020F1C
:101CA000131F25962CAD3DAD4EAD5FAD2597D801E8
:101CB00090966D917D918D919C9193970E94751056
:101CC00025966CAF7DAF8EAF9FAF2597A501940190
:101CD000F80160A971A982A993A90E9475106B01EE
:101CE0007C0125962CAD3DAD4EAD5FAD2597CA016B
:101CF000B9010E942B134B015C01A7019601C7019A
:101D0000B6010E942B139B01AC01C501B4010E94D6
:101D1000761020E030E040E05FE30E9498139B01E2
:101D2000AC012D966CAD7DAD8EAD9FAD2D970E9413
:101D30001E1318163CF526143704E1F0A3969FAD48
:101D4000A397A4968FADA49727962EAD3FAD279766
:101D5000A4963FAF2EAFA49726969FAF26972796BF
:101D60008FAF27970FC00F5F1F4F0430110509F089
:101D70001CCF08C0A4964EAD5FADA49727965FAF69
:101D80004EAF279727960EAD1FAD2797000F111F57
:101D9000000F111F81E090E08C0F9D1F080F191F8D
:101DA000A496EEACFFACA497EE0CFF1CEE0CFF1C4F
:101DB000E80EF91ED70190962D913D914D915C91C1
:101DC0009397F80160A171A182A193A10E9475105F
:101DD0004B015C01D701D0962D913D914D915C91C5
:101DE000D397F80160A971A982A993A90E947510DF
:101DF000A50194010E94F5102B013C019B01AC014F
:101E00006BED7FE089EC90E40E9475104B015C0162
:101E10000E94E8136B017C01C501B4010E945911B5
:101E20004B015C019B01AC016A966CAD7DAD8EAD42
:101E30009FAD6A970E942B1325966CAF7DAF8EAF36
:101E40009FAF2597A70196016E966CAD7DAD8EADC7
:101E50009FAD6E970E942B139B01AC0125966CAD34
:101E60007DAD8EAD9FAD25970E9475109B01AC0195
:101E700060E070E086E892E40E947510A896AEAD2E
:101E8000BFADA89711966D937D938D939C931497F6
:101E9000A50194016E966CAD7DAD8EAD9FAD6E9734
:101EA0000E942B134B015C01A70196016A966CAD51
:101EB0007DAD8EAD9FAD6A970E942B139B01AC0147
:101EC000C501B4010E947610905820E030E04AE944
:101ED00052E40E947510A896EEADFFADA8976583F9
:101EE000768387839087D301C201B0588187928718
:101EF000A387B4874F01A496AEACBFACA497279636
:101F0000CEACDFAC27976E96ECACFDAC0EAD1FAD42
:101F10006E976A962CAD3DAD4EAD5FAD6A97BE0132
:101F20006F5E7F4FCE0101960E940B0A12C0F4E053
:101F30002F0E311CA2962EAD3FADA2972C5F3F4FC6
:101F4000A2963FAF2EAFA297A0968EAD9FADA09761
:101F50006ECDC959DF4F0FB6F894DEBF0FBECDBFAF
:101F6000DF91CF911F910F91FF90EF90DF90CF9075
:101F7000BF90AF909F908F907F906F905F904F90A9
:101F80003F902F900895EF92FF920F931F93CF935E
:101F9000DF93CDB7DEB768970FB6F894DEBF0FBEFC
:101FA000CDBF7C0166E970E081E00E942602CE018F
:101FB00001960E945107BE016F5F7F4FC7010E94CB
:101FC000490B00E010E82EE933E440E050E068E21D
:101FD00072E4C7010E949E02882321F080E090E015
:101FE0000E944A02F701258136814781508560E0D1
:101FF00070E88EE993E40E9475100E94D0119B0155
:10200000772324F422273327261B370B2031310571
:10201000BCF4F701218132814381548160E070E09A
:1020200088E292E40E9475100E94D0119B017723F0
:1020300024F422273327261B370B2F31310534F0A8
:102040000E9421026E9A769881E001C080E0689635
:102050000FB6F894DEBF0FBECDBFDF91CF911F91B9
:102060000F91FF90EF9008951F920F920FB60F926D
:1020700011242F933F934F935F936F937F938F938D
:102080009F93AF93BF93EF93FF936AE08AE891E049
:102090000E941003811104C084EA80938A0112C057
:1020A0006A9A729880918A01843A61F018F4813AB0
:1020B00029F00AC0865A823038F404C081E0809347
:1020C0001E0102C010921E01FF91EF91BF91AF91CE
:1020D0009F918F917F916F915F914F913F912F9140
:1020E0000F900FBE0F901F9018955058BB27AA272E
:1020F0000E948D100C94D0120E94971238F00E940A
:102100009E1220F039F49F3F19F426F40C946D12BE
:102110000EF4E095E7FB0C946712E92F0E94F5128C
:1021200058F3BA17620773078407950720F079F40C
:10213000A6F50C9417130EF4E0950B2EBA2FA02DD4
:102140000B01B90190010C01CA01A0011124FF2764
:10215000591B99F0593F50F4503E68F11A16F0405F
:10216000A22F232F342F4427585FF3CF469537955E
:102170002795A795F0405395C9F77EF41F16BA0B23
:10218000620B730B840BBAF09150A1F0FF0FBB1FD1
:10219000661F771F881FC2F70EC0BA0F621F731F1A
:1021A000841F48F4879577956795B795F7959E3F77
:1021B00008F0B0CF9395880F08F09927EE0F979508
:1021C000879508950E94971260F080E891E009F4E5
:1021D0009EEF0E949E1228F040E851E071F45EEFFD
:1021E0000CC00C946D120C941713E92FE0780E9428
:1021F000F51240F3092E052AB1F3261737074807D1
:10220000590738F00E2E07F8E02569F0E025E06464
:102210000AC0EF6307F8009407FADB01B9019D01DA
:10222000DC01CA01AD01EF930E9475110E94D0122A
:102230000E9425115F91552339F02BED3FE049E4D1
:1022400050FD49EC0C9476100895DF93DD27B92FEB
:10225000BF7740E85FE31616170648075B0718F4D8
:10226000D92F0E9423139F938F937F936F930E9484
:10227000F013ECEAF0E00E9470120E94D0122F914D
:102280003F914F915F910E943E13DD2351F0905892
:10229000A2EA2AED3FE049EC5FE3D0785D270E9497
:1022A0008D10DF910C94D0120E94431208F481E04B
:1022B00008950E94A712E3950C94E1120E947211F6
:1022C0000C94D0120E949E1258F00E94971240F077
:1022D00029F45F3F29F00C94671251110C941813E4
:1022E0000C946D120E94F51268F39923B1F35523F3
:1022F00091F3951B550BBB27AA2762177307840719
:1023000038F09F5F5F4F220F331F441FAA1FA9F3AE
:1023100035D00E2E3AF0E0E832D091505040E6959C
:10232000001CCAF72BD0FE2F29D0660F771F881FFD
:10233000BB1F261737074807AB07B0E809F0BB0BF0
:10234000802DBF01FF2793585F4F3AF09E3F510504
:1023500078F00C9467120C9418135F3FE4F3983EE6
:10236000D4F3869577956795B795F7959F5FC9F7ED
:10237000880F911D9695879597F90895E1E0660F6E
:10238000771F881FBB1F621773078407BA0720F0E7
:10239000621B730B840BBA0BEE1F88F7E095089550
:1023A0000E94D7116894B1110C94181308950E94DB
:1023B000FD1288F09F5798F0B92F9927B751B0F0C8
:1023C000E1F0660F771F881F991F1AF0BA95C9F7B9
:1023D00014C0B13091F00E941713B1E008950C942D
:1023E0001713672F782F8827B85F39F0B93FCCF3E0
:1023F000869577956795B395D9F73EF49095809536
:10240000709561957F4F8F4F9F4F0895E89409C055
:1024100097FB3EF490958095709561957F4F8F4F17
:102420009F4F9923A9F0F92F96E9BB279395F6952D
:10243000879577956795B795F111F8CFFAF4BB0FAB
:1024400011F460FF1BC06F5F7F4F8F4F9F4F16C00F
:10245000882311F096E911C0772321F09EE8872F99
:10246000762F05C0662371F096E8862F70E060E055
:102470002AF09A95660F771F881FDAF7880F9695CE
:10248000879597F90895990F0008550FAA0BE0E872
:10249000FEEF16161706E807F907C0F01216130626
:1024A000E407F50798F0621B730B840B950B39F466
:1024B0000A2661F0232B242B252B21F408950A26CC
:1024C00009F4A140A6958FEF811D811D089597F90C
:1024D0009F6780E870E060E008959FEF80EC0895CA
:1024E000DF93CF931F930F93FF92EF92DF927B01C5
:1024F0008C01689406C0DA2EEF010E943E13FE01A3
:10250000E894A5912591359145915591A6F3EF0158
:102510000E948D10FE019701A801DA9469F7DF90FF
:10252000EF90FF900F911F91CF91DF9108950024BC
:102530000A941616170618060906089500240A9428
:10254000121613061406050608950C946D120E94C7
:10255000FD12D8F3E894E0E0BB279F57F0F02AED96
:102560003FE049EC06C0EE0FBB0F661F771F881FC8
:1025700028F0B23A62077307840728F0B25A620B58
:10258000730B840BE3959A9572F7803830F49A9523
:10259000BB0F661F771F881FD2F790480C9430142A
:1025A000092E0394000C11F4882352F0BB0F40F461
:1025B000BF2B11F460FF04C06F5F7F4F8F4F9F4FA1
:1025C0000895EF93E0FF07C0A2EA2AED3FE049EC4F
:1025D0005FEB0E948D100E94D0120F90039401FCBB
:1025E0009058E9EDF0E00C943C1457FD9058440FDE
:1025F000551F59F05F3F71F04795880F97FB991F62
:1026000061F09F3F79F0879508951216130614061E
:10261000551FF2CF4695F1DF08C0161617061806AB
:10262000991FF1CF86957105610508940895E89486
:10263000BB2766277727CB0197F908950E9443129D
:1026400008F48FEF08959B01AC0160E070E080E832
:102650009FE30C945E110E943E130C94D0120E94D2
:10266000971238F00E949E1220F0952311F00C94DE
:1026700067120C946D1211240C9418130E94F51219
:1026800070F3959FC1F3950F50E0551F629FF001C5
:10269000729FBB27F00DB11D639FAA27F00DB11DDE
:1026A000AA1F649F6627B00DA11D661F829F222767
:1026B000B00DA11D621F739FB00DA11D621F839FEE
:1026C000A00D611D221F749F3327A00D611D231FC4
:1026D000849F600D211D822F762F6A2F11249F5712
:1026E00050409AF0F1F088234AF0EE0FFF1FBB1F15
:1026F000661F771F881F91505040A9F79E3F5105D4
:1027000080F00C9467120C9418135F3FE4F3983E2A
:10271000D4F3869577956795B795F795E7959F5F7D
:10272000C1F7FE2B880F911D9695879597F908950F
:10273000FA01EE0FFF1F309621053105A1F1611559
:10274000710561F48038BFE39B0749F168949038C4
:10275000810561F08038BFEF9B0741F099234AF56E
:10276000FF3FE1053105210519F1E8940894E7954B
:10277000D901AA2329F4AB2FBE2FF85FD0F310C0E4
:10278000FF5F70F4A695E0F7F73950F019F0FF3AC3
:1027900038F49F779F930DD00F9007FC90580895C1
:1027A00046F00C946D1260E070E080E89FE30895BD
:1027B0004FE79F775F934F933F932F930E9492141D
:1027C0002F913F914F915F910E942B130C94FC131A
:1027D0009F930E94A7120F9007FCEE5F0C94E112EA
:1027E0009B01AC010C942B1329F416F00C94671286
:1027F0000C9417130C946D120E94FD12A8F39638D6
:10280000A0F707F80F92E8942BE33AEA48EB5FE76A
:102810000E9441130F920F920F924DB75EB70F9225
:102820000E94DA14E7EFF0E00E9470124F915F917E
:10283000EF91FF91E595EE1FFF1F49F0FE57E0680D
:102840004427EE0F441FFA95E1F74195550B0E947E
:1028500054140F9007FE0C94231308959F3F31F0FA
:10286000915020F4879577956795B795880F911DBE
:102870009695879597F908959F938F937F936F937C
:10288000FF93EF939B01AC010E942B13EF91FF91FB
:102890000E9470122F913F914F915F910C942B13D6
:1028A0000C9467120C942E140E94FD12D8F39923F5
:1028B000C9F3940F511DA3F39150504094F059F077
:1028C000882332F0660F771F881F91505040C1F760
:1028D0009E3F51052CF7880F911D9695879597F986
:1028E00008955F3FACF0983E9CF0BB2786957795A6
:1028F0006795B79508F4B1609395C1F7BB0F58F78A
:1029000011F460FFE8CF6F5F7F4F8F4F9F4FE3CF92
:102910000C94181316F00C942E140C946D126894E9
:102920000C9467120E94FD12A8F39923C1F3AEF331
:10293000DF93CF931F930F93FF92C92FDD27882337
:102940002AF02197660F771F881FDAF720E030E022
:1029500040E85FEB9FE3883920F0803E38F0219615
:102960008F770E947610EFE1F1E004C00E947610AC
:10297000ECE4F1E00E9470128B01BE01EC01FB2E31
:102980006F5771097595771F880B990B0E94081274
:1029900028E132E741E35FE30E943E13AF2D980147
:1029A000AE01FF900F911F91CF91DF910E948D108A
:1029B0000C94D012FA01DC01AA0FBB1F9B01AC01E1
:1029C000BF5728F4222733274427507820C0B75117
:1029D00090F4AB2F0024469537952795011CA395BD
:1029E000D2F3002071F0220F331F441FB395DAF3A6
:1029F0000ED00C94751061307105A0E88A07B946B5
:102A000030F49B01AC0166277727882790783096B1
:102A100021F020833183428353830895BB274A30BA
:102A200031F4992322F4BDE2909581959F4F0C9447
:102A30001A15BB27FB015527AA27880F991FAA1F24
:102A4000A41710F0A41B83955051B9F7A05DAA33C9
:102A500008F0A95DA193009779F7B111B193119294
:102A6000CB010C943315DC01FC01672F71917723A6
:102A7000E1F7329704C07C916D9370836291AE1739
:0A2A8000BF07C8F30895F894FFCFD4
:102A8A0000E1000000000801080009000A00000037
:0A2A9A00010004000500060007001B
:00000001FF
