:100000000C9407010C9424010C9424010C942401F9
:100010000C9424010C9424010C9424010C942401CC
:100020000C9424010C9424010C9465020C94A302FA
:100030000C9424010C9424010C9424010C942401AC
:100040000C9424010C9424010C9424010C9424019C
:100050000C9424010C9424010C9424010C9424018C
:100060000C9424010C9424010C9424010C9424017C
:100070000C9424010C9424010C9424010C9424016C
:100080000C9424010C9424010C9424010C9424015C
:100090000C9424010C9424010C9424010C9424014C
:1000A0000C9424010C9424010C94240146726F6E6C
:1000B00074004C6566740052696768740000010042
:1000C0000054011200020000110143000300000D62
:1000D000010401030904F9001202030904F10006F6
:1000E00003030904E700080803340031003000006E
:1000F0000006034D003200000012034A002E0020CB
:10010000004600690065006E0065000000040309F8
:100110000409024300020100C03209040000010288
:10012000020100052400100105240101010424023C
:10013000060524060001070582031000400904019A
:1001400000020A00000007050302400000070584C2
:10015000024000001201000202000010C0167A04E2
:100160000001010203010001C11201803601813644
:100170002020202D2D2D2020200046373A20002041
:1001800020202D2D2D2020200046363A2000202032
:10019000202D2D2D2020200046353A200020202023
:1001A0002D2D2D2020200046343A20002020202D07
:1001B0002D2D2020200046313A20002020202D2DFA
:1001C0002D2020200046303A20002020202D2D2DEB
:1001D0002020200044373A20002020202D2D2D20E3
:1001E00020200044363A20002020202D2D2D2020D4
:1001F000200044343A20002020202D2D2D202020C6
:10020000004261636B2F546F6F204C6F7700112495
:100210001FBECFEFDAE0DEBFCDBF11E0A0E0B1E05E
:10022000E2ECF4E102C005900D92AA31B107D9F7D2
:1002300021E0AAE1B1E001C01D92A939B207E1F7BE
:100240000E9426010C945F0A0C940000CF93DF9368
:10025000CDB7DEB762970FB6F894DEBF0FBECDBF45
:100260002FEB87E299E0215080409040E1F700C0F9
:100270000000E1E6F0E080E8808383E080830E9474
:10028000F1010E948E01CE0101960E941605CE0159
:1002900001960E9468057C0101E010E00F2EF8E253
:1002A000CF2ED12CF02DA12CB12C2DC0CE0101963A
:1002B0000E941605CE0101960E9468057C010F5F21
:1002C0001F4FC801B6010E94E307892BE1F4CE015C
:1002D00001960E94D905FF202CF487EB90E00E9444
:1002E00026040CC01E141F042CF482EB90E00E9424
:1002F000260404C08CEA90E00E9426048DE00E944F
:100300000A020A2D1B2DC7010E947806009719F4D6
:100310000E94C801CBCF0E94CA05C8CF219A229A59
:10032000239A279A299A2A982B9A2F98E1E8F0E0A5
:1003300080818B7F808380818260808380818E7FBB
:10034000808380818F7E8083808188608083E0E8E5
:10035000F0E080818D7F80838081816080838081D7
:1003600080688083808180648083808180628083D4
:100370008081806180838FEB90E0909389008093EF
:10038000880090938B0080938A00269A259A08957E
:1003900029982A982B982F980895882389F08FEF11
:1003A00090E0861B970B9093890080938800909330
:1003B0008B0080938A00299A2A982B982F9A089567
:1003C0008FEF90E0861B970B9093890080938800B5
:1003D00090938B0080938A0029982A9A2B9A2F98C1
:1003E000089581E08093D70080EA8093D80082E16D
:1003F00089BD09B400FEFDCF80E98093D80010923A
:10040000E00010921D0110921A018CE08093E2002E
:1004100078940895CF93DF9390911D01992309F467
:100420004CC09FB7F89424E02093E90020911B0171
:10043000222349F02091E80025FD03C09FBF8FEFE4
:1004400041C010921B013091E400375E2091E8001A
:1004500025FD24C09FBF9091E400931781F09091F7
:100460001D01992361F1A9EEB0E044E0E8EEF0E06F
:10047000C4EED0E00DC09FBF9881931305C081E00A
:1004800080931B018FEF1EC090911D019923C9F02D
:100490009FB7F8944C93208125FFEDCF8093F10016
:1004A0008091E80085FD03C08AE38093E80085E041
:1004B00080931C019FBF80E005C08FEF03C08FEFCA
:1004C00001C08FEFDF91CF9108951F920F920FB669
:1004D0000F9211248F939F93EF93FF93E1EEF0E03F
:1004E0008081108283FF11C01092E90091E0909307
:1004F000EB001092EC0092E19093ED0098E0909365
:10050000F00010921D0110921A0182FF13C0809119
:100510001D01882379F080911C01882359F08150B6
:1005200080931C01811106C084E08093E9008AE376
:100530008093E800FF91EF919F918F910F900FBEF4
:100540000F901F9018951F920F920FB60F921124C3
:100550000F931F932F933F934F935F936F937F93CB
:100560008F939F93AF93BF93CF93DF93EF93FF93BB
:100570001092E9008091E80083FF4CC1E1EFF0E0C8
:10058000608180812081908130E0392B4081908191
:1005900050E0592B7081C08192EF9093E800863033
:1005A00009F058C004C081E28093EB003AC166E0D4
:1005B0008DEB90E0FC01A591B4912A173B0711F057
:1005C000079623C0FC013296A591B4914A175B07A8
:1005D00011F007961AC0FC01349645915491FC0124
:1005E00036962491872F90E09C2B8F3F910519F030
:1005F00010F08FEF90E0821708F4282FA8EEB0E0FB
:1006000070E16EEFC1EFD0E003C0615099F6CBCF3F
:100610008C91982F9570E1F382FD03C1322F213127
:1006200008F0372F332309F4F9C0FA01832F94918E
:100630009883815031968111FACF8FEF830F90E02C
:100640000196480F591F231B6C932111E1CF3031C4
:10065000F9F2E7C0853061F48EEF8093E800E8EEB0
:10066000F0E0808180FFFDCF20682093E300D9C0B7
:10067000893009F035C06111CDC020931D01109261
:100680001A0110921C018EEF8093E80081E026E6AB
:1006900031E0C9EED0E0ABEEB0E00CEE10E06DEE74
:1006A00070E08883A9014F5F5F4FF90194919C939B
:1006B000992361F0FA014491F8014083F9013296DF
:1006C00094912D5F3F4FFB01908301C09A018F5F92
:1006D000853039F7EAEEF0E08EE180831082A1C028
:1006E000883081F4603809F095C0E8EEF0E0808150
:1006F00080FFFDCF80911D018093F1008EEF8093EC
:10070000E8008FC08132B9F4613A09F083C0E8EEA5
:10071000F0E0808180FFFDCFE0E0F1E027E031E014
:10072000A1EFB0E081918C93E217F307D9F78EEF38
:100730008093E80076C08032D1F4613209F06AC05B
:10074000E8EEF0E0808182FFFDCFE0E0F1E027E01D
:1007500031E0A1EFB0E08C918193E217F307D9F774
:10076000E8EEF0E08BEF80838EEF80835AC0823218
:1007700071F4613209F04EC020931A01E8EEF0E006
:10078000808180FFFDCF8EEF8093E8004AC0811109
:100790001AC0E8EEF0E0808180FFFDCF623851F4AE
:1007A000E9EEF0E040838091EB0085FB882780F93B
:1007B000108201C080E0E1EFF0E0808310828EEFD4
:1007C0008093E8002EC0982F9D7F913019F56230FC
:1007D00009F5232BF9F44F779FEF940F9430D0F461
:1007E0009EEF9093E8004093E900833021F481E28A
:1007F0008093EB0016C089E18093EB0081E090E0EC
:1008000002C0880F991F4A95E2F7EAEEF0E0808374
:10081000108207C081E28093EB0003C06C9321112A
:10082000F7CEFF91EF91DF91CF91BF91AF919F9163
:100830008F917F916F915F914F913F912F911F9178
:100840000F910F900FBE0F901F9018950F931F934D
:10085000CF938C010F5F1F4FFC01C491CC2371F02B
:10086000CA3019F48DE00E940A028C2F0E940A02FD
:10087000F801C4910F5F1F4FC111F2CFCF911F91AB
:100880000F910895EF92FF920F931F93CF93DF93F1
:10089000CDB7DEB727970FB6F894DEBF0FBECDBF3A
:1008A0008E010F5F1F4F27E0F80111922A95E9F79B
:1008B0004AE0B8010E94F3097E01F8E0EF0EF11C56
:1008C000F80181918F0181110E940A020E151F0506
:1008D000B9F727960FB6F894DEBF0FBECDBFDF91F4
:1008E000CF911F910F91FF90EF900895ECE7F0E00A
:1008F00080818F778083808180648083AAE7B0E0E5
:100900008C9184608C938C918D7F8C938C91816081
:100910008C93EEE7F0E0808181608083808182604B
:1009200080838081806180838081806280838081F8
:1009300080648083808180688083EDE7F0E080813F
:1009400081608083808182608083808184608083F5
:100950008C9180628C93089582309105B0F0843040
:100960009105D9F08530910591F086309105A9F077
:100970008730910561F08830910579F089309105D3
:1009800031F08A309105B1F508C080FF06C0ECE770
:10099000F0E020812160208305C0ECE7F0E02081B9
:1009A0002E7F208381FF06C0ECE7F0E020812260EB
:1009B000208305C0ECE7F0E020812D7F208382FFBB
:1009C00006C0ECE7F0E020812460208305C0ECE75E
:1009D000F0E020812B7F208383FF06C0EBE7F0E06F
:1009E0008081806280830895EBE7F0E080818F7DD5
:1009F000808308956A9A72980895EAE7F0E080810A
:100A000080688083808180648083808184FFFDCFC3
:100A10002091780030917900EAE7F0E090819F7EA4
:100A2000908390819F779083C9010895CF92DF9240
:100A3000EF92FF920F931F93CF93DF93CDB7DEB763
:100A400062970FB6F894DEBF0FBECDBF6C018091E8
:100A50000701882329F080E885BF85BF1092070130
:100A600089E090E00E94760482E1E8E0F1E0DE01B6
:100A7000119601900D928A95E1F7CE0101967C01C5
:100A8000860192E1C90ED11CF701819191917F01FC
:100A90000E94AC040E94FD04F801819391938F01A0
:100AA00083EF91E00197F1F700C00000EC15FD0520
:100AB00059F762960FB6F894DEBF0FBECDBFDF9137
:100AC000CF911F910F91FF90EF90DF90CF900895FD
:100AD000CF93DF93FC01C081D181A281B381848156
:100AE000958160857185660F771F468157819B01CF
:100AF000240F351F62857385AB01440F551F640FAA
:100B0000751F620F731F24853585A901440F551F7A
:100B1000240F351F621B730B26853785220F331F69
:100B2000621B730B20893189621B730B9B0122F4BA
:100B300022273327261B370B27303105B4F0072E29
:100B4000000C880B990B0E94EA0620E030E040E898
:100B50005EE30E9476070E94B206CB016F3F7105EB
:100B6000B1F0ACF08FEF90E012C0AC0FBD1F8A0F58
:100B70009B1FCD9754F481E092E00E9426048DE003
:100B80000E940A0284E690E002C080E090E0DF91DB
:100B9000CF91089599232CF4BC0180E00E94CD01EF
:100BA00008951816190624F4BC0181E00E94CD01B5
:100BB0000895CF93DF93EC0187EF91E00E94260424
:100BC00082EF91E00E942604888199810E9442046C
:100BD00088EE91E00E94260483EE91E00E942604B4
:100BE0008A819B810E94420489ED91E00E94260443
:100BF00084ED91E00E9426048C819D810E94420434
:100C00008AEC91E00E94260485EC91E00E94260483
:100C10008E819F810E9442048BEB91E00E9426040A
:100C200086EB91E00E942604888599850E94420403
:100C30008CEA91E00E94260487EA91E00E94260453
:100C40008A859B850E9442048DE991E00E942604DA
:100C500088E991E00E9426048C859D850E944204CB
:100C60008EE891E00E94260489E891E00E94260423
:100C70008E859F850E9442048FE791E00E942604A2
:100C80008AE791E00E942604888999890E9442049B
:100C900080E791E00E942604DF91CF910895FC0146
:100CA00080819181FB0120813181821B930B08950A
:100CB000EFE8F1E011821082138212821582148211
:100CC000178216821186108681E080938E01089526
:100CD000E9E9F1E04FE851E0329122913383228338
:100CE000E417F507C9F79093900180938F01089559
:100CF0000F931F93CF93DF93CDB7DEB72A970FB62D
:100D0000F894DEBF0FBECDBF8C0180918E018111A2
:100D100002C00E945806C8010E946806EFE8F1E090
:100D2000DE01119629E931E0819191918D939D9396
:100D3000E217F307C9F72FE436E042E050E065E040
:100D400070E0CE0101960E944C088D819E812A960A
:100D50000FB6F894DEBF0FBECDBFDF91CF911F91CC
:100D60000F9108950E94B9066894B1110C94700710
:100D700008950E94550788F09F5798F0B92F99273A
:100D8000B751B0F0E1F0660F771F881F991F1AF076
:100D9000BA95C9F714C0B13091F00E946F07B1E065
:100DA00008950C946F07672F782F8827B85F39F064
:100DB000B93FCCF3869577956795B395D9F73EF40F
:100DC00090958095709561957F4F8F4F9F4F0895B7
:100DD000E89409C097FB3EF49095809570956195D5
:100DE0007F4F8F4F9F4F9923A9F0F92F96E9BB278B
:100DF0009395F695879577956795B795F111F8CF07
:100E0000FAF4BB0F11F460FF1BC06F5F7F4F8F4F71
:100E10009F4F16C0882311F096E911C0772321F067
:100E20009EE8872F762F05C0662371F096E8862FFF
:100E300070E060E02AF09A95660F771F881FDAF756
:100E4000880F9695879597F9089597F99F6780E899
:100E500070E060E008959FEF80EC089500240A940C
:100E60001616170618060906089500240A94121685
:100E70001306140605060895092E0394000C11F4B8
:100E8000882352F0BB0F40F4BF2B11F460FF04C065
:100E90006F5F7F4F8F4F9F4F089557FD9058440FBE
:100EA000551F59F05F3F71F04795880F97FB991FC9
:100EB00061F09F3F79F08795089512161306140686
:100EC000551FF2CF4695F1DF08C016161706180613
:100ED000991FF1CF86957105610508940895E894EE
:100EE000BB2766277727CB0197F908950E948907CA
:100EF0000C943C070E942E0738F00E94350720F022
:100F0000952311F00C9425070C942B0711240C94B5
:100F100070070E944D0770F3959FC1F3950F50E045
:100F2000551F629FF001729FBB27F00DB11D639F9B
:100F3000AA27F00DB11DAA1F649F6627B00DA11D41
:100F4000661F829F2227B00DA11D621F739FB00DE7
:100F5000A11D621F839FA00D611D221F749F332757
:100F6000A00D611D231F849F600D211D822F762FF0
:100F70006A2F11249F5750409AF0F1F088234AF0CD
:100F8000EE0FFF1FBB1F661F771F881F9150504039
:100F9000A9F79E3F510580F00C9425070C9470072B
:100FA0005F3FE4F3983ED4F3869577956795B795C0
:100FB000F795E7959F5FC1F7FE2B880F911D9695DA
:100FC000879597F9089597FB072E16F4009407D09C
:100FD00077FD09D00E94F70707FC05D03EF49095F5
:100FE00081959F4F0895709561957F4F0895AA1B35
:100FF000BB1B51E107C0AA1FBB1FA617B70710F004
:10100000A61BB70B881F991F5A95A9F78095909535
:10101000BC01CD010895DC01FB018C9190819D9371
:1010200081934150510914161506BCF30895A0E0B0
:10103000B0E0EDE1F8E00C94320AD82FC92F6B0133
:101040008A017901F9010995B80197FF0FC0C6011E
:10105000F701099597FF02C0C60119C0B8018D2F8D
:101060009C2FF701099597FD0EC00FC0C601F7012F
:1010700009951816190684F3B8018D2F9C2FF701D6
:10108000099597FD02C0C80102C08D2F9C2FCDB7D6
:10109000DEB7E8E00C944E0AAAE0B0E0E2E5F8E042
:1010A0000C94280A8C017B015A8749876901519564
:1010B000419551095E834D8329853A85200F311F63
:1010C0003A83298337E0E316F10478F589809A8022
:1010D00049855A85E49EC001E59E900DF49E900DD1
:1010E00011247801E80EF91E8E149F0408F077C1D0
:1010F000340106151705A0F4530169857A85A61AEF
:10110000B70AB301C501F60109951816190644F48A
:1011100049855A85B501C3010E940B083501E9CF05
:1011200029853A85820E931EDFCFC7019695879554
:1011300049855A85849F5001859FB00C949FB00CBF
:101140001124A00EB11EB701615071097C836B831D
:1011500077E0E716F10409F44CC08B819C81849FF1
:101160003001859F700C949F700C1124600E711ECD
:1011700099E2E916F104A8F1C70123E09695879555
:101180002A95E1F7849F4001859F900C949F900CD5
:1011900011241401220C331CA801420D531DB80167
:1011A000680D791D9601C8010E9417082C01A50140
:1011B000480D591D9194819491089601B501C5017E
:1011C000880D991D0E9417085C01B301680D791DF7
:1011D0009601A301C301821993090E9417083C01DB
:1011E00001C028019601A301B501C2010E941708A0
:1011F0005C0149855A85B501C8010E940B088980A8
:101200009A804B815C8169857A85469F9001479FD2
:10121000300D569F300D11243A8329833901600E19
:10122000711E23015401140120E030E06A147B0494
:1012300008F43FC0B801C5012F833887F60109952E
:101240002F81388518161906A4F1892B61F4498578
:101250005A85B501C1010E940B0889859A85280E1F
:10126000391E21E030E0E985FA85AE0EBF1EDECFE3
:10127000B801C3012F833887F6010995A301698559
:101280007A85461B570B5C834B832F81388597FDEE
:1012900014C0892B61F449855A85B201C3010E94AB
:1012A0000B0829853A85421A530A21E030E06B8009
:1012B0007C806A147B04E0F60FC049855A85B3012F
:1012C000C5010E940B0849855A85A40EB51E6B8086
:1012D0007C8021E030E0AACF232B69F5E985FA85EF
:1012E000EE9EC001EF9E900DFE9E900D11247801A0
:1012F000E80EF91E8E149F0408F071C03401061523
:101300001705A0F4530129853A85A21AB30AB3013F
:10131000C501F60109951816190644F449855A8540
:10132000B501C3010E940B083501E9CF29853A8533
:10133000820E931EDFCF89819A814D815E81841B4D
:10134000950BB801680F791F7A8369837501E218DC
:10135000F308A101401B510BE416F5060CF4A7019C
:101360001416150634F4B501641B750BC8010E94F0
:101370000B0842018618970849815A81441955097A
:1013800089859A85481B590B8416950608F4A40193
:10139000141615063CF469817A81641B750BC5012E
:1013A0000E940B08E985FA85EE15FF0548F4C70190
:1013B000BF010E94F7079601AF01C8010E944C08C7
:1013C00029853A852815390550F409811A810819AB
:1013D0001909C401B9010E94F7077B016DCE2A9655
:1013E000E2E10C94440ABB274A3031F4992322F4F9
:1013F000BDE2909581959F4F0C94FF09BB27FB019F
:101400005527AA27880F991FAA1FA41710F0A41BFD
:1014100083955051B9F7A05DAA3308F0A95DA19357
:10142000009779F7B111B1931192CB010C94180A7E
:10143000DC01FC01672F71917723E1F7329704C03B
:101440007C916D9370836291AE17BF07C8F30895C6
:101450002F923F924F925F926F927F928F929F92C4
:10146000AF92BF92CF92DF92EF92FF920F931F93B2
:10147000CF93DF93CDB7DEB7CA1BDB0B0FB6F89463
:10148000DEBF0FBECDBF09942A88398848885F84A3
:101490006E847D848C849B84AA84B984C884DF8014
:1014A000EE80FD800C811B81AA81B981CE0FD11DF8
:1014B0000FB6F894DEBF0FBECDBFED010895F894CE
:0214C000FFCF5C
:1014C20000E1000000000801080009000A00000015
:0A14D20001000400050006000700F9
:00000001FF
