S01000005075636B46696E642E7372656300
S11300000C94DA000C94F7000C94F7000C94F700AD
S11300100C94F7000C94F7000C94F7000C94F70080
S11300200C94F7000C94F7000C9401020C943F021A
S11300300C94F7000C94F7000C94F7000C94F70060
S11300400C94F7000C94F7000C94F7000C94F70050
S11300500C94F7000C94F7000C94F7000C94F70040
S11300600C94F7000C94F7000C94F7000C94F70030
S11300700C94F7000C94F7000C94F7000C94F70020
S11300800C94F7000C94F7000C94F7000C94F70010
S11300900C94F7000C94F7000C94F7000C94F70000
S11300A00C94F7000C94F7000C94F7000001000086
S11300B04301120002000000014300030000FC00A1
S11300C00401030904E8001202030904E000060322
S11300D0030904D60008080334003100300000008E
S11300E006034D003200000012034A002E002000D7
S11300F04600690065006E00650000000403090401
S113010009024300020100C0320904000001020296
S11301100100052400100105240101010424020644
S113012005240600010705820310004009040100AC
S1130130020A0000000705030240000007058402CC
S11301404000001201000202000010C0167A0400F0
S113015001010203010001C1120180360181362030
S113016020202D2D2D2020200046363A200020204E
S1130170202D2D2D2020200046353A20002020203F
S11301802D2D2D2020200046343A20002020202D23
S11301902D2D2020200046313A20002020202D2D16
S11301A02D2020200046303A20002020202D2D2D07
S11301B02020200011241FBECFEFDAE0DEBFCDBF28
S11301C011E0A0E0B1E0ECECFBE002C005900D9280
S11301D0A830B107D9F721E0A8E0B1E001C01D9231
S11301E0AC30B207E1F70E94F9000C94E4050C94DA
S11301F00000CF93DF93CDB7DEB72A970FB6F894FC
S1130200DEBF0FBECDBFE1E6F0E080E8808383E08F
S113021080830E948D010E942E01CE0101960E94CE
S11302201204CE0101960E946605CE0101960E9439
S1130230FF04892B29F40E9468016A9A729804C009
S1130240CE0101960E9457052FE986E891E02150DE
S113025080409040E1F700C00000DFCF219A229A4D
S1130260239A279A299A2A982B9A2F98E1E8F0E062
S113027080818B7F808380818260808380818E7F78
S1130280808380818F7E8083808188608083E0E8A2
S1130290F0E080818D7F8083808181608083808194
S11302A08068808380818064808380818062808391
S11302B08081806180838FEB90E0909389008093AC
S11302C0880090938B0080938A00269A259A08953B
S11302D029982A982B982F980895882379F08FEBE2
S11302E090E0909389008093880090938B00809392
S11302F08A00299A2A982B982F9A08958FEB90E0D8
S1130300909389008093880090938B0080938A0057
S113031029982A9A2B9A2F98089581E08093D700E0
S113032080EA8093D80082E189BD09B400FEFDCF44
S113033080E98093D8001092E00010920B01109293
S113034008018CE08093E20078940895CF93DF93C2
S113035090910B01992309F44CC09FB7F89424E0C1
S11303602093E90020910901222349F02091E8001B
S113037025FD03C09FBF8FEF41C01092090130914A
S1130380E400375E2091E80025FD24C09FBF9091D2
S1130390E400931781F090910B01992361F1A9EE88
S11303A0B0E044E0E8EEF0E0C4EED0E00DC09FBF62
S11303B09881931305C081E0809309018FEF1EC0DB
S11303C090910B019923C9F09FB7F8944C93208125
S11303D025FFEDCF8093F1008091E80085FD03C0F7
S11303E08AE38093E80085E080930A019FBF80E060
S11303F005C08FEF03C08FEF01C08FEFDF91CF9166
S113040008951F920F920FB60F9211248F939F930A
S1130410EF93FF93E1EEF0E08081108283FF11C03F
S11304201092E90091E09093EB001092EC0092E1BD
S11304309093ED0098E09093F00010920B011092CD
S1130440080182FF13C080910B01882379F0809109
S11304500A01882359F0815080930A01811106C052
S113046084E08093E9008AE38093E800FF91EF91B0
S11304709F918F910F900FBE0F901F9018951F9210
S11304800F920FB60F9211240F931F932F933F9344
S11304904F935F936F937F938F939F93AF93BF9388
S11304A0CF93DF93EF93FF931092E9008091E800DC
S11304B083FF4CC1E1EFF0E0608180812081908175
S11304C030E0392B4081908150E0592B7081C081FC
S11304D092EF9093E800863009F058C004C081E29E
S11304E08093EB003AC166E08CEA90E0FC01A591B0
S11304F0B4912A173B0711F0079623C0FC013296EA
S1130500A591B4914A175B0711F007961AC0FC0134
S1130510349645915491FC0136962491872F90E0AE
S11305209C2B8F3F910519F010F08FEF90E082170C
S113053008F4282FA8EEB0E070E16EEFC1EFD0E030
S113054003C0615099F6CBCF8C91982F9570E1F34D
S113055082FD03C1322F213108F0372F332309F4F0
S1130560F9C0FA01832F94919883815031968111B7
S1130570FACF8FEF830F90E00196480F591F231B8A
S11305806C932111E1CF3031F9F2E7C0853061F489
S11305908EEF8093E800E8EEF0E0808180FFFDCFED
S11305A020682093E300D9C0893009F035C0611177
S11305B0CDC020930B011092080110920A018EEF16
S11305C08093E80081E025E531E0C9EED0E0ABEEB0
S11305D0B0E00CEE10E06DEE70E08883A9014F5F8F
S11305E05F4FF90194919C93992361F0FA0144912E
S11305F0F8014083F901329694912D5F3F4FFB013E
S1130600908301C09A018F5F853039F7EAEEF0E0FC
S11306108EE180831082A1C0883081F4603809F0B3
S113062095C0E8EEF0E0808180FFFDCF80910B0162
S11306308093F1008EEF8093E8008FC08132B9F48B
S1130640613A09F083C0E8EEF0E0808180FFFDCFDD
S1130650E0E0F1E027E031E0A1EFB0E081918C939C
S1130660E217F307D9F78EEF8093E80076C0803263
S1130670D1F4613209F06AC0E8EEF0E0808182FFD3
S1130680FDCFE0E0F1E027E031E0A1EFB0E08C91B4
S11306908193E217F307D9F7E8EEF0E08BEF80835C
S11306A08EEF80835AC0823271F4613209F04EC0F9
S11306B020930801E8EEF0E0808180FFFDCF8EEF0B
S11306C08093E8004AC081111AC0E8EEF0E080810E
S11306D080FFFDCF623851F4E9EEF0E04083809171
S11306E0EB0085FB882780F9108201C080E0E1EFF0
S11306F0F0E0808310828EEF8093E8002EC0982F64
S11307009D7F913019F5623009F5232BF9F44F7769
S11307109FEF940F9430D0F49EEF9093E8004093B1
S1130720E900833021F481E28093EB0016C089E173
S11307308093EB0081E090E002C0880F991F4A95F6
S1130740E2F7EAEEF0E08083108207C081E2809352
S1130750EB0003C06C932111F7CEFF91EF91DF9171
S1130760CF91BF91AF919F918F917F916F915F9145
S11307704F913F912F911F910F910F900FBE0F90AA
S11307801F9018950F931F93CF938C010F5F1F4FEA
S1130790FC01C491CC2371F0CA3019F48DE00E949D
S11307A0A6018C2F0E94A601F801C4910F5F1F4F70
S11307B0C111F2CFCF911F910F910895EF92FF9243
S11307C00F931F93CF93DF93CDB7DEB727970FB661
S11307D0F894DEBF0FBECDBF8E010F5F1F4F27E021
S11307E0F80111922A95E9F74AE0B8010E94AF0591
S11307F07E01F8E0EF0EF11CF80181918F01811167
S11308000E94A6010E151F05B9F727960FB6F89496
S1130810DEBF0FBECDBFDF91CF911F910F91FF902F
S1130820EF900895CF93DF93AC01CCE7D0E08881BB
S11308308F778883888180648883EAE7F0E0808109
S11308408460808380818D7F8083808181608083C8
S11308508EE790E0DC012C9121602C932C91226096
S11308602C932C9120612C932C9120622C932C910D
S113087020642C9380818062808380818F77808341
S11308802BE730E0D9018C918F7D8C9388818B7F0D
S1130890888388818D7F888388818E7F8883808107
S11308A080688083808180648083908194FFFDCF01
S11308B08091780090917900FA0191838083EAE72E
S11308C0F0E080818F7E808389EF90E00197F1F7DB
S11308D000C0000080818F778083CCE7D0E08881DE
S11308E08160888380818068808380818064808344
S11308F0908194FFFDCF8091780090917900DA0186
S113090013969C938E931297EAE7F0E080818F7E92
S1130910808380818F778083CCE7D0E08881846076
S1130920888388818E7F88838081806880838081AA
S113093080648083908194FFFDCF809178009091B2
S11309407900FA0195838483EAE7F0E080818F7E61
S1130950808389EF90E00197F1F700C00000808167
S11309608F778083CBE7D0E0888181608883808122
S113097080688083808180648083908194FFFDCF30
S11309808091780090917900DA0117969C938E9368
S11309901697EAE7F0E080818F7E808389EF90E00C
S11309A00197F1F700C0000080818F778083CCE746
S11309B0D0E088818260888388818E7F888380816B
S11309C080688083808180648083908194FFFDCFE0
S11309D08091780090917900DA0119969C938E9316
S11309E01897EAE7F0E080818F7E8083E9EFF0E0FA
S11309F03197F1F700C00000DF91CF910895CF93B4
S1130A00DF93DC01129621E030E040E050E0CD912C
S1130A10DD91FA01EE0FFF1FE80FF91F608171816C
S1130A206C177D070CF4A9012F5F3F4F253031056A
S1130A3071F742305105A8F4FC0120813181828193
S1130A409381A901481B590BCA019A012F5C3F4F9E
S1130A5023363105D8F018161906DCF08FEF9FEF16
S1130A6023C042305105C1F043305105C1F0443038
S1130A70510559F4FC0124813581868197818217BF
S1130A80930784F08FEF9FEF0FC00EC080E090E0DB
S1130A900BC081E090E008C081E090E005C08FEFDA
S1130AA09FEF02C081E090E0DF91CF9108950E9412
S1130AB0FF04992324F480E00E946D010895181620
S1130AC019061CF481E00E946D010895CF93DF9311
S1130AD0EC018AEA91E00E94C20385EA91E00E9457
S1130AE0C203888199810E94DE038BE991E00E9410
S1130AF0C20386E991E00E94C2038A819B810E941D
S1130B00DE038CE891E00E94C20387E891E00E9432
S1130B10C2038C819D810E94DE038DE791E00E94D7
S1130B20C20388E791E00E94C2038E819F810E94E4
S1130B30DE038EE691E00E94C20389E691E00E9402
S1130B40C203888599850E94DE038FE591E00E94A7
S1130B50C2038DE00E94A601DF91CF910895BB27C7
S1130B604A3031F4992322F4BDE2909581959F4F48
S1130B700C94BB05BB27FB015527AA27880F991F97
S1130B80AA1FA41710F0A41B83955051B9F7A05DB8
S1130B90AA3308F0A95DA193009779F7B111B19335
S1130BA01192CB010C94D405DC01FC01672F7191E7
S1130BB07723E1F7329704C07C916D93708362913F
S10F0BC0AE17BF07C8F30895F894FFCFE8
S10B0BCC00E100000000080034
S9030000FC
