:100000000C9413010C9430010C9430010C943001C9
:100010000C9430010C9430010C9430010C9430019C
:100020000C9430010C9430010C945E020C949C02F0
:100030000C9430010C9430010C9430010C9430017C
:100040000C9430010C9430010C9430010C9430016C
:100050000C9430010C9430010C9430010C9430015C
:100060000C9430010C9430010C9430010C9430014C
:100070000C9430010C9430010C9430010C9430013C
:100080000C9430010C9430010C9430010C9430012C
:100090000C9430010C9430010C9430010C9430011C
:1000A0000C9430010C9430010C94300100010000DC
:1000B0004301120002000000014300030000FC00A5
:1000C0000401030904E8001202030904E000060326
:1000D000030904D600080803340031003000000092
:1000E00006034D003200000012034A002E002000DB
:1000F0004600690065006E00650000000403090405
:1001000009024300020100C032090400000102029A
:100110000100052400100105240101010424020648
:1001200005240600010705820310004009040100B0
:10013000020A0000000705030240000007058402D0
:100140004000001201000202000010C0167A0400F4
:1001500001010203010001C1120180360181362034
:1001600020202D2D2D2020200046373A2000202051
:10017000202D2D2D2020200046363A200020202042
:100180002D2D2D2020200046353A20002020202D26
:100190002D2D2020200046343A20002020202D2D17
:1001A0002D2020200046313A20002020202D2D2D0A
:1001B0002020200046303A20002020202D2D2D2008
:1001C00020200044373A20002020202D2D2D2020F3
:1001D000200044363A20002020202D2D2D202020E4
:1001E0000044343A20002020202D2D2D20202000F6
:1001F0004261636B2F546F6F204C6F770046726FB4
:100200006E74004C6566742046726F6E740052699D
:100210006768742046726F6E74004C656674005295
:1002200069676874000011241FBECFEFDAE0DEBFFB
:10023000CDBF11E0A0E0B1E0E4EEF2E102C0059034
:100240000D92AA31B107D9F721E0AAE1B1E001C0CE
:100250001D92AB38B207E1F70E9432010C9470098D
:100260000C940000CF93DF93CDB7DEB762970FB643
:10027000F894DEBF0FBECDBF2FEB87E299E021508F
:1002800080409040E1F700C00000E1E6F0E080E847
:10029000808383E080830E94EA010E948701CE016F
:1002A00001960E940F0501E010E00F2EF0E4CF2E22
:1002B000FCE9DF2EE12CF12CF02DA12CB12C19C082
:1002C000CE0101960E940F050F5F1F4FB801012E4E
:1002D000000C880B990BA70196010E94C706672B9B
:1002E000682B692B31F4CE0101960E94EE050A2D90
:1002F0001B2DCE0101960E9461050E948D0600977C
:1003000019F40E94C101DCCF0E94DF05D9CF219AE8
:10031000229A239A279A299A2A982B9A2F98E1E8C9
:10032000F0E080818B7F8083808182608083808108
:100330008E7F808380818F7E8083808188608083B0
:10034000E0E8F0E080818D7F808380818160808320
:1003500080818068808380818064808380818062E6
:1003600080838081806180838FEB90E0909389000F
:100370008093880090938B0080938A00269A259A18
:10038000089529982A982B982F980895882389F002
:100390008FEF90E0861B970B9093890080938800E5
:1003A00090938B0080938A00299A2A982B982F9AF1
:1003B00008958FEF90E0861B970B909389008093B0
:1003C000880090938B0080938A0029982A9A2B9A10
:1003D0002F98089581E08093D70080EA8093D80019
:1003E00082E189BD09B400FEFDCF80E98093D80089
:1003F0001092E00010921D0110921A018CE080937F
:10040000E20078940895CF93DF9390911D01992392
:1004100009F44CC09FB7F89424E02093E9002091A0
:100420001B01222349F02091E80025FD03C09FBF56
:100430008FEF41C010921B013091E400375E209194
:10044000E80025FD24C09FBF9091E400931781F040
:1004500090911D01992361F1A9EEB0E044E0E8EE2E
:10046000F0E0C4EED0E00DC09FBF9881931305C0AB
:1004700081E080931B018FEF1EC090911D01992395
:10048000C9F09FB7F8944C93208125FFEDCF80935E
:10049000F1008091E80085FD03C08AE38093E800C5
:1004A00085E080931C019FBF80E005C08FEF03C0F3
:1004B0008FEF01C08FEFDF91CF9108951F920F92C0
:1004C0000FB60F9211248F939F93EF93FF93E1EE5A
:1004D000F0E08081108283FF11C01092E90091E06A
:1004E0009093EB001092EC0092E19093ED0098E075
:1004F0009093F00010921D0110921A0182FF13C018
:1005000080911D01882379F080911C01882359F086
:10051000815080931C01811106C084E08093E90022
:100520008AE38093E800FF91EF919F918F910F9064
:100530000FBE0F901F9018951F920F920FB60F923B
:1005400011240F931F932F933F934F935F936F93B8
:100550007F938F939F93AF93BF93CF93DF93EF934B
:10056000FF931092E9008091E80083FF4CC1E1EF16
:10057000F0E0608180812081908130E0392B4081E2
:10058000908150E0592B7081C08192EF9093E800E8
:10059000863009F058C004C081E28093EB003AC174
:1005A00066E08CEA90E0FC01A591B4912A173B0724
:1005B00011F0079623C0FC013296A591B4914A1719
:1005C0005B0711F007961AC0FC01349645915491CF
:1005D000FC0136962491872F90E09C2B8F3F91054C
:1005E00019F010F08FEF90E0821708F4282FA8EE92
:1005F000B0E070E16EEFC1EFD0E003C0615099F65A
:10060000CBCF8C91982F9570E1F382FD03C1322FEF
:10061000213108F0372F332309F4F9C0FA01832F71
:1006200094919883815031968111FACF8FEF830F87
:1006300090E00196480F591F231B6C932111E1CFC5
:100640003031F9F2E7C0853061F48EEF8093E80035
:10065000E8EEF0E0808180FFFDCF20682093E3008A
:10066000D9C0893009F035C06111CDC020931D017A
:1006700010921A0110921C018EEF8093E80081E025
:1006800025E531E0C9EED0E0ABEEB0E00CEE10E0D5
:100690006DEE70E08883A9014F5F5F4FF90194917F
:1006A0009C93992361F0FA014491F8014083F90188
:1006B000329694912D5F3F4FFB01908301C09A01C8
:1006C0008F5F853039F7EAEEF0E08EE180831082AB
:1006D000A1C0883081F4603809F095C0E8EEF0E000
:1006E000808180FFFDCF80911D018093F1008EEF0E
:1006F0008093E8008FC08132B9F4613A09F083C079
:10070000E8EEF0E0808180FFFDCFE0E0F1E027E05F
:1007100031E0A1EFB0E081918C93E217F307D9F7B4
:100720008EEF8093E80076C08032D1F4613209F018
:100730006AC0E8EEF0E0808182FFFDCFE0E0F1E00A
:1007400027E031E0A1EFB0E08C918193E217F3074D
:10075000D9F7E8EEF0E08BEF80838EEF80835AC00C
:10076000823271F4613209F04EC020931A01E8EE32
:10077000F0E0808180FFFDCF8EEF8093E8004AC0DB
:1007800081111AC0E8EEF0E0808180FFFDCF623871
:1007900051F4E9EEF0E040838091EB0085FB88277F
:1007A00080F9108201C080E0E1EFF0E080831082E8
:1007B0008EEF8093E8002EC0982F9D7F913019F521
:1007C000623009F5232BF9F44F779FEF940F9430A3
:1007D000D0F49EEF9093E8004093E900833021F439
:1007E00081E28093EB0016C089E18093EB0081E009
:1007F00090E002C0880F991F4A95E2F7EAEEF0E018
:100800008083108207C081E28093EB0003C06C9369
:100810002111F7CEFF91EF91DF91CF91BF91AF9171
:100820009F918F917F916F915F914F913F912F9108
:100830001F910F910F900FBE0F901F9018950F935F
:100840001F93CF938C010F5F1F4FFC01C491CC23EA
:1008500071F0CA3019F48DE00E9403028C2F0E94BF
:100860000302F801C4910F5F1F4FC111F2CFCF9166
:100870001F910F910895EF92FF920F931F93CF93C3
:10088000DF93CDB7DEB727970FB6F894DEBF0FBE64
:10089000CDBF8E010F5F1F4F27E0F80111922A95FF
:1008A000E9F74AE0B8010E94F0087E01F8E0EF0E97
:1008B000F11CF80181918F0181110E9403020E1534
:1008C0001F05B9F727960FB6F894DEBF0FBECDBF50
:1008D000DF91CF911F910F91FF90EF900895ECE77A
:1008E000F0E080818F778083808180648083AAE7B5
:1008F000B0E08C9184608C938C918D7F8C938C91E3
:1009000081608C93EEE7F0E080818160808380815C
:100910008260808380818061808380818062808327
:10092000808180648083808180688083EDE7F0E04F
:100930008081816080838081826080838081846007
:1009400080838C9180628C93089582309105B0F001
:1009500084309105D9F08530910591F0863091056C
:10096000A9F08730910561F08830910579F08930E0
:10097000910531F08A309105B1F508C080FF06C0BD
:10098000ECE7F0E020812160208305C0ECE7F0E097
:1009900020812E7F208381FF06C0ECE7F0E02081DC
:1009A0002260208305C0ECE7F0E020812D7F2083CA
:1009B00082FF06C0ECE7F0E020812460208305C0C0
:1009C000ECE7F0E020812B7F208383FF06C0EBE77C
:1009D000F0E08081806280830895EBE7F0E0808121
:1009E0008F7D808308956A9A72980895EAE7F0E00F
:1009F000808180688083808180648083808184FF9F
:100A0000FDCF2091780030917900EAE7F0E0908105
:100A10009F7E908390819F779083C9010895CF92A4
:100A2000DF92EF92FF920F931F93CF93DF93CDB797
:100A3000DEB762970FB6F894DEBF0FBECDBF6C0174
:100A400080910701882329F080E885BF85BF109237
:100A5000070189E090E00E946F0482E1E8E0F1E0A4
:100A6000DE01119601900D928A95E1F7CE01019673
:100A70007C01860192E1C90ED11CF701819191910F
:100A80007F010E94A5040E94F604F80181939193CE
:100A90008F0183EF91E00197F1F700C00000EC15A2
:100AA000FD0559F762960FB6F894DEBF0FBECDBFB5
:100AB000DF91CF911F910F91FF90EF90DF90CF903A
:100AC0000895CF93DF93FC01A081B181628173818E
:100AD000C481D5812681378180859185280F391F72
:100AE00042855385240F351F84859585281B390B36
:100AF00086859785281B390B80899189A901481B18
:100B0000590BCA019A01992324F422273327241B65
:100B1000350B2F313105B4F0992354F48FE192E075
:100B20000E941F048DE00E9403028AE69FEF44C0EA
:100B30008AE192E00E941F048DE00E94030286E990
:100B400090E03AC06A0F7B1F6C0F7D1F6B357105FB
:100B500054F1AC1BBD0BCD0122F4882799278A1BC9
:100B60009B0BC397B4F0BB2354F48EE092E00E9439
:100B70001F048DE00E94030288ED9FEF1DC083E0FB
:100B800092E00E941F048DE00E94030288E290E040
:100B900013C08DEF91E00E941F048DE00E940302BC
:100BA00080E090E009C080EF91E00E941F048DE09A
:100BB0000E94030286E990E0DF91CF910895992386
:100BC0002CF4BC0180E00E94C60108951816190695
:100BD00024F4BC0181E00E94C6010895CF93DF9305
:100BE000EC0186EE91E00E941F0481EE91E00E94EC
:100BF0001F04888199810E943B0487ED91E00E9447
:100C00001F0482ED91E00E941F048A819B810E9453
:100C10003B0488EC91E00E941F0483EC91E00E9469
:100C20001F048C819D810E943B0489EB91E00E940E
:100C30001F0484EB91E00E941F048E819F810E941B
:100C40003B048AEA91E00E941F0485EA91E00E9439
:100C50001F04888599850E943B048BE991E00E94DE
:100C60001F0486E991E00E941F048A859B850E94EB
:100C70003B048CE891E00E941F0487E891E00E9409
:100C80001F048C859D850E943B048DE791E00E94A6
:100C90001F0488E791E00E941F048E859F850E94B3
:100CA0003B048EE691E00E941F0489E691E00E94D9
:100CB0001F04888999890E943B048FE591E00E9476
:100CC0001F04DF91CF910895FC0180819181FB0188
:100CD00020813181821B930B0895E1E8F1E01182BC
:100CE0001082138212821582148217821682118654
:100CF000108681E0809380010895EBE8F1E041E8FF
:100D000051E03291229133832283E417F507C9F72A
:100D1000909382018093810108950F931F93CF9345
:100D2000DF93CDB7DEB72A970FB6F894DEBF0FBEBC
:100D3000CDBF8C0180918001811102C00E946D069F
:100D4000C8010E947D06E1E8F1E0DE0111962BE882
:100D500031E0819191918D939D93E217F307C9F74B
:100D600024E636E042E050E065E070E0CE01019616
:100D70000E9449078D819E812A960FB6F894DEBFA6
:100D80000FBECDBFDF91CF911F910F910895052E1A
:100D900097FB1EF400940E94DE0657FD07D00E94C8
:100DA000E60607FC03D04EF40C94DE065095409501
:100DB000309521953F4F4F4F5F4F08959095809507
:100DC000709561957F4F8F4F9F4F0895A1E21A2E26
:100DD000AA1BBB1BFD010DC0AA1FBB1FEE1FFF1FDF
:100DE000A217B307E407F50720F0A21BB30BE40B2F
:100DF000F50B661F771F881F991F1A9469F7609576
:100E00007095809590959B01AC01BD01CF0108952F
:100E1000DC01FB018C9190819D938193415051099C
:100E200014161506BCF30895A0E0B0E0EAE1F7E07F
:100E30000C944309D82FC92F6B018A017901F9015C
:100E40000995B80197FF0FC0C601F701099597FFF3
:100E500002C0C60119C0B8018D2F9C2FF70109955A
:100E600097FD0EC00FC0C601F701099518161906A7
:100E700084F3B8018D2F9C2FF701099597FD02C0CF
:100E8000C80102C08D2F9C2FCDB7DEB7E8E00C94CF
:100E90005F09AAE0B0E0EFE4F7E00C9439098C01B7
:100EA0007B015A87498769015195419551095E83B4
:100EB0004D8329853A85200F311F3A83298337E0F6
:100EC000E316F10478F589809A8049855A85E49E75
:100ED000C001E59E900DF49E900D11247801E80E5E
:100EE000F91E8E149F0408F077C13401061517050A
:100EF000A0F4530169857A85A61AB70AB301C50122
:100F0000F60109951816190644F449855A85B50164
:100F1000C3010E9408073501E9CF29853A85820E71
:100F2000931EDFCFC7019695879549855A85849F83
:100F30005001859FB00C949FB00C1124A00EB11EDF
:100F4000B701615071097C836B8377E0E716F10488
:100F500009F44CC08B819C81849F3001859F700C6B
:100F6000949F700C1124600E711E99E2E916F10431
:100F7000A8F1C70123E0969587952A95E1F7849F0C
:100F80004001859F900C949F900C11241401220C19
:100F9000331CA801420D531DB801680D791D96013F
:100FA000C8010E9414072C01A501480D591D9194F8
:100FB000819491089601B501C501880D991D0E9483
:100FC00014075C01B301680D791D9601A301C301EB
:100FD000821993090E9414073C0101C0280196015F
:100FE000A301B501C2010E9414075C0149855A851D
:100FF000B501C8010E94080789809A804B815C81F5
:1010000069857A85469F9001479F300D569F300D28
:1010100011243A8329833901600E711E2301540182
:10102000140120E030E06A147B0408F43FC0B801EA
:10103000C5012F833887F60109952F813885181649
:101040001906A4F1892B61F449855A85B501C101BE
:101050000E94080789859A85280E391E21E030E014
:10106000E985FA85AE0EBF1EDECFB801C3012F831E
:101070003887F6010995A30169857A85461B570BC8
:101080005C834B832F81388597FD14C0892B61F4D5
:1010900049855A85B201C3010E94080729853A850E
:1010A000421A530A21E030E06B807C806A147B0492
:1010B000E0F60FC049855A85B301C5010E940807B3
:1010C00049855A85A40EB51E6B807C8021E030E0F6
:1010D000AACF232B69F5E985FA85EE9EC001EF9E24
:1010E000900DFE9E900D11247801E80EF91E8E14CD
:1010F0009F0408F071C0340106151705A0F45301D0
:1011000029853A85A21AB30AB301C501F6010995EA
:101110001816190644F449855A85B501C3010E9481
:1011200008073501E9CF29853A85820E931EDFCF66
:1011300089819A814D815E81841B950BB801680F6E
:10114000791F7A8369837501E218F308A101401BB6
:10115000510BE416F5060CF4A7011416150634F429
:10116000B501641B750BC8010E940807420186186F
:10117000970849815A814419550989859A85481BE0
:10118000590B8416950608F4A401141615063CF4B0
:1011900069817A81641B750BC5010E940807E98586
:1011A000FA85EE15FF0548F4C701BF010E94250925
:1011B0009601AF01C8010E94490729853A85281583
:1011C000390550F409811A8108191909C401B901B6
:1011D0000E9425097B016DCE2A96E2E10C94550907
:1011E000BB274A3031F4992322F4BDE290958195D2
:1011F0009F4F0C94FC08BB27FB015527AA27880F9B
:10120000991FAA1FA41710F0A41B83955051B9F77A
:10121000A05DAA3308F0A95DA193009779F7B111F9
:10122000B1931192CB010C941509DC01FC01672FDD
:1012300071917723E1F7329704C07C916D937083AD
:101240006291AE17BF07C8F30895AA1BBB1B51E1FB
:1012500007C0AA1FBB1FA617B70710F0A61BB70B26
:10126000881F991F5A95A9F780959095BC01CD01CB
:1012700008952F923F924F925F926F927F928F923A
:101280009F92AF92BF92CF92DF92EF92FF920F9315
:101290001F93CF93DF93CDB7DEB7CA1BDB0B0FB61F
:1012A000F894DEBF0FBECDBF09942A8839884888DC
:1012B0005F846E847D848C849B84AA84B984C88472
:1012C000DF80EE80FD800C811B81AA81B981CE0F69
:1012D000D11D0FB6F894DEBF0FBECDBFED0108954E
:0412E000F894FFCFB0
:1012E40000E1000000000801080009000A000000F5
:0A12F40001000400050006000700D9
:00000001FF
