S01300006D726652656164546573742E73726563B0
S11300000C94B0000C94CD000C94CD000C94CF0053
S11300100C94CD000C94CD000C94CD000C94CD0028
S11300200C94CD000C94CD000C94F6010C94340285
S11300300C94CD000C94CD000C94CD000C94CD0008
S11300400C94CD000C94CD000C94CD000C94CD00F8
S11300500C94CD000C94CD000C94CD000C94CD00E8
S11300600C94CD000C94CD000C94CD000C94CD00D8
S11300700C94CD000C94CD000C94CD000C94CD00C8
S11300800C94CD000C94CD000C94CD000C94CD00B8
S11300900C94CD000C94CD000C94CD000C94CD00A8
S11300A00C94CD000C94CD000C94CD000001000004
S11300B04301120002000000014300030000FC00A1
S11300C00401030904E8001202030904E000060322
S11300D0030904D60008080334003100300000008E
S11300E006034D003200000012034A002E002000D7
S11300F04600690065006E00650000000403090401
S113010009024300020100C0320904000001020296
S11301100100052400100105240101010424020644
S113012005240600010705820310004009040100AC
S1130130020A0000000705030240000007058402CC
S11301404000001201000202000010C0167A0400F0
S113015001010203010001C1120180360181360050
S113016011241FBECFEFDAE0DEBFCDBF11E0A0E067
S1130170B1E0E2E7F7E002C005900D92A830B107C4
S1130180D9F721E0A8E0B1E001C01D92A531B20782
S1130190E1F70E94FE000C94B7030C9400001F9238
S11301A00F920FB60F9211242F933F934F935F93A7
S11301B06F937F938F939F93AF93BF93EF93FF932B
S11301C06AE088E091E00E9492016A9A72988FE452
S11301D093EC0197F1F700C00000FF91EF91BF91FC
S11301E0AF919F918F917F916F915F914F913F91CB
S11301F02F910F900FBE0F901F901895E1E6F0E03D
S113020080E8808383E080830E942B016E9A769835
S11302102FE78AE196E0215080409040E1F700C04A
S113022000004AE061E481E00E943C018823C9F3B4
S113023078946E9A769AE8E0F1E06A9A729A8081EC
S1130240803A11F46E9A76988FE493EC0197F1F763
S113025000C00000F2CF589A599A5A9A8CE08093C1
S1130260B800E9E6F0E080818062808380818F7E3F
S11302708083EA9A789408951F93CF93DF93182F7D
S1130280D62FC42F0E942B0194EA9093BC00ECEB70
S1130290F0E090819923ECF790E59093BB0094E80B
S11302A09093BC00ECEBF0E090819923ECF79091F3
S11302B0B900987F903229F484E98093BC0080E0EF
S11302C02DC081E08093BB0084E88093BC00ECEBFC
S11302D0F0E090819923ECF71093BB0084E88093BD
S11302E0BC00ECEBF0E080818823ECF7D093BB00FA
S11302F084E88093BC00ECEBF0E080818823ECF789
S1130300C093BB0084E88093BC00ECEBF0E08081F8
S11303108823ECF784E98093BC0081E0DF91CF91DE
S11303201F910895CF93DF939C0184EA8093BC00CE
S1130330ECEBF0E090819923ECF781E58093BB002E
S113034084E88093BC00ECEBF0E090819923ECF717
S11303508091B900887F883429F484E98093BC00B3
S113036080E041C084EC8093BC00ECEBF0E0908131
S11303709923ECF74091BB00461309C0842F90E009
S113038001971816190644F040E050E01AC084E9B9
S11303908093BC0080E027C0D90150E0415051094E
S11303A0B901640F751FECEBF0E084ECCBEBD0E00B
S11303B0808390819923ECF798819D93A617B707C2
S11303C0B9F784E88093BC00ECEBF0E090819923CA
S11303D0ECF78091BB00F901E40FF51F808384E9F9
S11303E08093BC0081E0DF91CF9108951F920F921A
S11303F00FB60F9211248F939F93EF93FF93E1EE27
S1130400F0E08081108283FF11C01092E90091E036
S11304109093EB001092EC0092E19093ED0098E041
S11304209093F000109214011092120182FF13C0F5
S113043080911401882379F080911301882359F065
S1130440815080931301811106C084E08093E900F8
S11304508AE38093E800FF91EF919F918F910F9031
S11304600FBE0F901F9018951F920F920FB60F9208
S113047011240F931F932F933F934F935F936F9385
S11304807F938F939F93AF93BF93CF93DF93EF9318
S1130490FF931092E9008091E80083FF4CC1E1EFE3
S11304A0F0E0608180812081908130E0392B4081AF
S11304B0908150E0592B7081C08192EF9093E800B5
S11304C0863009F058C004C081E28093EB003AC141
S11304D066E08CEA90E0FC01A591B4912A173B07F1
S11304E011F0079623C0FC013296A591B4914A17E6
S11304F05B0711F007961AC0FC013496459154919C
S1130500FC0136962491872F90E09C2B8F3F910518
S113051019F010F08FEF90E0821708F4282FA8EE5E
S1130520B0E070E16EEFC1EFD0E003C0615099F626
S1130530CBCF8C91982F9570E1F382FD03C1322FBC
S1130540213108F0372F332309F4F9C0FA01832F3E
S113055094919883815031968111FACF8FEF830F54
S113056090E00196480F591F231B6C932111E1CF92
S11305703031F9F2E7C0853061F48EEF8093E80002
S1130580E8EEF0E0808180FFFDCF20682093E30057
S1130590D9C0893009F035C06111CDC02093140150
S11305A010921201109213018EEF8093E80081E003
S11305B025E531E0C9EED0E0ABEEB0E00CEE10E0A2
S11305C06DEE70E08883A9014F5F5F4FF90194914C
S11305D09C93992361F0FA014491F8014083F90155
S11305E0329694912D5F3F4FFB01908301C09A0195
S11305F08F5F853039F7EAEEF0E08EE18083108278
S1130600A1C0883081F4603809F095C0E8EEF0E0CC
S1130610808180FFFDCF809114018093F1008EEFE3
S11306208093E8008FC08132B9F4613A09F083C045
S1130630E8EEF0E0808180FFFDCFE0E0F1E027E02C
S113064031E0A1EFB0E081918C93E217F307D9F781
S11306508EEF8093E80076C08032D1F4613209F0E5
S11306606AC0E8EEF0E0808182FFFDCFE0E0F1E0D7
S113067027E031E0A1EFB0E08C918193E217F3071A
S1130680D9F7E8EEF0E08BEF80838EEF80835AC0D9
S1130690823271F4613209F04EC020931201E8EE07
S11306A0F0E0808180FFFDCF8EEF8093E8004AC0A8
S11306B081111AC0E8EEF0E0808180FFFDCF62383E
S11306C051F4E9EEF0E040838091EB0085FB88274C
S11306D080F9108201C080E0E1EFF0E080831082B5
S11306E08EEF8093E8002EC0982F9D7F913019F5EE
S11306F0623009F5232BF9F44F779FEF940F943070
S1130700D0F49EEF9093E8004093E900833021F405
S113071081E28093EB0016C089E18093EB0081E0D5
S113072090E002C0880F991F4A95E2F7EAEEF0E0E4
S11307308083108207C081E28093EB0003C06C9336
S11307402111F7CEFF91EF91DF91CF91BF91AF913E
S11307509F918F917F916F915F914F913F912F91D5
S11307601F910F910F900FBE0F901F901895F89442
S1050770FFCFB5
S10B077200E100000000080092
S9030000FC
